{"contracts/DnaCollection.sol":{"DnaCollection":{"abi":[{"inputs":[{"internalType":"string","name":"name","type":"string"},{"internalType":"string","name":"symbol","type":"string"},{"internalType":"string","name":"description","type":"string"}],"stateMutability":"nonpayable","type":"constructor"},{"inputs":[{"internalType":"address","name":"sender","type":"address"},{"internalType":"uint256","name":"tokenId","type":"uint256"},{"internalType":"address","name":"owner","type":"address"}],"name":"ERC721IncorrectOwner","type":"error"},{"inputs":[{"internalType":"address","name":"operator","type":"address"},{"internalType":"uint256","name":"tokenId","type":"uint256"}],"name":"ERC721InsufficientApproval","type":"error"},{"inputs":[{"internalType":"address","name":"approver","type":"address"}],"name":"ERC721InvalidApprover","type":"error"},{"inputs":[{"internalType":"address","name":"operator","type":"address"}],"name":"ERC721InvalidOperator","type":"error"},{"inputs":[{"internalType":"address","name":"owner","type":"address"}],"name":"ERC721InvalidOwner","type":"error"},{"inputs":[{"internalType":"address","name":"receiver","type":"address"}],"name":"ERC721InvalidReceiver","type":"error"},{"inputs":[{"internalType":"address","name":"sender","type":"address"}],"name":"ERC721InvalidSender","type":"error"},{"inputs":[{"internalType":"uint256","name":"tokenId","type":"uint256"}],"name":"ERC721NonexistentToken","type":"error"},{"inputs":[{"internalType":"address","name":"owner","type":"address"}],"name":"OwnableInvalidOwner","type":"error"},{"inputs":[{"internalType":"address","name":"account","type":"address"}],"name":"OwnableUnauthorizedAccount","type":"error"},{"anonymous":false,"inputs":[{"indexed":true,"internalType":"address","name":"owner","type":"address"},{"indexed":true,"internalType":"address","name":"approved","type":"address"},{"indexed":true,"internalType":"uint256","name":"tokenId","type":"uint256"}],"name":"Approval","type":"event"},{"anonymous":false,"inputs":[{"indexed":true,"internalType":"address","name":"owner","type":"address"},{"indexed":true,"internalType":"address","name":"operator","type":"address"},{"indexed":false,"internalType":"bool","name":"approved","type":"bool"}],"name":"ApprovalForAll","type":"event"},{"anonymous":false,"inputs":[{"indexed":false,"internalType":"uint256","name":"_fromTokenId","type":"uint256"},{"indexed":false,"internalType":"uint256","name":"_toTokenId","type":"uint256"}],"name":"BatchMetadataUpdate","type":"event"},{"anonymous":false,"inputs":[{"indexed":false,"internalType":"uint256","name":"_tokenId","type":"uint256"}],"name":"MetadataUpdate","type":"event"},{"anonymous":false,"inputs":[{"indexed":false,"internalType":"uint256","name":"tokenId","type":"uint256"},{"indexed":false,"internalType":"string","name":"tokenURI","type":"string"},{"indexed":false,"internalType":"uint256","name":"startingPrice","type":"uint256"}],"name":"NFTCreated","type":"event"},{"anonymous":false,"inputs":[{"indexed":false,"internalType":"uint256","name":"tokenId","type":"uint256"},{"indexed":false,"internalType":"address","name":"buyer","type":"address"},{"indexed":false,"internalType":"uint256","name":"price","type":"uint256"}],"name":"NFTPurchased","type":"event"},{"anonymous":false,"inputs":[{"indexed":false,"internalType":"uint256","name":"tokenId","type":"uint256"},{"indexed":false,"internalType":"uint256","name":"newStartingPrice","type":"uint256"}],"name":"NFTStartingPriceChanged","type":"event"},{"anonymous":false,"inputs":[{"indexed":true,"internalType":"address","name":"previousOwner","type":"address"},{"indexed":true,"internalType":"address","name":"newOwner","type":"address"}],"name":"OwnershipTransferred","type":"event"},{"anonymous":false,"inputs":[{"indexed":true,"internalType":"address","name":"from","type":"address"},{"indexed":true,"internalType":"address","name":"to","type":"address"},{"indexed":true,"internalType":"uint256","name":"tokenId","type":"uint256"}],"name":"Transfer","type":"event"},{"inputs":[{"internalType":"address","name":"to","type":"address"},{"internalType":"uint256","name":"tokenId","type":"uint256"}],"name":"approve","outputs":[],"stateMutability":"nonpayable","type":"function"},{"inputs":[{"internalType":"address","name":"owner","type":"address"}],"name":"balanceOf","outputs":[{"internalType":"uint256","name":"","type":"uint256"}],"stateMutability":"view","type":"function"},{"inputs":[],"name":"collectionDescription","outputs":[{"internalType":"string","name":"","type":"string"}],"stateMutability":"view","type":"function"},{"inputs":[{"internalType":"address","name":"recipient","type":"address"},{"internalType":"string","name":"tokenURI","type":"string"},{"internalType":"uint256","name":"startingPrice","type":"uint256"}],"name":"createNFT","outputs":[{"internalType":"uint256","name":"","type":"uint256"}],"stateMutability":"nonpayable","type":"function"},{"inputs":[{"internalType":"uint256","name":"tokenId","type":"uint256"}],"name":"getApproved","outputs":[{"internalType":"address","name":"","type":"address"}],"stateMutability":"view","type":"function"},{"inputs":[],"name":"getContractOwner","outputs":[{"internalType":"address","name":"","type":"address"}],"stateMutability":"view","type":"function"},{"inputs":[{"internalType":"uint256","name":"tokenId","type":"uint256"}],"name":"getTokenStartingPrice","outputs":[{"internalType":"uint256","name":"","type":"uint256"}],"stateMutability":"view","type":"function"},{"inputs":[],"name":"getTotalNFTs","outputs":[{"internalType":"uint256","name":"","type":"uint256"}],"stateMutability":"view","type":"function"},{"inputs":[{"internalType":"address","name":"owner","type":"address"},{"internalType":"address","name":"operator","type":"address"}],"name":"isApprovedForAll","outputs":[{"internalType":"bool","name":"","type":"bool"}],"stateMutability":"view","type":"function"},{"inputs":[],"name":"name","outputs":[{"internalType":"string","name":"","type":"string"}],"stateMutability":"view","type":"function"},{"inputs":[],"name":"owner","outputs":[{"internalType":"address","name":"","type":"address"}],"stateMutability":"view","type":"function"},{"inputs":[{"internalType":"uint256","name":"tokenId","type":"uint256"}],"name":"ownerOf","outputs":[{"internalType":"address","name":"","type":"address"}],"stateMutability":"view","type":"function"},{"inputs":[{"internalType":"uint256","name":"tokenId","type":"uint256"},{"internalType":"address","name":"auctionContract","type":"address"}],"name":"prepareNFTForAuction","outputs":[],"stateMutability":"nonpayable","type":"function"},{"inputs":[{"internalType":"uint256","name":"tokenId","type":"uint256"}],"name":"purchaseNFT","outputs":[],"stateMutability":"payable","type":"function"},{"inputs":[],"name":"renounceOwnership","outputs":[],"stateMutability":"nonpayable","type":"function"},{"inputs":[{"internalType":"address","name":"from","type":"address"},{"internalType":"address","name":"to","type":"address"},{"internalType":"uint256","name":"tokenId","type":"uint256"}],"name":"safeTransferFrom","outputs":[],"stateMutability":"nonpayable","type":"function"},{"inputs":[{"internalType":"address","name":"from","type":"address"},{"internalType":"address","name":"to","type":"address"},{"internalType":"uint256","name":"tokenId","type":"uint256"},{"internalType":"bytes","name":"data","type":"bytes"}],"name":"safeTransferFrom","outputs":[],"stateMutability":"nonpayable","type":"function"},{"inputs":[{"internalType":"address","name":"operator","type":"address"},{"internalType":"bool","name":"approved","type":"bool"}],"name":"setApprovalForAll","outputs":[],"stateMutability":"nonpayable","type":"function"},{"inputs":[{"internalType":"uint256","name":"tokenId","type":"uint256"},{"internalType":"uint256","name":"startingPrice","type":"uint256"}],"name":"setTokenStartingPrice","outputs":[],"stateMutability":"nonpayable","type":"function"},{"inputs":[{"internalType":"bytes4","name":"interfaceId","type":"bytes4"}],"name":"supportsInterface","outputs":[{"internalType":"bool","name":"","type":"bool"}],"stateMutability":"view","type":"function"},{"inputs":[],"name":"symbol","outputs":[{"internalType":"string","name":"","type":"string"}],"stateMutability":"view","type":"function"},{"inputs":[{"internalType":"uint256","name":"tokenId","type":"uint256"}],"name":"tokenExists","outputs":[{"internalType":"bool","name":"","type":"bool"}],"stateMutability":"view","type":"function"},{"inputs":[{"internalType":"uint256","name":"tokenId","type":"uint256"}],"name":"tokenURI","outputs":[{"internalType":"string","name":"","type":"string"}],"stateMutability":"view","type":"function"},{"inputs":[{"internalType":"address","name":"from","type":"address"},{"internalType":"address","name":"to","type":"address"},{"internalType":"uint256","name":"tokenId","type":"uint256"}],"name":"transferFrom","outputs":[],"stateMutability":"nonpayable","type":"function"},{"inputs":[{"internalType":"address","name":"newOwner","type":"address"}],"name":"transferOwnership","outputs":[],"stateMutability":"nonpayable","type":"function"}],"evm":{"bytecode":{"linkReferences":{},"object":"608060405234801561001057600080fd5b506040516141af3803806141af83398181016040528101906100329190610334565b338383816000908161004491906105fc565b50806001908161005491906105fc565b505050600073ffffffffffffffffffffffffffffffffffffffff168173ffffffffffffffffffffffffffffffffffffffff16036100c95760006040517f1e4fbdf70000000000000000000000000000000000000000000000000000000081526004016100c0919061070f565b60405180910390fd5b6100d8816100f960201b60201c565b50600160088190555080600b90816100f091906105fc565b5050505061072a565b6000600760009054906101000a900473ffffffffffffffffffffffffffffffffffffffff16905081600760006101000a81548173ffffffffffffffffffffffffffffffffffffffff021916908373ffffffffffffffffffffffffffffffffffffffff1602179055508173ffffffffffffffffffffffffffffffffffffffff168173ffffffffffffffffffffffffffffffffffffffff167f8be0079c531659141344cd1fd0a4f28419497f9722a3daafe3b4186f6b6457e060405160405180910390a35050565b6000604051905090565b600080fd5b600080fd5b600080fd5b600080fd5b6000601f19601f8301169050919050565b7f4e487b7100000000000000000000000000000000000000000000000000000000600052604160045260246000fd5b610226826101dd565b810181811067ffffffffffffffff82111715610245576102446101ee565b5b80604052505050565b60006102586101bf565b9050610264828261021d565b919050565b600067ffffffffffffffff821115610284576102836101ee565b5b61028d826101dd565b9050602081019050919050565b60005b838110156102b857808201518184015260208101905061029d565b60008484015250505050565b60006102d76102d284610269565b61024e565b9050828152602081018484840111156102f3576102f26101d8565b5b6102fe84828561029a565b509392505050565b600082601f83011261031b5761031a6101d3565b5b815161032b8482602086016102c4565b91505092915050565b60008060006060848603121561034d5761034c6101c9565b5b600084015167ffffffffffffffff81111561036b5761036a6101ce565b5b61037786828701610306565b935050602084015167ffffffffffffffff811115610398576103976101ce565b5b6103a486828701610306565b925050604084015167ffffffffffffffff8111156103c5576103c46101ce565b5b6103d186828701610306565b9150509250925092565b600081519050919050565b7f4e487b7100000000000000000000000000000000000000000000000000000000600052602260045260246000fd5b6000600282049050600182168061042d57607f821691505b6020821081036104405761043f6103e6565b5b50919050565b60008190508160005260206000209050919050565b60006020601f8301049050919050565b600082821b905092915050565b6000600883026104a87fffffffffffffffffffffffffffffffffffffffffffffffffffffffffffffffff8261046b565b6104b2868361046b565b95508019841693508086168417925050509392505050565b6000819050919050565b6000819050919050565b60006104f96104f46104ef846104ca565b6104d4565b6104ca565b9050919050565b6000819050919050565b610513836104de565b61052761051f82610500565b848454610478565b825550505050565b600090565b61053c61052f565b61054781848461050a565b505050565b5b8181101561056b57610560600082610534565b60018101905061054d565b5050565b601f8211156105b05761058181610446565b61058a8461045b565b81016020851015610599578190505b6105ad6105a58561045b565b83018261054c565b50505b505050565b600082821c905092915050565b60006105d3600019846008026105b5565b1980831691505092915050565b60006105ec83836105c2565b9150826002028217905092915050565b610605826103db565b67ffffffffffffffff81111561061e5761061d6101ee565b5b6106288254610415565b61063382828561056f565b600060209050601f8311600181146106665760008415610654578287015190505b61065e85826105e0565b8655506106c6565b601f19841661067486610446565b60005b8281101561069c57848901518255600182019150602085019450602081019050610677565b868310156106b957848901516106b5601f8916826105c2565b8355505b6001600288020188555050505b505050505050565b600073ffffffffffffffffffffffffffffffffffffffff82169050919050565b60006106f9826106ce565b9050919050565b610709816106ee565b82525050565b60006020820190506107246000830184610700565b92915050565b613a76806107396000396000f3fe6080604052600436106101655760003560e01c80636352211e116100d1578063b88d4fde1161008a578063e2c6875c11610064578063e2c6875c1461053e578063e985e9c514610569578063eaa6a676146105a6578063f2fde38b146105e357610165565b8063b88d4fde146104af578063ba87e10e146104d8578063c87b56dd1461050157610165565b80636352211e1461039f57806370a08231146103dc578063715018a6146104195780638da5cb5b1461043057806395d89b411461045b578063a22cb4651461048657610165565b806323b872dd1161012357806323b872dd1461029157806326397ede146102ba57806330bdb351146102e357806342842e0e1461030e578063442890d5146103375780635feee1f61461036257610165565b8062923f9e1461016a57806301ffc9a7146101a757806306fdde03146101e4578063081812fc1461020f578063095ea7b31461024c578063150bde0314610275575b600080fd5b34801561017657600080fd5b50610191600480360381019061018c9190612675565b61060c565b60405161019e91906126bd565b60405180910390f35b3480156101b357600080fd5b506101ce60048036038101906101c99190612730565b61065b565b6040516101db91906126bd565b60405180910390f35b3480156101f057600080fd5b506101f96106bc565b60405161020691906127ed565b60405180910390f35b34801561021b57600080fd5b5061023660048036038101906102319190612675565b61074e565b6040516102439190612850565b60405180910390f35b34801561025857600080fd5b50610273600480360381019061026e9190612897565b61076a565b005b61028f600480360381019061028a9190612675565b610780565b005b34801561029d57600080fd5b506102b860048036038101906102b391906128d7565b610a74565b005b3480156102c657600080fd5b506102e160048036038101906102dc919061292a565b610a84565b005b3480156102ef57600080fd5b506102f8610b5e565b6040516103059190612979565b60405180910390f35b34801561031a57600080fd5b50610335600480360381019061033091906128d7565b610b68565b005b34801561034357600080fd5b5061034c610b88565b6040516103599190612850565b60405180910390f35b34801561036e57600080fd5b5061038960048036038101906103849190612675565b610b97565b6040516103969190612979565b60405180910390f35b3480156103ab57600080fd5b506103c660048036038101906103c19190612675565b610bfc565b6040516103d39190612850565b60405180910390f35b3480156103e857600080fd5b5061040360048036038101906103fe9190612994565b610c0e565b6040516104109190612979565b60405180910390f35b34801561042557600080fd5b5061042e610cc8565b005b34801561043c57600080fd5b50610445610cdc565b6040516104529190612850565b60405180910390f35b34801561046757600080fd5b50610470610d06565b60405161047d91906127ed565b60405180910390f35b34801561049257600080fd5b506104ad60048036038101906104a891906129ed565b610d98565b005b3480156104bb57600080fd5b506104d660048036038101906104d19190612b62565b610dae565b005b3480156104e457600080fd5b506104ff60048036038101906104fa9190612be5565b610dc0565b005b34801561050d57600080fd5b5061052860048036038101906105239190612675565b610f2a565b60405161053591906127ed565b60405180910390f35b34801561054a57600080fd5b5061055361103d565b60405161056091906127ed565b60405180910390f35b34801561057557600080fd5b50610590600480360381019061058b9190612c25565b6110cb565b60405161059d91906126bd565b60405180910390f35b3480156105b257600080fd5b506105cd60048036038101906105c89190612d06565b61115f565b6040516105da9190612979565b60405180910390f35b3480156105ef57600080fd5b5061060a60048036038101906106059190612994565b61122b565b005b6000600954821080156106545750600073ffffffffffffffffffffffffffffffffffffffff1661063b836112b1565b73ffffffffffffffffffffffffffffffffffffffff1614155b9050919050565b6000634906490660e01b7bffffffffffffffffffffffffffffffffffffffffffffffffffffffff1916827bffffffffffffffffffffffffffffffffffffffffffffffffffffffff191614806106b557506106b4826112ee565b5b9050919050565b6060600080546106cb90612da4565b80601f01602080910402602001604051908101604052809291908181526020018280546106f790612da4565b80156107445780601f1061071957610100808354040283529160200191610744565b820191906000526020600020905b81548152906001019060200180831161072757829003601f168201915b5050505050905090565b6000610759826113d0565b5061076382611458565b9050919050565b61077c8282610777611495565b61149d565b5050565b6107886114af565b6107918161060c565b6107d0576040517f08c379a00000000000000000000000000000000000000000000000000000000081526004016107c790612e47565b60405180910390fd5b60006107db82610bfc565b90503373ffffffffffffffffffffffffffffffffffffffff168173ffffffffffffffffffffffffffffffffffffffff160361084b576040517f08c379a000000000000000000000000000000000000000000000000000000000815260040161084290612ed9565b60405180910390fd5b6000600a6000848152602001908152602001600020549050803410156108a6576040517f08c379a000000000000000000000000000000000000000000000000000000000815260040161089d90612f6b565b60405180910390fd5b60008290506108b68333866114fe565b60008173ffffffffffffffffffffffffffffffffffffffff16836040516108dc90612fbc565b60006040518083038185875af1925050503d8060008114610919576040519150601f19603f3d011682016040523d82523d6000602084013e61091e565b606091505b5050905080610962576040517f08c379a000000000000000000000000000000000000000000000000000000000815260040161095990613043565b60405180910390fd5b600083346109709190613092565b90506000811115610a295760003373ffffffffffffffffffffffffffffffffffffffff16826040516109a190612fbc565b60006040518083038185875af1925050503d80600081146109de576040519150601f19603f3d011682016040523d82523d6000602084013e6109e3565b606091505b5050905080610a27576040517f08c379a0000000000000000000000000000000000000000000000000000000008152600401610a1e90613138565b60405180910390fd5b505b7fad546cba5af920bc2c64678bbd69f3d8965ac26d1b82f7ebf6f098aaa8335282863386604051610a5c93929190613158565b60405180910390a15050505050610a7161166b565b50565b610a7f838383611675565b505050565b610a8c611777565b610a958261060c565b610ad4576040517f08c379a0000000000000000000000000000000000000000000000000000000008152600401610acb90613201565b60405180910390fd5b60008111610b17576040517f08c379a0000000000000000000000000000000000000000000000000000000008152600401610b0e90613293565b60405180910390fd5b610b2182826117fe565b7f20a1cb9b8ff3fee50a5240590f9a9a3f400946e4ca78291af5188f5432dba8168282604051610b529291906132b3565b60405180910390a15050565b6000600954905090565b610b8383838360405180602001604052806000815250610dae565b505050565b6000610b92610cdc565b905090565b6000610ba28261060c565b610be1576040517f08c379a0000000000000000000000000000000000000000000000000000000008152600401610bd89061334e565b60405180910390fd5b600a6000838152602001908152602001600020549050919050565b6000610c07826113d0565b9050919050565b60008073ffffffffffffffffffffffffffffffffffffffff168273ffffffffffffffffffffffffffffffffffffffff1603610c815760006040517f89c62b64000000000000000000000000000000000000000000000000000000008152600401610c789190612850565b60405180910390fd5b600360008373ffffffffffffffffffffffffffffffffffffffff1673ffffffffffffffffffffffffffffffffffffffff168152602001908152602001600020549050919050565b610cd0611777565b610cda600061181a565b565b6000600760009054906101000a900473ffffffffffffffffffffffffffffffffffffffff16905090565b606060018054610d1590612da4565b80601f0160208091040260200160405190810160405280929190818152602001828054610d4190612da4565b8015610d8e5780601f10610d6357610100808354040283529160200191610d8e565b820191906000526020600020905b815481529060010190602001808311610d7157829003601f168201915b5050505050905090565b610daa610da3611495565b83836118e0565b5050565b610dba84848484611a4f565b50505050565b610dc8611777565b610dd06114af565b610dd98261060c565b610e18576040517f08c379a0000000000000000000000000000000000000000000000000000000008152600401610e0f906133ba565b60405180910390fd5b600073ffffffffffffffffffffffffffffffffffffffff168173ffffffffffffffffffffffffffffffffffffffff1603610e87576040517f08c379a0000000000000000000000000000000000000000000000000000000008152600401610e7e9061344c565b60405180910390fd5b6000610e9283610bfc565b90503373ffffffffffffffffffffffffffffffffffffffff168173ffffffffffffffffffffffffffffffffffffffff161480610ed45750610ed381336110cb565b5b610f13576040517f08c379a0000000000000000000000000000000000000000000000000000000008152600401610f0a906134de565b60405180910390fd5b610f1d828461076a565b50610f2661166b565b5050565b6060610f35826113d0565b506000600660008481526020019081526020016000208054610f5690612da4565b80601f0160208091040260200160405190810160405280929190818152602001828054610f8290612da4565b8015610fcf5780601f10610fa457610100808354040283529160200191610fcf565b820191906000526020600020905b815481529060010190602001808311610fb257829003601f168201915b505050505090506000610fe0611a74565b90506000815103610ff5578192505050611038565b60008251111561102a57808260405160200161101292919061353a565b60405160208183030381529060405292505050611038565b61103384611a8b565b925050505b919050565b600b805461104a90612da4565b80601f016020809104026020016040519081016040528092919081815260200182805461107690612da4565b80156110c35780601f10611098576101008083540402835291602001916110c3565b820191906000526020600020905b8154815290600101906020018083116110a657829003601f168201915b505050505081565b6000600560008473ffffffffffffffffffffffffffffffffffffffff1673ffffffffffffffffffffffffffffffffffffffff16815260200190815260200160002060008373ffffffffffffffffffffffffffffffffffffffff1673ffffffffffffffffffffffffffffffffffffffff16815260200190815260200160002060009054906101000a900460ff16905092915050565b6000611169611777565b600082116111ac576040517f08c379a00000000000000000000000000000000000000000000000000000000081526004016111a390613293565b60405180910390fd5b6000600960008154809291906111c19061355e565b9190505590506111d18582611af4565b6111db8185611b12565b6111e581846117fe565b7fcfced03c29b25b69154f93cdeeaf3c30acf71c9196106123a35ce944ad4e889d818585604051611218939291906135a6565b60405180910390a1809150509392505050565b611233611777565b600073ffffffffffffffffffffffffffffffffffffffff168173ffffffffffffffffffffffffffffffffffffffff16036112a55760006040517f1e4fbdf700000000000000000000000000000000000000000000000000000000815260040161129c9190612850565b60405180910390fd5b6112ae8161181a565b50565b60006002600083815260200190815260200160002060009054906101000a900473ffffffffffffffffffffffffffffffffffffffff169050919050565b60007f80ac58cd000000000000000000000000000000000000000000000000000000007bffffffffffffffffffffffffffffffffffffffffffffffffffffffff1916827bffffffffffffffffffffffffffffffffffffffffffffffffffffffff191614806113b957507f5b5e139f000000000000000000000000000000000000000000000000000000007bffffffffffffffffffffffffffffffffffffffffffffffffffffffff1916827bffffffffffffffffffffffffffffffffffffffffffffffffffffffff1916145b806113c957506113c882611b6e565b5b9050919050565b6000806113dc836112b1565b9050600073ffffffffffffffffffffffffffffffffffffffff168173ffffffffffffffffffffffffffffffffffffffff160361144f57826040517f7e2732890000000000000000000000000000000000000000000000000000000081526004016114469190612979565b60405180910390fd5b80915050919050565b60006004600083815260200190815260200160002060009054906101000a900473ffffffffffffffffffffffffffffffffffffffff169050919050565b600033905090565b6114aa8383836001611bd8565b505050565b6002600854036114f4576040517f08c379a00000000000000000000000000000000000000000000000000000000081526004016114eb90613630565b60405180910390fd5b6002600881905550565b600073ffffffffffffffffffffffffffffffffffffffff168273ffffffffffffffffffffffffffffffffffffffff16036115705760006040517f64a0ae920000000000000000000000000000000000000000000000000000000081526004016115679190612850565b60405180910390fd5b600061157e83836000611d9d565b9050600073ffffffffffffffffffffffffffffffffffffffff168173ffffffffffffffffffffffffffffffffffffffff16036115f157816040517f7e2732890000000000000000000000000000000000000000000000000000000081526004016115e89190612979565b60405180910390fd5b8373ffffffffffffffffffffffffffffffffffffffff168173ffffffffffffffffffffffffffffffffffffffff1614611665578382826040517f64283d7b00000000000000000000000000000000000000000000000000000000815260040161165c93929190613650565b60405180910390fd5b50505050565b6001600881905550565b600073ffffffffffffffffffffffffffffffffffffffff168273ffffffffffffffffffffffffffffffffffffffff16036116e75760006040517f64a0ae920000000000000000000000000000000000000000000000000000000081526004016116de9190612850565b60405180910390fd5b60006116fb83836116f6611495565b611d9d565b90508373ffffffffffffffffffffffffffffffffffffffff168173ffffffffffffffffffffffffffffffffffffffff1614611771578382826040517f64283d7b00000000000000000000000000000000000000000000000000000000815260040161176893929190613650565b60405180910390fd5b50505050565b61177f611495565b73ffffffffffffffffffffffffffffffffffffffff1661179d610cdc565b73ffffffffffffffffffffffffffffffffffffffff16146117fc576117c0611495565b6040517f118cdaa70000000000000000000000000000000000000000000000000000000081526004016117f39190612850565b60405180910390fd5b565b80600a6000848152602001908152602001600020819055505050565b6000600760009054906101000a900473ffffffffffffffffffffffffffffffffffffffff16905081600760006101000a81548173ffffffffffffffffffffffffffffffffffffffff021916908373ffffffffffffffffffffffffffffffffffffffff1602179055508173ffffffffffffffffffffffffffffffffffffffff168173ffffffffffffffffffffffffffffffffffffffff167f8be0079c531659141344cd1fd0a4f28419497f9722a3daafe3b4186f6b6457e060405160405180910390a35050565b600073ffffffffffffffffffffffffffffffffffffffff168273ffffffffffffffffffffffffffffffffffffffff160361195157816040517f5b08ba180000000000000000000000000000000000000000000000000000000081526004016119489190612850565b60405180910390fd5b80600560008573ffffffffffffffffffffffffffffffffffffffff1673ffffffffffffffffffffffffffffffffffffffff16815260200190815260200160002060008473ffffffffffffffffffffffffffffffffffffffff1673ffffffffffffffffffffffffffffffffffffffff16815260200190815260200160002060006101000a81548160ff0219169083151502179055508173ffffffffffffffffffffffffffffffffffffffff168373ffffffffffffffffffffffffffffffffffffffff167f17307eab39ab6107e8899845ad3d59bd9653f200f220920489ca2b5937696c3183604051611a4291906126bd565b60405180910390a3505050565b611a5a848484610a74565b611a6e611a65611495565b85858585611fb7565b50505050565b606060405180602001604052806000815250905090565b6060611a96826113d0565b506000611aa1611a74565b90506000815111611ac15760405180602001604052806000815250611aec565b80611acb84612168565b604051602001611adc92919061353a565b6040516020818303038152906040525b915050919050565b611b0e828260405180602001604052806000815250612236565b5050565b80600660008481526020019081526020016000209081611b329190613833565b507ff8e1a15aba9398e019f0b49df1a4fde98ee17ae345cb5f6b5e2c27f5033e8ce782604051611b629190612979565b60405180910390a15050565b60007f01ffc9a7000000000000000000000000000000000000000000000000000000007bffffffffffffffffffffffffffffffffffffffffffffffffffffffff1916827bffffffffffffffffffffffffffffffffffffffffffffffffffffffff1916149050919050565b8080611c115750600073ffffffffffffffffffffffffffffffffffffffff168273ffffffffffffffffffffffffffffffffffffffff1614155b15611d45576000611c21846113d0565b9050600073ffffffffffffffffffffffffffffffffffffffff168373ffffffffffffffffffffffffffffffffffffffff1614158015611c8c57508273ffffffffffffffffffffffffffffffffffffffff168173ffffffffffffffffffffffffffffffffffffffff1614155b8015611c9f5750611c9d81846110cb565b155b15611ce157826040517fa9fbf51f000000000000000000000000000000000000000000000000000000008152600401611cd89190612850565b60405180910390fd5b8115611d4357838573ffffffffffffffffffffffffffffffffffffffff168273ffffffffffffffffffffffffffffffffffffffff167f8c5be1e5ebec7d5bd14f71427d1e84f3dd0314c0f7b2291e5b200ac8c7c3b92560405160405180910390a45b505b836004600085815260200190815260200160002060006101000a81548173ffffffffffffffffffffffffffffffffffffffff021916908373ffffffffffffffffffffffffffffffffffffffff16021790555050505050565b600080611da9846112b1565b9050600073ffffffffffffffffffffffffffffffffffffffff168373ffffffffffffffffffffffffffffffffffffffff1614611deb57611dea81848661225a565b5b600073ffffffffffffffffffffffffffffffffffffffff168173ffffffffffffffffffffffffffffffffffffffff1614611e7c57611e2d600085600080611bd8565b6001600360008373ffffffffffffffffffffffffffffffffffffffff1673ffffffffffffffffffffffffffffffffffffffff168152602001908152602001600020600082825403925050819055505b600073ffffffffffffffffffffffffffffffffffffffff168573ffffffffffffffffffffffffffffffffffffffff1614611eff576001600360008773ffffffffffffffffffffffffffffffffffffffff1673ffffffffffffffffffffffffffffffffffffffff168152602001908152602001600020600082825401925050819055505b846002600086815260200190815260200160002060006101000a81548173ffffffffffffffffffffffffffffffffffffffff021916908373ffffffffffffffffffffffffffffffffffffffff160217905550838573ffffffffffffffffffffffffffffffffffffffff168273ffffffffffffffffffffffffffffffffffffffff167fddf252ad1be2c89b69c2b068fc378daa952ba7f163c4a11628f55a4df523b3ef60405160405180910390a4809150509392505050565b60008373ffffffffffffffffffffffffffffffffffffffff163b1115612161578273ffffffffffffffffffffffffffffffffffffffff1663150b7a02868685856040518563ffffffff1660e01b8152600401612016949392919061395a565b6020604051808303816000875af192505050801561205257506040513d601f19601f8201168201806040525081019061204f91906139bb565b60015b6120d6573d8060008114612082576040519150601f19603f3d011682016040523d82523d6000602084013e612087565b606091505b5060008151036120ce57836040517f64a0ae920000000000000000000000000000000000000000000000000000000081526004016120c59190612850565b60405180910390fd5b805181602001fd5b63150b7a0260e01b7bffffffffffffffffffffffffffffffffffffffffffffffffffffffff1916817bffffffffffffffffffffffffffffffffffffffffffffffffffffffff19161461215f57836040517f64a0ae920000000000000000000000000000000000000000000000000000000081526004016121569190612850565b60405180910390fd5b505b5050505050565b6060600060016121778461231e565b01905060008167ffffffffffffffff81111561219657612195612a37565b5b6040519080825280601f01601f1916602001820160405280156121c85781602001600182028036833780820191505090505b509050600082602001820190505b60011561222b578080600190039150507f3031323334353637383961626364656600000000000000000000000000000000600a86061a8153600a858161221f5761221e6139e8565b5b049450600085036121d6575b819350505050919050565b6122408383612471565b61225561224b611495565b6000858585611fb7565b505050565b61226583838361256a565b61231957600073ffffffffffffffffffffffffffffffffffffffff168373ffffffffffffffffffffffffffffffffffffffff16036122da57806040517f7e2732890000000000000000000000000000000000000000000000000000000081526004016122d19190612979565b60405180910390fd5b81816040517f177e802f000000000000000000000000000000000000000000000000000000008152600401612310929190613a17565b60405180910390fd5b505050565b600080600090507a184f03e93ff9f4daa797ed6e38ed64bf6a1f010000000000000000831061237c577a184f03e93ff9f4daa797ed6e38ed64bf6a1f0100000000000000008381612372576123716139e8565b5b0492506040810190505b6d04ee2d6d415b85acef810000000083106123b9576d04ee2d6d415b85acef810000000083816123af576123ae6139e8565b5b0492506020810190505b662386f26fc1000083106123e857662386f26fc1000083816123de576123dd6139e8565b5b0492506010810190505b6305f5e1008310612411576305f5e1008381612407576124066139e8565b5b0492506008810190505b612710831061243657612710838161242c5761242b6139e8565b5b0492506004810190505b60648310612459576064838161244f5761244e6139e8565b5b0492506002810190505b600a8310612468576001810190505b80915050919050565b600073ffffffffffffffffffffffffffffffffffffffff168273ffffffffffffffffffffffffffffffffffffffff16036124e35760006040517f64a0ae920000000000000000000000000000000000000000000000000000000081526004016124da9190612850565b60405180910390fd5b60006124f183836000611d9d565b9050600073ffffffffffffffffffffffffffffffffffffffff168173ffffffffffffffffffffffffffffffffffffffff16146125655760006040517f73c6ac6e00000000000000000000000000000000000000000000000000000000815260040161255c9190612850565b60405180910390fd5b505050565b60008073ffffffffffffffffffffffffffffffffffffffff168373ffffffffffffffffffffffffffffffffffffffff161415801561262257508273ffffffffffffffffffffffffffffffffffffffff168473ffffffffffffffffffffffffffffffffffffffff1614806125e357506125e284846110cb565b5b8061262157508273ffffffffffffffffffffffffffffffffffffffff1661260983611458565b73ffffffffffffffffffffffffffffffffffffffff16145b5b90509392505050565b6000604051905090565b600080fd5b600080fd5b6000819050919050565b6126528161263f565b811461265d57600080fd5b50565b60008135905061266f81612649565b92915050565b60006020828403121561268b5761268a612635565b5b600061269984828501612660565b91505092915050565b60008115159050919050565b6126b7816126a2565b82525050565b60006020820190506126d260008301846126ae565b92915050565b60007fffffffff0000000000000000000000000000000000000000000000000000000082169050919050565b61270d816126d8565b811461271857600080fd5b50565b60008135905061272a81612704565b92915050565b60006020828403121561274657612745612635565b5b60006127548482850161271b565b91505092915050565b600081519050919050565b600082825260208201905092915050565b60005b8381101561279757808201518184015260208101905061277c565b60008484015250505050565b6000601f19601f8301169050919050565b60006127bf8261275d565b6127c98185612768565b93506127d9818560208601612779565b6127e2816127a3565b840191505092915050565b6000602082019050818103600083015261280781846127b4565b905092915050565b600073ffffffffffffffffffffffffffffffffffffffff82169050919050565b600061283a8261280f565b9050919050565b61284a8161282f565b82525050565b60006020820190506128656000830184612841565b92915050565b6128748161282f565b811461287f57600080fd5b50565b6000813590506128918161286b565b92915050565b600080604083850312156128ae576128ad612635565b5b60006128bc85828601612882565b92505060206128cd85828601612660565b9150509250929050565b6000806000606084860312156128f0576128ef612635565b5b60006128fe86828701612882565b935050602061290f86828701612882565b925050604061292086828701612660565b9150509250925092565b6000806040838503121561294157612940612635565b5b600061294f85828601612660565b925050602061296085828601612660565b9150509250929050565b6129738161263f565b82525050565b600060208201905061298e600083018461296a565b92915050565b6000602082840312156129aa576129a9612635565b5b60006129b884828501612882565b91505092915050565b6129ca816126a2565b81146129d557600080fd5b50565b6000813590506129e7816129c1565b92915050565b60008060408385031215612a0457612a03612635565b5b6000612a1285828601612882565b9250506020612a23858286016129d8565b9150509250929050565b600080fd5b600080fd5b7f4e487b7100000000000000000000000000000000000000000000000000000000600052604160045260246000fd5b612a6f826127a3565b810181811067ffffffffffffffff82111715612a8e57612a8d612a37565b5b80604052505050565b6000612aa161262b565b9050612aad8282612a66565b919050565b600067ffffffffffffffff821115612acd57612acc612a37565b5b612ad6826127a3565b9050602081019050919050565b82818337600083830152505050565b6000612b05612b0084612ab2565b612a97565b905082815260208101848484011115612b2157612b20612a32565b5b612b2c848285612ae3565b509392505050565b600082601f830112612b4957612b48612a2d565b5b8135612b59848260208601612af2565b91505092915050565b60008060008060808587031215612b7c57612b7b612635565b5b6000612b8a87828801612882565b9450506020612b9b87828801612882565b9350506040612bac87828801612660565b925050606085013567ffffffffffffffff811115612bcd57612bcc61263a565b5b612bd987828801612b34565b91505092959194509250565b60008060408385031215612bfc57612bfb612635565b5b6000612c0a85828601612660565b9250506020612c1b85828601612882565b9150509250929050565b60008060408385031215612c3c57612c3b612635565b5b6000612c4a85828601612882565b9250506020612c5b85828601612882565b9150509250929050565b600067ffffffffffffffff821115612c8057612c7f612a37565b5b612c89826127a3565b9050602081019050919050565b6000612ca9612ca484612c65565b612a97565b905082815260208101848484011115612cc557612cc4612a32565b5b612cd0848285612ae3565b509392505050565b600082601f830112612ced57612cec612a2d565b5b8135612cfd848260208601612c96565b91505092915050565b600080600060608486031215612d1f57612d1e612635565b5b6000612d2d86828701612882565b935050602084013567ffffffffffffffff811115612d4e57612d4d61263a565b5b612d5a86828701612cd8565b9250506040612d6b86828701612660565b9150509250925092565b7f4e487b7100000000000000000000000000000000000000000000000000000000600052602260045260246000fd5b60006002820490506001821680612dbc57607f821691505b602082108103612dcf57612dce612d75565b5b50919050565b7f446e61436f6c6c656374696f6e3a20726963686965737461206469206163717560008201527f6973746f2070657220746f6b656e20696e6573697374656e7465000000000000602082015250565b6000612e31603a83612768565b9150612e3c82612dd5565b604082019050919050565b60006020820190508181036000830152612e6081612e24565b9050919050565b7f446e61436f6c6c656374696f6e3a206e6f6e2070756f6920616371756973746160008201527f726520696c2074756f2073746573736f204e4654000000000000000000000000602082015250565b6000612ec3603483612768565b9150612ece82612e67565b604082019050919050565b60006020820190508181036000830152612ef281612eb6565b9050919050565b7f446e61436f6c6c656374696f6e3a20666f6e646920696e73756666696369656e60008201527f7469000000000000000000000000000000000000000000000000000000000000602082015250565b6000612f55602283612768565b9150612f6082612ef9565b604082019050919050565b60006020820190508181036000830152612f8481612f48565b9050919050565b600081905092915050565b50565b6000612fa6600083612f8b565b9150612fb182612f96565b600082019050919050565b6000612fc782612f99565b9150819050919050565b7f446e61436f6c6c656374696f6e3a2074726173666572696d656e746f2066616c60008201527f6c69746f00000000000000000000000000000000000000000000000000000000602082015250565b600061302d602483612768565b915061303882612fd1565b604082019050919050565b6000602082019050818103600083015261305c81613020565b9050919050565b7f4e487b7100000000000000000000000000000000000000000000000000000000600052601160045260246000fd5b600061309d8261263f565b91506130a88361263f565b92508282039050818111156130c0576130bf613063565b5b92915050565b7f446e61436f6c6c656374696f6e3a2072696d626f72736f206563636573736f2060008201527f66616c6c69746f00000000000000000000000000000000000000000000000000602082015250565b6000613122602783612768565b915061312d826130c6565b604082019050919050565b6000602082019050818103600083015261315181613115565b9050919050565b600060608201905061316d600083018661296a565b61317a6020830185612841565b613187604083018461296a565b949350505050565b7f446e61436f6c6c656374696f6e3a207072657a7a6f20696d706f737461746f2060008201527f70657220746f6b656e20696e6573697374656e74650000000000000000000000602082015250565b60006131eb603583612768565b91506131f68261318f565b604082019050919050565b6000602082019050818103600083015261321a816131de565b9050919050565b7f446e61436f6c6c656374696f6e3a20696c207072657a7a6f20696e697a69616c60008201527f65206465766520657373657265206d616767696f7265206469207a65726f0000602082015250565b600061327d603e83612768565b915061328882613221565b604082019050919050565b600060208201905081810360008301526132ac81613270565b9050919050565b60006040820190506132c8600083018561296a565b6132d5602083018461296a565b9392505050565b7f446e61436f6c6c656374696f6e3a20726963686965737461207072657a7a6f2060008201527f70657220746f6b656e20696e6573697374656e74650000000000000000000000602082015250565b6000613338603583612768565b9150613343826132dc565b604082019050919050565b600060208201905081810360008301526133678161332b565b9050919050565b7f446e61436f6c6c656374696f6e3a20746f6b656e20696e6573697374656e7465600082015250565b60006133a4602083612768565b91506133af8261336e565b602082019050919050565b600060208201905081810360008301526133d381613397565b9050919050565b7f446e61436f6c6c656374696f6e3a20696e646972697a7a6f206173746120696e60008201527f76616c69646f0000000000000000000000000000000000000000000000000000602082015250565b6000613436602683612768565b9150613441826133da565b604082019050919050565b6000602082019050818103600083015261346581613429565b9050919050565b7f446e61436f6c6c656374696f6e3a206e6f6e206175746f72697a7a61746f206160008201527f207072657061726172652071756573746f204e46540000000000000000000000602082015250565b60006134c8603583612768565b91506134d38261346c565b604082019050919050565b600060208201905081810360008301526134f7816134bb565b9050919050565b600081905092915050565b60006135148261275d565b61351e81856134fe565b935061352e818560208601612779565b80840191505092915050565b60006135468285613509565b91506135528284613509565b91508190509392505050565b60006135698261263f565b91507fffffffffffffffffffffffffffffffffffffffffffffffffffffffffffffffff820361359b5761359a613063565b5b600182019050919050565b60006060820190506135bb600083018661296a565b81810360208301526135cd81856127b4565b90506135dc604083018461296a565b949350505050565b7f5265656e7472616e637947756172643a207265656e7472616e742063616c6c00600082015250565b600061361a601f83612768565b9150613625826135e4565b602082019050919050565b600060208201905081810360008301526136498161360d565b9050919050565b60006060820190506136656000830186612841565b613672602083018561296a565b61367f6040830184612841565b949350505050565b60008190508160005260206000209050919050565b60006020601f8301049050919050565b600082821b905092915050565b6000600883026136e97fffffffffffffffffffffffffffffffffffffffffffffffffffffffffffffffff826136ac565b6136f386836136ac565b95508019841693508086168417925050509392505050565b6000819050919050565b600061373061372b6137268461263f565b61370b565b61263f565b9050919050565b6000819050919050565b61374a83613715565b61375e61375682613737565b8484546136b9565b825550505050565b600090565b613773613766565b61377e818484613741565b505050565b5b818110156137a25761379760008261376b565b600181019050613784565b5050565b601f8211156137e7576137b881613687565b6137c18461369c565b810160208510156137d0578190505b6137e46137dc8561369c565b830182613783565b50505b505050565b600082821c905092915050565b600061380a600019846008026137ec565b1980831691505092915050565b600061382383836137f9565b9150826002028217905092915050565b61383c8261275d565b67ffffffffffffffff81111561385557613854612a37565b5b61385f8254612da4565b61386a8282856137a6565b600060209050601f83116001811461389d576000841561388b578287015190505b6138958582613817565b8655506138fd565b601f1984166138ab86613687565b60005b828110156138d3578489015182556001820191506020850194506020810190506138ae565b868310156138f057848901516138ec601f8916826137f9565b8355505b6001600288020188555050505b505050505050565b600081519050919050565b600082825260208201905092915050565b600061392c82613905565b6139368185613910565b9350613946818560208601612779565b61394f816127a3565b840191505092915050565b600060808201905061396f6000830187612841565b61397c6020830186612841565b613989604083018561296a565b818103606083015261399b8184613921565b905095945050505050565b6000815190506139b581612704565b92915050565b6000602082840312156139d1576139d0612635565b5b60006139df848285016139a6565b91505092915050565b7f4e487b7100000000000000000000000000000000000000000000000000000000600052601260045260246000fd5b6000604082019050613a2c6000830185612841565b613a39602083018461296a565b939250505056fea2646970667358221220ab4c3027866be699a031f90202eb68d9d3c7965f07958e8b2ea891e2c252797a64736f6c634300081c0033","opcodes":"PUSH1 0x80 PUSH1 0x40 MSTORE CALLVALUE DUP1 ISZERO PUSH2 0x10 JUMPI PUSH1 0x0 DUP1 REVERT JUMPDEST POP PUSH1 0x40 MLOAD PUSH2 0x41AF CODESIZE SUB DUP1 PUSH2 0x41AF DUP4 CODECOPY DUP2 DUP2 ADD PUSH1 0x40 MSTORE DUP2 ADD SWAP1 PUSH2 0x32 SWAP2 SWAP1 PUSH2 0x334 JUMP JUMPDEST CALLER DUP4 DUP4 DUP2 PUSH1 0x0 SWAP1 DUP2 PUSH2 0x44 SWAP2 SWAP1 PUSH2 0x5FC JUMP JUMPDEST POP DUP1 PUSH1 0x1 SWAP1 DUP2 PUSH2 0x54 SWAP2 SWAP1 PUSH2 0x5FC JUMP JUMPDEST POP POP POP PUSH1 0x0 PUSH20 0xFFFFFFFFFFFFFFFFFFFFFFFFFFFFFFFFFFFFFFFF AND DUP2 PUSH20 0xFFFFFFFFFFFFFFFFFFFFFFFFFFFFFFFFFFFFFFFF AND SUB PUSH2 0xC9 JUMPI PUSH1 0x0 PUSH1 0x40 MLOAD PUSH32 0x1E4FBDF700000000000000000000000000000000000000000000000000000000 DUP2 MSTORE PUSH1 0x4 ADD PUSH2 0xC0 SWAP2 SWAP1 PUSH2 0x70F JUMP JUMPDEST PUSH1 0x40 MLOAD DUP1 SWAP2 SUB SWAP1 REVERT JUMPDEST PUSH2 0xD8 DUP2 PUSH2 0xF9 PUSH1 0x20 SHL PUSH1 0x20 SHR JUMP JUMPDEST POP PUSH1 0x1 PUSH1 0x8 DUP2 SWAP1 SSTORE POP DUP1 PUSH1 0xB SWAP1 DUP2 PUSH2 0xF0 SWAP2 SWAP1 PUSH2 0x5FC JUMP JUMPDEST POP POP POP POP PUSH2 0x72A JUMP JUMPDEST PUSH1 0x0 PUSH1 0x7 PUSH1 0x0 SWAP1 SLOAD SWAP1 PUSH2 0x100 EXP SWAP1 DIV PUSH20 0xFFFFFFFFFFFFFFFFFFFFFFFFFFFFFFFFFFFFFFFF AND SWAP1 POP DUP2 PUSH1 0x7 PUSH1 0x0 PUSH2 0x100 EXP DUP2 SLOAD DUP2 PUSH20 0xFFFFFFFFFFFFFFFFFFFFFFFFFFFFFFFFFFFFFFFF MUL NOT AND SWAP1 DUP4 PUSH20 0xFFFFFFFFFFFFFFFFFFFFFFFFFFFFFFFFFFFFFFFF AND MUL OR SWAP1 SSTORE POP DUP2 PUSH20 0xFFFFFFFFFFFFFFFFFFFFFFFFFFFFFFFFFFFFFFFF AND DUP2 PUSH20 0xFFFFFFFFFFFFFFFFFFFFFFFFFFFFFFFFFFFFFFFF AND PUSH32 0x8BE0079C531659141344CD1FD0A4F28419497F9722A3DAAFE3B4186F6B6457E0 PUSH1 0x40 MLOAD PUSH1 0x40 MLOAD DUP1 SWAP2 SUB SWAP1 LOG3 POP POP JUMP JUMPDEST PUSH1 0x0 PUSH1 0x40 MLOAD SWAP1 POP SWAP1 JUMP JUMPDEST PUSH1 0x0 DUP1 REVERT JUMPDEST PUSH1 0x0 DUP1 REVERT JUMPDEST PUSH1 0x0 DUP1 REVERT JUMPDEST PUSH1 0x0 DUP1 REVERT JUMPDEST PUSH1 0x0 PUSH1 0x1F NOT PUSH1 0x1F DUP4 ADD AND SWAP1 POP SWAP2 SWAP1 POP JUMP JUMPDEST PUSH32 0x4E487B7100000000000000000000000000000000000000000000000000000000 PUSH1 0x0 MSTORE PUSH1 0x41 PUSH1 0x4 MSTORE PUSH1 0x24 PUSH1 0x0 REVERT JUMPDEST PUSH2 0x226 DUP3 PUSH2 0x1DD JUMP JUMPDEST DUP2 ADD DUP2 DUP2 LT PUSH8 0xFFFFFFFFFFFFFFFF DUP3 GT OR ISZERO PUSH2 0x245 JUMPI PUSH2 0x244 PUSH2 0x1EE JUMP JUMPDEST JUMPDEST DUP1 PUSH1 0x40 MSTORE POP POP POP JUMP JUMPDEST PUSH1 0x0 PUSH2 0x258 PUSH2 0x1BF JUMP JUMPDEST SWAP1 POP PUSH2 0x264 DUP3 DUP3 PUSH2 0x21D JUMP JUMPDEST SWAP2 SWAP1 POP JUMP JUMPDEST PUSH1 0x0 PUSH8 0xFFFFFFFFFFFFFFFF DUP3 GT ISZERO PUSH2 0x284 JUMPI PUSH2 0x283 PUSH2 0x1EE JUMP JUMPDEST JUMPDEST PUSH2 0x28D DUP3 PUSH2 0x1DD JUMP JUMPDEST SWAP1 POP PUSH1 0x20 DUP2 ADD SWAP1 POP SWAP2 SWAP1 POP JUMP JUMPDEST PUSH1 0x0 JUMPDEST DUP4 DUP2 LT ISZERO PUSH2 0x2B8 JUMPI DUP1 DUP3 ADD MLOAD DUP2 DUP5 ADD MSTORE PUSH1 0x20 DUP2 ADD SWAP1 POP PUSH2 0x29D JUMP JUMPDEST PUSH1 0x0 DUP5 DUP5 ADD MSTORE POP POP POP POP JUMP JUMPDEST PUSH1 0x0 PUSH2 0x2D7 PUSH2 0x2D2 DUP5 PUSH2 0x269 JUMP JUMPDEST PUSH2 0x24E JUMP JUMPDEST SWAP1 POP DUP3 DUP2 MSTORE PUSH1 0x20 DUP2 ADD DUP5 DUP5 DUP5 ADD GT ISZERO PUSH2 0x2F3 JUMPI PUSH2 0x2F2 PUSH2 0x1D8 JUMP JUMPDEST JUMPDEST PUSH2 0x2FE DUP5 DUP3 DUP6 PUSH2 0x29A JUMP JUMPDEST POP SWAP4 SWAP3 POP POP POP JUMP JUMPDEST PUSH1 0x0 DUP3 PUSH1 0x1F DUP4 ADD SLT PUSH2 0x31B JUMPI PUSH2 0x31A PUSH2 0x1D3 JUMP JUMPDEST JUMPDEST DUP2 MLOAD PUSH2 0x32B DUP5 DUP3 PUSH1 0x20 DUP7 ADD PUSH2 0x2C4 JUMP JUMPDEST SWAP2 POP POP SWAP3 SWAP2 POP POP JUMP JUMPDEST PUSH1 0x0 DUP1 PUSH1 0x0 PUSH1 0x60 DUP5 DUP7 SUB SLT ISZERO PUSH2 0x34D JUMPI PUSH2 0x34C PUSH2 0x1C9 JUMP JUMPDEST JUMPDEST PUSH1 0x0 DUP5 ADD MLOAD PUSH8 0xFFFFFFFFFFFFFFFF DUP2 GT ISZERO PUSH2 0x36B JUMPI PUSH2 0x36A PUSH2 0x1CE JUMP JUMPDEST JUMPDEST PUSH2 0x377 DUP7 DUP3 DUP8 ADD PUSH2 0x306 JUMP JUMPDEST SWAP4 POP POP PUSH1 0x20 DUP5 ADD MLOAD PUSH8 0xFFFFFFFFFFFFFFFF DUP2 GT ISZERO PUSH2 0x398 JUMPI PUSH2 0x397 PUSH2 0x1CE JUMP JUMPDEST JUMPDEST PUSH2 0x3A4 DUP7 DUP3 DUP8 ADD PUSH2 0x306 JUMP JUMPDEST SWAP3 POP POP PUSH1 0x40 DUP5 ADD MLOAD PUSH8 0xFFFFFFFFFFFFFFFF DUP2 GT ISZERO PUSH2 0x3C5 JUMPI PUSH2 0x3C4 PUSH2 0x1CE JUMP JUMPDEST JUMPDEST PUSH2 0x3D1 DUP7 DUP3 DUP8 ADD PUSH2 0x306 JUMP JUMPDEST SWAP2 POP POP SWAP3 POP SWAP3 POP SWAP3 JUMP JUMPDEST PUSH1 0x0 DUP2 MLOAD SWAP1 POP SWAP2 SWAP1 POP JUMP JUMPDEST PUSH32 0x4E487B7100000000000000000000000000000000000000000000000000000000 PUSH1 0x0 MSTORE PUSH1 0x22 PUSH1 0x4 MSTORE PUSH1 0x24 PUSH1 0x0 REVERT JUMPDEST PUSH1 0x0 PUSH1 0x2 DUP3 DIV SWAP1 POP PUSH1 0x1 DUP3 AND DUP1 PUSH2 0x42D JUMPI PUSH1 0x7F DUP3 AND SWAP2 POP JUMPDEST PUSH1 0x20 DUP3 LT DUP2 SUB PUSH2 0x440 JUMPI PUSH2 0x43F PUSH2 0x3E6 JUMP JUMPDEST JUMPDEST POP SWAP2 SWAP1 POP JUMP JUMPDEST PUSH1 0x0 DUP2 SWAP1 POP DUP2 PUSH1 0x0 MSTORE PUSH1 0x20 PUSH1 0x0 KECCAK256 SWAP1 POP SWAP2 SWAP1 POP JUMP JUMPDEST PUSH1 0x0 PUSH1 0x20 PUSH1 0x1F DUP4 ADD DIV SWAP1 POP SWAP2 SWAP1 POP JUMP JUMPDEST PUSH1 0x0 DUP3 DUP3 SHL SWAP1 POP SWAP3 SWAP2 POP POP JUMP JUMPDEST PUSH1 0x0 PUSH1 0x8 DUP4 MUL PUSH2 0x4A8 PUSH32 0xFFFFFFFFFFFFFFFFFFFFFFFFFFFFFFFFFFFFFFFFFFFFFFFFFFFFFFFFFFFFFFFF DUP3 PUSH2 0x46B JUMP JUMPDEST PUSH2 0x4B2 DUP7 DUP4 PUSH2 0x46B JUMP JUMPDEST SWAP6 POP DUP1 NOT DUP5 AND SWAP4 POP DUP1 DUP7 AND DUP5 OR SWAP3 POP POP POP SWAP4 SWAP3 POP POP POP JUMP JUMPDEST PUSH1 0x0 DUP2 SWAP1 POP SWAP2 SWAP1 POP JUMP JUMPDEST PUSH1 0x0 DUP2 SWAP1 POP SWAP2 SWAP1 POP JUMP JUMPDEST PUSH1 0x0 PUSH2 0x4F9 PUSH2 0x4F4 PUSH2 0x4EF DUP5 PUSH2 0x4CA JUMP JUMPDEST PUSH2 0x4D4 JUMP JUMPDEST PUSH2 0x4CA JUMP JUMPDEST SWAP1 POP SWAP2 SWAP1 POP JUMP JUMPDEST PUSH1 0x0 DUP2 SWAP1 POP SWAP2 SWAP1 POP JUMP JUMPDEST PUSH2 0x513 DUP4 PUSH2 0x4DE JUMP JUMPDEST PUSH2 0x527 PUSH2 0x51F DUP3 PUSH2 0x500 JUMP JUMPDEST DUP5 DUP5 SLOAD PUSH2 0x478 JUMP JUMPDEST DUP3 SSTORE POP POP POP POP JUMP JUMPDEST PUSH1 0x0 SWAP1 JUMP JUMPDEST PUSH2 0x53C PUSH2 0x52F JUMP JUMPDEST PUSH2 0x547 DUP2 DUP5 DUP5 PUSH2 0x50A JUMP JUMPDEST POP POP POP JUMP JUMPDEST JUMPDEST DUP2 DUP2 LT ISZERO PUSH2 0x56B JUMPI PUSH2 0x560 PUSH1 0x0 DUP3 PUSH2 0x534 JUMP JUMPDEST PUSH1 0x1 DUP2 ADD SWAP1 POP PUSH2 0x54D JUMP JUMPDEST POP POP JUMP JUMPDEST PUSH1 0x1F DUP3 GT ISZERO PUSH2 0x5B0 JUMPI PUSH2 0x581 DUP2 PUSH2 0x446 JUMP JUMPDEST PUSH2 0x58A DUP5 PUSH2 0x45B JUMP JUMPDEST DUP2 ADD PUSH1 0x20 DUP6 LT ISZERO PUSH2 0x599 JUMPI DUP2 SWAP1 POP JUMPDEST PUSH2 0x5AD PUSH2 0x5A5 DUP6 PUSH2 0x45B JUMP JUMPDEST DUP4 ADD DUP3 PUSH2 0x54C JUMP JUMPDEST POP POP JUMPDEST POP POP POP JUMP JUMPDEST PUSH1 0x0 DUP3 DUP3 SHR SWAP1 POP SWAP3 SWAP2 POP POP JUMP JUMPDEST PUSH1 0x0 PUSH2 0x5D3 PUSH1 0x0 NOT DUP5 PUSH1 0x8 MUL PUSH2 0x5B5 JUMP JUMPDEST NOT DUP1 DUP4 AND SWAP2 POP POP SWAP3 SWAP2 POP POP JUMP JUMPDEST PUSH1 0x0 PUSH2 0x5EC DUP4 DUP4 PUSH2 0x5C2 JUMP JUMPDEST SWAP2 POP DUP3 PUSH1 0x2 MUL DUP3 OR SWAP1 POP SWAP3 SWAP2 POP POP JUMP JUMPDEST PUSH2 0x605 DUP3 PUSH2 0x3DB JUMP JUMPDEST PUSH8 0xFFFFFFFFFFFFFFFF DUP2 GT ISZERO PUSH2 0x61E JUMPI PUSH2 0x61D PUSH2 0x1EE JUMP JUMPDEST JUMPDEST PUSH2 0x628 DUP3 SLOAD PUSH2 0x415 JUMP JUMPDEST PUSH2 0x633 DUP3 DUP3 DUP6 PUSH2 0x56F JUMP JUMPDEST PUSH1 0x0 PUSH1 0x20 SWAP1 POP PUSH1 0x1F DUP4 GT PUSH1 0x1 DUP2 EQ PUSH2 0x666 JUMPI PUSH1 0x0 DUP5 ISZERO PUSH2 0x654 JUMPI DUP3 DUP8 ADD MLOAD SWAP1 POP JUMPDEST PUSH2 0x65E DUP6 DUP3 PUSH2 0x5E0 JUMP JUMPDEST DUP7 SSTORE POP PUSH2 0x6C6 JUMP JUMPDEST PUSH1 0x1F NOT DUP5 AND PUSH2 0x674 DUP7 PUSH2 0x446 JUMP JUMPDEST PUSH1 0x0 JUMPDEST DUP3 DUP2 LT ISZERO PUSH2 0x69C JUMPI DUP5 DUP10 ADD MLOAD DUP3 SSTORE PUSH1 0x1 DUP3 ADD SWAP2 POP PUSH1 0x20 DUP6 ADD SWAP5 POP PUSH1 0x20 DUP2 ADD SWAP1 POP PUSH2 0x677 JUMP JUMPDEST DUP7 DUP4 LT ISZERO PUSH2 0x6B9 JUMPI DUP5 DUP10 ADD MLOAD PUSH2 0x6B5 PUSH1 0x1F DUP10 AND DUP3 PUSH2 0x5C2 JUMP JUMPDEST DUP4 SSTORE POP JUMPDEST PUSH1 0x1 PUSH1 0x2 DUP9 MUL ADD DUP9 SSTORE POP POP POP JUMPDEST POP POP POP POP POP POP JUMP JUMPDEST PUSH1 0x0 PUSH20 0xFFFFFFFFFFFFFFFFFFFFFFFFFFFFFFFFFFFFFFFF DUP3 AND SWAP1 POP SWAP2 SWAP1 POP JUMP JUMPDEST PUSH1 0x0 PUSH2 0x6F9 DUP3 PUSH2 0x6CE JUMP JUMPDEST SWAP1 POP SWAP2 SWAP1 POP JUMP JUMPDEST PUSH2 0x709 DUP2 PUSH2 0x6EE JUMP JUMPDEST DUP3 MSTORE POP POP JUMP JUMPDEST PUSH1 0x0 PUSH1 0x20 DUP3 ADD SWAP1 POP PUSH2 0x724 PUSH1 0x0 DUP4 ADD DUP5 PUSH2 0x700 JUMP JUMPDEST SWAP3 SWAP2 POP POP JUMP JUMPDEST PUSH2 0x3A76 DUP1 PUSH2 0x739 PUSH1 0x0 CODECOPY PUSH1 0x0 RETURN INVALID PUSH1 0x80 PUSH1 0x40 MSTORE PUSH1 0x4 CALLDATASIZE LT PUSH2 0x165 JUMPI PUSH1 0x0 CALLDATALOAD PUSH1 0xE0 SHR DUP1 PUSH4 0x6352211E GT PUSH2 0xD1 JUMPI DUP1 PUSH4 0xB88D4FDE GT PUSH2 0x8A JUMPI DUP1 PUSH4 0xE2C6875C GT PUSH2 0x64 JUMPI DUP1 PUSH4 0xE2C6875C EQ PUSH2 0x53E JUMPI DUP1 PUSH4 0xE985E9C5 EQ PUSH2 0x569 JUMPI DUP1 PUSH4 0xEAA6A676 EQ PUSH2 0x5A6 JUMPI DUP1 PUSH4 0xF2FDE38B EQ PUSH2 0x5E3 JUMPI PUSH2 0x165 JUMP JUMPDEST DUP1 PUSH4 0xB88D4FDE EQ PUSH2 0x4AF JUMPI DUP1 PUSH4 0xBA87E10E EQ PUSH2 0x4D8 JUMPI DUP1 PUSH4 0xC87B56DD EQ PUSH2 0x501 JUMPI PUSH2 0x165 JUMP JUMPDEST DUP1 PUSH4 0x6352211E EQ PUSH2 0x39F JUMPI DUP1 PUSH4 0x70A08231 EQ PUSH2 0x3DC JUMPI DUP1 PUSH4 0x715018A6 EQ PUSH2 0x419 JUMPI DUP1 PUSH4 0x8DA5CB5B EQ PUSH2 0x430 JUMPI DUP1 PUSH4 0x95D89B41 EQ PUSH2 0x45B JUMPI DUP1 PUSH4 0xA22CB465 EQ PUSH2 0x486 JUMPI PUSH2 0x165 JUMP JUMPDEST DUP1 PUSH4 0x23B872DD GT PUSH2 0x123 JUMPI DUP1 PUSH4 0x23B872DD EQ PUSH2 0x291 JUMPI DUP1 PUSH4 0x26397EDE EQ PUSH2 0x2BA JUMPI DUP1 PUSH4 0x30BDB351 EQ PUSH2 0x2E3 JUMPI DUP1 PUSH4 0x42842E0E EQ PUSH2 0x30E JUMPI DUP1 PUSH4 0x442890D5 EQ PUSH2 0x337 JUMPI DUP1 PUSH4 0x5FEEE1F6 EQ PUSH2 0x362 JUMPI PUSH2 0x165 JUMP JUMPDEST DUP1 PUSH3 0x923F9E EQ PUSH2 0x16A JUMPI DUP1 PUSH4 0x1FFC9A7 EQ PUSH2 0x1A7 JUMPI DUP1 PUSH4 0x6FDDE03 EQ PUSH2 0x1E4 JUMPI DUP1 PUSH4 0x81812FC EQ PUSH2 0x20F JUMPI DUP1 PUSH4 0x95EA7B3 EQ PUSH2 0x24C JUMPI DUP1 PUSH4 0x150BDE03 EQ PUSH2 0x275 JUMPI JUMPDEST PUSH1 0x0 DUP1 REVERT JUMPDEST CALLVALUE DUP1 ISZERO PUSH2 0x176 JUMPI PUSH1 0x0 DUP1 REVERT JUMPDEST POP PUSH2 0x191 PUSH1 0x4 DUP1 CALLDATASIZE SUB DUP2 ADD SWAP1 PUSH2 0x18C SWAP2 SWAP1 PUSH2 0x2675 JUMP JUMPDEST PUSH2 0x60C JUMP JUMPDEST PUSH1 0x40 MLOAD PUSH2 0x19E SWAP2 SWAP1 PUSH2 0x26BD JUMP JUMPDEST PUSH1 0x40 MLOAD DUP1 SWAP2 SUB SWAP1 RETURN JUMPDEST CALLVALUE DUP1 ISZERO PUSH2 0x1B3 JUMPI PUSH1 0x0 DUP1 REVERT JUMPDEST POP PUSH2 0x1CE PUSH1 0x4 DUP1 CALLDATASIZE SUB DUP2 ADD SWAP1 PUSH2 0x1C9 SWAP2 SWAP1 PUSH2 0x2730 JUMP JUMPDEST PUSH2 0x65B JUMP JUMPDEST PUSH1 0x40 MLOAD PUSH2 0x1DB SWAP2 SWAP1 PUSH2 0x26BD JUMP JUMPDEST PUSH1 0x40 MLOAD DUP1 SWAP2 SUB SWAP1 RETURN JUMPDEST CALLVALUE DUP1 ISZERO PUSH2 0x1F0 JUMPI PUSH1 0x0 DUP1 REVERT JUMPDEST POP PUSH2 0x1F9 PUSH2 0x6BC JUMP JUMPDEST PUSH1 0x40 MLOAD PUSH2 0x206 SWAP2 SWAP1 PUSH2 0x27ED JUMP JUMPDEST PUSH1 0x40 MLOAD DUP1 SWAP2 SUB SWAP1 RETURN JUMPDEST CALLVALUE DUP1 ISZERO PUSH2 0x21B JUMPI PUSH1 0x0 DUP1 REVERT JUMPDEST POP PUSH2 0x236 PUSH1 0x4 DUP1 CALLDATASIZE SUB DUP2 ADD SWAP1 PUSH2 0x231 SWAP2 SWAP1 PUSH2 0x2675 JUMP JUMPDEST PUSH2 0x74E JUMP JUMPDEST PUSH1 0x40 MLOAD PUSH2 0x243 SWAP2 SWAP1 PUSH2 0x2850 JUMP JUMPDEST PUSH1 0x40 MLOAD DUP1 SWAP2 SUB SWAP1 RETURN JUMPDEST CALLVALUE DUP1 ISZERO PUSH2 0x258 JUMPI PUSH1 0x0 DUP1 REVERT JUMPDEST POP PUSH2 0x273 PUSH1 0x4 DUP1 CALLDATASIZE SUB DUP2 ADD SWAP1 PUSH2 0x26E SWAP2 SWAP1 PUSH2 0x2897 JUMP JUMPDEST PUSH2 0x76A JUMP JUMPDEST STOP JUMPDEST PUSH2 0x28F PUSH1 0x4 DUP1 CALLDATASIZE SUB DUP2 ADD SWAP1 PUSH2 0x28A SWAP2 SWAP1 PUSH2 0x2675 JUMP JUMPDEST PUSH2 0x780 JUMP JUMPDEST STOP JUMPDEST CALLVALUE DUP1 ISZERO PUSH2 0x29D JUMPI PUSH1 0x0 DUP1 REVERT JUMPDEST POP PUSH2 0x2B8 PUSH1 0x4 DUP1 CALLDATASIZE SUB DUP2 ADD SWAP1 PUSH2 0x2B3 SWAP2 SWAP1 PUSH2 0x28D7 JUMP JUMPDEST PUSH2 0xA74 JUMP JUMPDEST STOP JUMPDEST CALLVALUE DUP1 ISZERO PUSH2 0x2C6 JUMPI PUSH1 0x0 DUP1 REVERT JUMPDEST POP PUSH2 0x2E1 PUSH1 0x4 DUP1 CALLDATASIZE SUB DUP2 ADD SWAP1 PUSH2 0x2DC SWAP2 SWAP1 PUSH2 0x292A JUMP JUMPDEST PUSH2 0xA84 JUMP JUMPDEST STOP JUMPDEST CALLVALUE DUP1 ISZERO PUSH2 0x2EF JUMPI PUSH1 0x0 DUP1 REVERT JUMPDEST POP PUSH2 0x2F8 PUSH2 0xB5E JUMP JUMPDEST PUSH1 0x40 MLOAD PUSH2 0x305 SWAP2 SWAP1 PUSH2 0x2979 JUMP JUMPDEST PUSH1 0x40 MLOAD DUP1 SWAP2 SUB SWAP1 RETURN JUMPDEST CALLVALUE DUP1 ISZERO PUSH2 0x31A JUMPI PUSH1 0x0 DUP1 REVERT JUMPDEST POP PUSH2 0x335 PUSH1 0x4 DUP1 CALLDATASIZE SUB DUP2 ADD SWAP1 PUSH2 0x330 SWAP2 SWAP1 PUSH2 0x28D7 JUMP JUMPDEST PUSH2 0xB68 JUMP JUMPDEST STOP JUMPDEST CALLVALUE DUP1 ISZERO PUSH2 0x343 JUMPI PUSH1 0x0 DUP1 REVERT JUMPDEST POP PUSH2 0x34C PUSH2 0xB88 JUMP JUMPDEST PUSH1 0x40 MLOAD PUSH2 0x359 SWAP2 SWAP1 PUSH2 0x2850 JUMP JUMPDEST PUSH1 0x40 MLOAD DUP1 SWAP2 SUB SWAP1 RETURN JUMPDEST CALLVALUE DUP1 ISZERO PUSH2 0x36E JUMPI PUSH1 0x0 DUP1 REVERT JUMPDEST POP PUSH2 0x389 PUSH1 0x4 DUP1 CALLDATASIZE SUB DUP2 ADD SWAP1 PUSH2 0x384 SWAP2 SWAP1 PUSH2 0x2675 JUMP JUMPDEST PUSH2 0xB97 JUMP JUMPDEST PUSH1 0x40 MLOAD PUSH2 0x396 SWAP2 SWAP1 PUSH2 0x2979 JUMP JUMPDEST PUSH1 0x40 MLOAD DUP1 SWAP2 SUB SWAP1 RETURN JUMPDEST CALLVALUE DUP1 ISZERO PUSH2 0x3AB JUMPI PUSH1 0x0 DUP1 REVERT JUMPDEST POP PUSH2 0x3C6 PUSH1 0x4 DUP1 CALLDATASIZE SUB DUP2 ADD SWAP1 PUSH2 0x3C1 SWAP2 SWAP1 PUSH2 0x2675 JUMP JUMPDEST PUSH2 0xBFC JUMP JUMPDEST PUSH1 0x40 MLOAD PUSH2 0x3D3 SWAP2 SWAP1 PUSH2 0x2850 JUMP JUMPDEST PUSH1 0x40 MLOAD DUP1 SWAP2 SUB SWAP1 RETURN JUMPDEST CALLVALUE DUP1 ISZERO PUSH2 0x3E8 JUMPI PUSH1 0x0 DUP1 REVERT JUMPDEST POP PUSH2 0x403 PUSH1 0x4 DUP1 CALLDATASIZE SUB DUP2 ADD SWAP1 PUSH2 0x3FE SWAP2 SWAP1 PUSH2 0x2994 JUMP JUMPDEST PUSH2 0xC0E JUMP JUMPDEST PUSH1 0x40 MLOAD PUSH2 0x410 SWAP2 SWAP1 PUSH2 0x2979 JUMP JUMPDEST PUSH1 0x40 MLOAD DUP1 SWAP2 SUB SWAP1 RETURN JUMPDEST CALLVALUE DUP1 ISZERO PUSH2 0x425 JUMPI PUSH1 0x0 DUP1 REVERT JUMPDEST POP PUSH2 0x42E PUSH2 0xCC8 JUMP JUMPDEST STOP JUMPDEST CALLVALUE DUP1 ISZERO PUSH2 0x43C JUMPI PUSH1 0x0 DUP1 REVERT JUMPDEST POP PUSH2 0x445 PUSH2 0xCDC JUMP JUMPDEST PUSH1 0x40 MLOAD PUSH2 0x452 SWAP2 SWAP1 PUSH2 0x2850 JUMP JUMPDEST PUSH1 0x40 MLOAD DUP1 SWAP2 SUB SWAP1 RETURN JUMPDEST CALLVALUE DUP1 ISZERO PUSH2 0x467 JUMPI PUSH1 0x0 DUP1 REVERT JUMPDEST POP PUSH2 0x470 PUSH2 0xD06 JUMP JUMPDEST PUSH1 0x40 MLOAD PUSH2 0x47D SWAP2 SWAP1 PUSH2 0x27ED JUMP JUMPDEST PUSH1 0x40 MLOAD DUP1 SWAP2 SUB SWAP1 RETURN JUMPDEST CALLVALUE DUP1 ISZERO PUSH2 0x492 JUMPI PUSH1 0x0 DUP1 REVERT JUMPDEST POP PUSH2 0x4AD PUSH1 0x4 DUP1 CALLDATASIZE SUB DUP2 ADD SWAP1 PUSH2 0x4A8 SWAP2 SWAP1 PUSH2 0x29ED JUMP JUMPDEST PUSH2 0xD98 JUMP JUMPDEST STOP JUMPDEST CALLVALUE DUP1 ISZERO PUSH2 0x4BB JUMPI PUSH1 0x0 DUP1 REVERT JUMPDEST POP PUSH2 0x4D6 PUSH1 0x4 DUP1 CALLDATASIZE SUB DUP2 ADD SWAP1 PUSH2 0x4D1 SWAP2 SWAP1 PUSH2 0x2B62 JUMP JUMPDEST PUSH2 0xDAE JUMP JUMPDEST STOP JUMPDEST CALLVALUE DUP1 ISZERO PUSH2 0x4E4 JUMPI PUSH1 0x0 DUP1 REVERT JUMPDEST POP PUSH2 0x4FF PUSH1 0x4 DUP1 CALLDATASIZE SUB DUP2 ADD SWAP1 PUSH2 0x4FA SWAP2 SWAP1 PUSH2 0x2BE5 JUMP JUMPDEST PUSH2 0xDC0 JUMP JUMPDEST STOP JUMPDEST CALLVALUE DUP1 ISZERO PUSH2 0x50D JUMPI PUSH1 0x0 DUP1 REVERT JUMPDEST POP PUSH2 0x528 PUSH1 0x4 DUP1 CALLDATASIZE SUB DUP2 ADD SWAP1 PUSH2 0x523 SWAP2 SWAP1 PUSH2 0x2675 JUMP JUMPDEST PUSH2 0xF2A JUMP JUMPDEST PUSH1 0x40 MLOAD PUSH2 0x535 SWAP2 SWAP1 PUSH2 0x27ED JUMP JUMPDEST PUSH1 0x40 MLOAD DUP1 SWAP2 SUB SWAP1 RETURN JUMPDEST CALLVALUE DUP1 ISZERO PUSH2 0x54A JUMPI PUSH1 0x0 DUP1 REVERT JUMPDEST POP PUSH2 0x553 PUSH2 0x103D JUMP JUMPDEST PUSH1 0x40 MLOAD PUSH2 0x560 SWAP2 SWAP1 PUSH2 0x27ED JUMP JUMPDEST PUSH1 0x40 MLOAD DUP1 SWAP2 SUB SWAP1 RETURN JUMPDEST CALLVALUE DUP1 ISZERO PUSH2 0x575 JUMPI PUSH1 0x0 DUP1 REVERT JUMPDEST POP PUSH2 0x590 PUSH1 0x4 DUP1 CALLDATASIZE SUB DUP2 ADD SWAP1 PUSH2 0x58B SWAP2 SWAP1 PUSH2 0x2C25 JUMP JUMPDEST PUSH2 0x10CB JUMP JUMPDEST PUSH1 0x40 MLOAD PUSH2 0x59D SWAP2 SWAP1 PUSH2 0x26BD JUMP JUMPDEST PUSH1 0x40 MLOAD DUP1 SWAP2 SUB SWAP1 RETURN JUMPDEST CALLVALUE DUP1 ISZERO PUSH2 0x5B2 JUMPI PUSH1 0x0 DUP1 REVERT JUMPDEST POP PUSH2 0x5CD PUSH1 0x4 DUP1 CALLDATASIZE SUB DUP2 ADD SWAP1 PUSH2 0x5C8 SWAP2 SWAP1 PUSH2 0x2D06 JUMP JUMPDEST PUSH2 0x115F JUMP JUMPDEST PUSH1 0x40 MLOAD PUSH2 0x5DA SWAP2 SWAP1 PUSH2 0x2979 JUMP JUMPDEST PUSH1 0x40 MLOAD DUP1 SWAP2 SUB SWAP1 RETURN JUMPDEST CALLVALUE DUP1 ISZERO PUSH2 0x5EF JUMPI PUSH1 0x0 DUP1 REVERT JUMPDEST POP PUSH2 0x60A PUSH1 0x4 DUP1 CALLDATASIZE SUB DUP2 ADD SWAP1 PUSH2 0x605 SWAP2 SWAP1 PUSH2 0x2994 JUMP JUMPDEST PUSH2 0x122B JUMP JUMPDEST STOP JUMPDEST PUSH1 0x0 PUSH1 0x9 SLOAD DUP3 LT DUP1 ISZERO PUSH2 0x654 JUMPI POP PUSH1 0x0 PUSH20 0xFFFFFFFFFFFFFFFFFFFFFFFFFFFFFFFFFFFFFFFF AND PUSH2 0x63B DUP4 PUSH2 0x12B1 JUMP JUMPDEST PUSH20 0xFFFFFFFFFFFFFFFFFFFFFFFFFFFFFFFFFFFFFFFF AND EQ ISZERO JUMPDEST SWAP1 POP SWAP2 SWAP1 POP JUMP JUMPDEST PUSH1 0x0 PUSH4 0x49064906 PUSH1 0xE0 SHL PUSH28 0xFFFFFFFFFFFFFFFFFFFFFFFFFFFFFFFFFFFFFFFFFFFFFFFFFFFFFFFF NOT AND DUP3 PUSH28 0xFFFFFFFFFFFFFFFFFFFFFFFFFFFFFFFFFFFFFFFFFFFFFFFFFFFFFFFF NOT AND EQ DUP1 PUSH2 0x6B5 JUMPI POP PUSH2 0x6B4 DUP3 PUSH2 0x12EE JUMP JUMPDEST JUMPDEST SWAP1 POP SWAP2 SWAP1 POP JUMP JUMPDEST PUSH1 0x60 PUSH1 0x0 DUP1 SLOAD PUSH2 0x6CB SWAP1 PUSH2 0x2DA4 JUMP JUMPDEST DUP1 PUSH1 0x1F ADD PUSH1 0x20 DUP1 SWAP2 DIV MUL PUSH1 0x20 ADD PUSH1 0x40 MLOAD SWAP1 DUP2 ADD PUSH1 0x40 MSTORE DUP1 SWAP3 SWAP2 SWAP1 DUP2 DUP2 MSTORE PUSH1 0x20 ADD DUP3 DUP1 SLOAD PUSH2 0x6F7 SWAP1 PUSH2 0x2DA4 JUMP JUMPDEST DUP1 ISZERO PUSH2 0x744 JUMPI DUP1 PUSH1 0x1F LT PUSH2 0x719 JUMPI PUSH2 0x100 DUP1 DUP4 SLOAD DIV MUL DUP4 MSTORE SWAP2 PUSH1 0x20 ADD SWAP2 PUSH2 0x744 JUMP JUMPDEST DUP3 ADD SWAP2 SWAP1 PUSH1 0x0 MSTORE PUSH1 0x20 PUSH1 0x0 KECCAK256 SWAP1 JUMPDEST DUP2 SLOAD DUP2 MSTORE SWAP1 PUSH1 0x1 ADD SWAP1 PUSH1 0x20 ADD DUP1 DUP4 GT PUSH2 0x727 JUMPI DUP3 SWAP1 SUB PUSH1 0x1F AND DUP3 ADD SWAP2 JUMPDEST POP POP POP POP POP SWAP1 POP SWAP1 JUMP JUMPDEST PUSH1 0x0 PUSH2 0x759 DUP3 PUSH2 0x13D0 JUMP JUMPDEST POP PUSH2 0x763 DUP3 PUSH2 0x1458 JUMP JUMPDEST SWAP1 POP SWAP2 SWAP1 POP JUMP JUMPDEST PUSH2 0x77C DUP3 DUP3 PUSH2 0x777 PUSH2 0x1495 JUMP JUMPDEST PUSH2 0x149D JUMP JUMPDEST POP POP JUMP JUMPDEST PUSH2 0x788 PUSH2 0x14AF JUMP JUMPDEST PUSH2 0x791 DUP2 PUSH2 0x60C JUMP JUMPDEST PUSH2 0x7D0 JUMPI PUSH1 0x40 MLOAD PUSH32 0x8C379A000000000000000000000000000000000000000000000000000000000 DUP2 MSTORE PUSH1 0x4 ADD PUSH2 0x7C7 SWAP1 PUSH2 0x2E47 JUMP JUMPDEST PUSH1 0x40 MLOAD DUP1 SWAP2 SUB SWAP1 REVERT JUMPDEST PUSH1 0x0 PUSH2 0x7DB DUP3 PUSH2 0xBFC JUMP JUMPDEST SWAP1 POP CALLER PUSH20 0xFFFFFFFFFFFFFFFFFFFFFFFFFFFFFFFFFFFFFFFF AND DUP2 PUSH20 0xFFFFFFFFFFFFFFFFFFFFFFFFFFFFFFFFFFFFFFFF AND SUB PUSH2 0x84B JUMPI PUSH1 0x40 MLOAD PUSH32 0x8C379A000000000000000000000000000000000000000000000000000000000 DUP2 MSTORE PUSH1 0x4 ADD PUSH2 0x842 SWAP1 PUSH2 0x2ED9 JUMP JUMPDEST PUSH1 0x40 MLOAD DUP1 SWAP2 SUB SWAP1 REVERT JUMPDEST PUSH1 0x0 PUSH1 0xA PUSH1 0x0 DUP5 DUP2 MSTORE PUSH1 0x20 ADD SWAP1 DUP2 MSTORE PUSH1 0x20 ADD PUSH1 0x0 KECCAK256 SLOAD SWAP1 POP DUP1 CALLVALUE LT ISZERO PUSH2 0x8A6 JUMPI PUSH1 0x40 MLOAD PUSH32 0x8C379A000000000000000000000000000000000000000000000000000000000 DUP2 MSTORE PUSH1 0x4 ADD PUSH2 0x89D SWAP1 PUSH2 0x2F6B JUMP JUMPDEST PUSH1 0x40 MLOAD DUP1 SWAP2 SUB SWAP1 REVERT JUMPDEST PUSH1 0x0 DUP3 SWAP1 POP PUSH2 0x8B6 DUP4 CALLER DUP7 PUSH2 0x14FE JUMP JUMPDEST PUSH1 0x0 DUP2 PUSH20 0xFFFFFFFFFFFFFFFFFFFFFFFFFFFFFFFFFFFFFFFF AND DUP4 PUSH1 0x40 MLOAD PUSH2 0x8DC SWAP1 PUSH2 0x2FBC JUMP JUMPDEST PUSH1 0x0 PUSH1 0x40 MLOAD DUP1 DUP4 SUB DUP2 DUP6 DUP8 GAS CALL SWAP3 POP POP POP RETURNDATASIZE DUP1 PUSH1 0x0 DUP2 EQ PUSH2 0x919 JUMPI PUSH1 0x40 MLOAD SWAP2 POP PUSH1 0x1F NOT PUSH1 0x3F RETURNDATASIZE ADD AND DUP3 ADD PUSH1 0x40 MSTORE RETURNDATASIZE DUP3 MSTORE RETURNDATASIZE PUSH1 0x0 PUSH1 0x20 DUP5 ADD RETURNDATACOPY PUSH2 0x91E JUMP JUMPDEST PUSH1 0x60 SWAP2 POP JUMPDEST POP POP SWAP1 POP DUP1 PUSH2 0x962 JUMPI PUSH1 0x40 MLOAD PUSH32 0x8C379A000000000000000000000000000000000000000000000000000000000 DUP2 MSTORE PUSH1 0x4 ADD PUSH2 0x959 SWAP1 PUSH2 0x3043 JUMP JUMPDEST PUSH1 0x40 MLOAD DUP1 SWAP2 SUB SWAP1 REVERT JUMPDEST PUSH1 0x0 DUP4 CALLVALUE PUSH2 0x970 SWAP2 SWAP1 PUSH2 0x3092 JUMP JUMPDEST SWAP1 POP PUSH1 0x0 DUP2 GT ISZERO PUSH2 0xA29 JUMPI PUSH1 0x0 CALLER PUSH20 0xFFFFFFFFFFFFFFFFFFFFFFFFFFFFFFFFFFFFFFFF AND DUP3 PUSH1 0x40 MLOAD PUSH2 0x9A1 SWAP1 PUSH2 0x2FBC JUMP JUMPDEST PUSH1 0x0 PUSH1 0x40 MLOAD DUP1 DUP4 SUB DUP2 DUP6 DUP8 GAS CALL SWAP3 POP POP POP RETURNDATASIZE DUP1 PUSH1 0x0 DUP2 EQ PUSH2 0x9DE JUMPI PUSH1 0x40 MLOAD SWAP2 POP PUSH1 0x1F NOT PUSH1 0x3F RETURNDATASIZE ADD AND DUP3 ADD PUSH1 0x40 MSTORE RETURNDATASIZE DUP3 MSTORE RETURNDATASIZE PUSH1 0x0 PUSH1 0x20 DUP5 ADD RETURNDATACOPY PUSH2 0x9E3 JUMP JUMPDEST PUSH1 0x60 SWAP2 POP JUMPDEST POP POP SWAP1 POP DUP1 PUSH2 0xA27 JUMPI PUSH1 0x40 MLOAD PUSH32 0x8C379A000000000000000000000000000000000000000000000000000000000 DUP2 MSTORE PUSH1 0x4 ADD PUSH2 0xA1E SWAP1 PUSH2 0x3138 JUMP JUMPDEST PUSH1 0x40 MLOAD DUP1 SWAP2 SUB SWAP1 REVERT JUMPDEST POP JUMPDEST PUSH32 0xAD546CBA5AF920BC2C64678BBD69F3D8965AC26D1B82F7EBF6F098AAA8335282 DUP7 CALLER DUP7 PUSH1 0x40 MLOAD PUSH2 0xA5C SWAP4 SWAP3 SWAP2 SWAP1 PUSH2 0x3158 JUMP JUMPDEST PUSH1 0x40 MLOAD DUP1 SWAP2 SUB SWAP1 LOG1 POP POP POP POP POP PUSH2 0xA71 PUSH2 0x166B JUMP JUMPDEST POP JUMP JUMPDEST PUSH2 0xA7F DUP4 DUP4 DUP4 PUSH2 0x1675 JUMP JUMPDEST POP POP POP JUMP JUMPDEST PUSH2 0xA8C PUSH2 0x1777 JUMP JUMPDEST PUSH2 0xA95 DUP3 PUSH2 0x60C JUMP JUMPDEST PUSH2 0xAD4 JUMPI PUSH1 0x40 MLOAD PUSH32 0x8C379A000000000000000000000000000000000000000000000000000000000 DUP2 MSTORE PUSH1 0x4 ADD PUSH2 0xACB SWAP1 PUSH2 0x3201 JUMP JUMPDEST PUSH1 0x40 MLOAD DUP1 SWAP2 SUB SWAP1 REVERT JUMPDEST PUSH1 0x0 DUP2 GT PUSH2 0xB17 JUMPI PUSH1 0x40 MLOAD PUSH32 0x8C379A000000000000000000000000000000000000000000000000000000000 DUP2 MSTORE PUSH1 0x4 ADD PUSH2 0xB0E SWAP1 PUSH2 0x3293 JUMP JUMPDEST PUSH1 0x40 MLOAD DUP1 SWAP2 SUB SWAP1 REVERT JUMPDEST PUSH2 0xB21 DUP3 DUP3 PUSH2 0x17FE JUMP JUMPDEST PUSH32 0x20A1CB9B8FF3FEE50A5240590F9A9A3F400946E4CA78291AF5188F5432DBA816 DUP3 DUP3 PUSH1 0x40 MLOAD PUSH2 0xB52 SWAP3 SWAP2 SWAP1 PUSH2 0x32B3 JUMP JUMPDEST PUSH1 0x40 MLOAD DUP1 SWAP2 SUB SWAP1 LOG1 POP POP JUMP JUMPDEST PUSH1 0x0 PUSH1 0x9 SLOAD SWAP1 POP SWAP1 JUMP JUMPDEST PUSH2 0xB83 DUP4 DUP4 DUP4 PUSH1 0x40 MLOAD DUP1 PUSH1 0x20 ADD PUSH1 0x40 MSTORE DUP1 PUSH1 0x0 DUP2 MSTORE POP PUSH2 0xDAE JUMP JUMPDEST POP POP POP JUMP JUMPDEST PUSH1 0x0 PUSH2 0xB92 PUSH2 0xCDC JUMP JUMPDEST SWAP1 POP SWAP1 JUMP JUMPDEST PUSH1 0x0 PUSH2 0xBA2 DUP3 PUSH2 0x60C JUMP JUMPDEST PUSH2 0xBE1 JUMPI PUSH1 0x40 MLOAD PUSH32 0x8C379A000000000000000000000000000000000000000000000000000000000 DUP2 MSTORE PUSH1 0x4 ADD PUSH2 0xBD8 SWAP1 PUSH2 0x334E JUMP JUMPDEST PUSH1 0x40 MLOAD DUP1 SWAP2 SUB SWAP1 REVERT JUMPDEST PUSH1 0xA PUSH1 0x0 DUP4 DUP2 MSTORE PUSH1 0x20 ADD SWAP1 DUP2 MSTORE PUSH1 0x20 ADD PUSH1 0x0 KECCAK256 SLOAD SWAP1 POP SWAP2 SWAP1 POP JUMP JUMPDEST PUSH1 0x0 PUSH2 0xC07 DUP3 PUSH2 0x13D0 JUMP JUMPDEST SWAP1 POP SWAP2 SWAP1 POP JUMP JUMPDEST PUSH1 0x0 DUP1 PUSH20 0xFFFFFFFFFFFFFFFFFFFFFFFFFFFFFFFFFFFFFFFF AND DUP3 PUSH20 0xFFFFFFFFFFFFFFFFFFFFFFFFFFFFFFFFFFFFFFFF AND SUB PUSH2 0xC81 JUMPI PUSH1 0x0 PUSH1 0x40 MLOAD PUSH32 0x89C62B6400000000000000000000000000000000000000000000000000000000 DUP2 MSTORE PUSH1 0x4 ADD PUSH2 0xC78 SWAP2 SWAP1 PUSH2 0x2850 JUMP JUMPDEST PUSH1 0x40 MLOAD DUP1 SWAP2 SUB SWAP1 REVERT JUMPDEST PUSH1 0x3 PUSH1 0x0 DUP4 PUSH20 0xFFFFFFFFFFFFFFFFFFFFFFFFFFFFFFFFFFFFFFFF AND PUSH20 0xFFFFFFFFFFFFFFFFFFFFFFFFFFFFFFFFFFFFFFFF AND DUP2 MSTORE PUSH1 0x20 ADD SWAP1 DUP2 MSTORE PUSH1 0x20 ADD PUSH1 0x0 KECCAK256 SLOAD SWAP1 POP SWAP2 SWAP1 POP JUMP JUMPDEST PUSH2 0xCD0 PUSH2 0x1777 JUMP JUMPDEST PUSH2 0xCDA PUSH1 0x0 PUSH2 0x181A JUMP JUMPDEST JUMP JUMPDEST PUSH1 0x0 PUSH1 0x7 PUSH1 0x0 SWAP1 SLOAD SWAP1 PUSH2 0x100 EXP SWAP1 DIV PUSH20 0xFFFFFFFFFFFFFFFFFFFFFFFFFFFFFFFFFFFFFFFF AND SWAP1 POP SWAP1 JUMP JUMPDEST PUSH1 0x60 PUSH1 0x1 DUP1 SLOAD PUSH2 0xD15 SWAP1 PUSH2 0x2DA4 JUMP JUMPDEST DUP1 PUSH1 0x1F ADD PUSH1 0x20 DUP1 SWAP2 DIV MUL PUSH1 0x20 ADD PUSH1 0x40 MLOAD SWAP1 DUP2 ADD PUSH1 0x40 MSTORE DUP1 SWAP3 SWAP2 SWAP1 DUP2 DUP2 MSTORE PUSH1 0x20 ADD DUP3 DUP1 SLOAD PUSH2 0xD41 SWAP1 PUSH2 0x2DA4 JUMP JUMPDEST DUP1 ISZERO PUSH2 0xD8E JUMPI DUP1 PUSH1 0x1F LT PUSH2 0xD63 JUMPI PUSH2 0x100 DUP1 DUP4 SLOAD DIV MUL DUP4 MSTORE SWAP2 PUSH1 0x20 ADD SWAP2 PUSH2 0xD8E JUMP JUMPDEST DUP3 ADD SWAP2 SWAP1 PUSH1 0x0 MSTORE PUSH1 0x20 PUSH1 0x0 KECCAK256 SWAP1 JUMPDEST DUP2 SLOAD DUP2 MSTORE SWAP1 PUSH1 0x1 ADD SWAP1 PUSH1 0x20 ADD DUP1 DUP4 GT PUSH2 0xD71 JUMPI DUP3 SWAP1 SUB PUSH1 0x1F AND DUP3 ADD SWAP2 JUMPDEST POP POP POP POP POP SWAP1 POP SWAP1 JUMP JUMPDEST PUSH2 0xDAA PUSH2 0xDA3 PUSH2 0x1495 JUMP JUMPDEST DUP4 DUP4 PUSH2 0x18E0 JUMP JUMPDEST POP POP JUMP JUMPDEST PUSH2 0xDBA DUP5 DUP5 DUP5 DUP5 PUSH2 0x1A4F JUMP JUMPDEST POP POP POP POP JUMP JUMPDEST PUSH2 0xDC8 PUSH2 0x1777 JUMP JUMPDEST PUSH2 0xDD0 PUSH2 0x14AF JUMP JUMPDEST PUSH2 0xDD9 DUP3 PUSH2 0x60C JUMP JUMPDEST PUSH2 0xE18 JUMPI PUSH1 0x40 MLOAD PUSH32 0x8C379A000000000000000000000000000000000000000000000000000000000 DUP2 MSTORE PUSH1 0x4 ADD PUSH2 0xE0F SWAP1 PUSH2 0x33BA JUMP JUMPDEST PUSH1 0x40 MLOAD DUP1 SWAP2 SUB SWAP1 REVERT JUMPDEST PUSH1 0x0 PUSH20 0xFFFFFFFFFFFFFFFFFFFFFFFFFFFFFFFFFFFFFFFF AND DUP2 PUSH20 0xFFFFFFFFFFFFFFFFFFFFFFFFFFFFFFFFFFFFFFFF AND SUB PUSH2 0xE87 JUMPI PUSH1 0x40 MLOAD PUSH32 0x8C379A000000000000000000000000000000000000000000000000000000000 DUP2 MSTORE PUSH1 0x4 ADD PUSH2 0xE7E SWAP1 PUSH2 0x344C JUMP JUMPDEST PUSH1 0x40 MLOAD DUP1 SWAP2 SUB SWAP1 REVERT JUMPDEST PUSH1 0x0 PUSH2 0xE92 DUP4 PUSH2 0xBFC JUMP JUMPDEST SWAP1 POP CALLER PUSH20 0xFFFFFFFFFFFFFFFFFFFFFFFFFFFFFFFFFFFFFFFF AND DUP2 PUSH20 0xFFFFFFFFFFFFFFFFFFFFFFFFFFFFFFFFFFFFFFFF AND EQ DUP1 PUSH2 0xED4 JUMPI POP PUSH2 0xED3 DUP2 CALLER PUSH2 0x10CB JUMP JUMPDEST JUMPDEST PUSH2 0xF13 JUMPI PUSH1 0x40 MLOAD PUSH32 0x8C379A000000000000000000000000000000000000000000000000000000000 DUP2 MSTORE PUSH1 0x4 ADD PUSH2 0xF0A SWAP1 PUSH2 0x34DE JUMP JUMPDEST PUSH1 0x40 MLOAD DUP1 SWAP2 SUB SWAP1 REVERT JUMPDEST PUSH2 0xF1D DUP3 DUP5 PUSH2 0x76A JUMP JUMPDEST POP PUSH2 0xF26 PUSH2 0x166B JUMP JUMPDEST POP POP JUMP JUMPDEST PUSH1 0x60 PUSH2 0xF35 DUP3 PUSH2 0x13D0 JUMP JUMPDEST POP PUSH1 0x0 PUSH1 0x6 PUSH1 0x0 DUP5 DUP2 MSTORE PUSH1 0x20 ADD SWAP1 DUP2 MSTORE PUSH1 0x20 ADD PUSH1 0x0 KECCAK256 DUP1 SLOAD PUSH2 0xF56 SWAP1 PUSH2 0x2DA4 JUMP JUMPDEST DUP1 PUSH1 0x1F ADD PUSH1 0x20 DUP1 SWAP2 DIV MUL PUSH1 0x20 ADD PUSH1 0x40 MLOAD SWAP1 DUP2 ADD PUSH1 0x40 MSTORE DUP1 SWAP3 SWAP2 SWAP1 DUP2 DUP2 MSTORE PUSH1 0x20 ADD DUP3 DUP1 SLOAD PUSH2 0xF82 SWAP1 PUSH2 0x2DA4 JUMP JUMPDEST DUP1 ISZERO PUSH2 0xFCF JUMPI DUP1 PUSH1 0x1F LT PUSH2 0xFA4 JUMPI PUSH2 0x100 DUP1 DUP4 SLOAD DIV MUL DUP4 MSTORE SWAP2 PUSH1 0x20 ADD SWAP2 PUSH2 0xFCF JUMP JUMPDEST DUP3 ADD SWAP2 SWAP1 PUSH1 0x0 MSTORE PUSH1 0x20 PUSH1 0x0 KECCAK256 SWAP1 JUMPDEST DUP2 SLOAD DUP2 MSTORE SWAP1 PUSH1 0x1 ADD SWAP1 PUSH1 0x20 ADD DUP1 DUP4 GT PUSH2 0xFB2 JUMPI DUP3 SWAP1 SUB PUSH1 0x1F AND DUP3 ADD SWAP2 JUMPDEST POP POP POP POP POP SWAP1 POP PUSH1 0x0 PUSH2 0xFE0 PUSH2 0x1A74 JUMP JUMPDEST SWAP1 POP PUSH1 0x0 DUP2 MLOAD SUB PUSH2 0xFF5 JUMPI DUP2 SWAP3 POP POP POP PUSH2 0x1038 JUMP JUMPDEST PUSH1 0x0 DUP3 MLOAD GT ISZERO PUSH2 0x102A JUMPI DUP1 DUP3 PUSH1 0x40 MLOAD PUSH1 0x20 ADD PUSH2 0x1012 SWAP3 SWAP2 SWAP1 PUSH2 0x353A JUMP JUMPDEST PUSH1 0x40 MLOAD PUSH1 0x20 DUP2 DUP4 SUB SUB DUP2 MSTORE SWAP1 PUSH1 0x40 MSTORE SWAP3 POP POP POP PUSH2 0x1038 JUMP JUMPDEST PUSH2 0x1033 DUP5 PUSH2 0x1A8B JUMP JUMPDEST SWAP3 POP POP POP JUMPDEST SWAP2 SWAP1 POP JUMP JUMPDEST PUSH1 0xB DUP1 SLOAD PUSH2 0x104A SWAP1 PUSH2 0x2DA4 JUMP JUMPDEST DUP1 PUSH1 0x1F ADD PUSH1 0x20 DUP1 SWAP2 DIV MUL PUSH1 0x20 ADD PUSH1 0x40 MLOAD SWAP1 DUP2 ADD PUSH1 0x40 MSTORE DUP1 SWAP3 SWAP2 SWAP1 DUP2 DUP2 MSTORE PUSH1 0x20 ADD DUP3 DUP1 SLOAD PUSH2 0x1076 SWAP1 PUSH2 0x2DA4 JUMP JUMPDEST DUP1 ISZERO PUSH2 0x10C3 JUMPI DUP1 PUSH1 0x1F LT PUSH2 0x1098 JUMPI PUSH2 0x100 DUP1 DUP4 SLOAD DIV MUL DUP4 MSTORE SWAP2 PUSH1 0x20 ADD SWAP2 PUSH2 0x10C3 JUMP JUMPDEST DUP3 ADD SWAP2 SWAP1 PUSH1 0x0 MSTORE PUSH1 0x20 PUSH1 0x0 KECCAK256 SWAP1 JUMPDEST DUP2 SLOAD DUP2 MSTORE SWAP1 PUSH1 0x1 ADD SWAP1 PUSH1 0x20 ADD DUP1 DUP4 GT PUSH2 0x10A6 JUMPI DUP3 SWAP1 SUB PUSH1 0x1F AND DUP3 ADD SWAP2 JUMPDEST POP POP POP POP POP DUP2 JUMP JUMPDEST PUSH1 0x0 PUSH1 0x5 PUSH1 0x0 DUP5 PUSH20 0xFFFFFFFFFFFFFFFFFFFFFFFFFFFFFFFFFFFFFFFF AND PUSH20 0xFFFFFFFFFFFFFFFFFFFFFFFFFFFFFFFFFFFFFFFF AND DUP2 MSTORE PUSH1 0x20 ADD SWAP1 DUP2 MSTORE PUSH1 0x20 ADD PUSH1 0x0 KECCAK256 PUSH1 0x0 DUP4 PUSH20 0xFFFFFFFFFFFFFFFFFFFFFFFFFFFFFFFFFFFFFFFF AND PUSH20 0xFFFFFFFFFFFFFFFFFFFFFFFFFFFFFFFFFFFFFFFF AND DUP2 MSTORE PUSH1 0x20 ADD SWAP1 DUP2 MSTORE PUSH1 0x20 ADD PUSH1 0x0 KECCAK256 PUSH1 0x0 SWAP1 SLOAD SWAP1 PUSH2 0x100 EXP SWAP1 DIV PUSH1 0xFF AND SWAP1 POP SWAP3 SWAP2 POP POP JUMP JUMPDEST PUSH1 0x0 PUSH2 0x1169 PUSH2 0x1777 JUMP JUMPDEST PUSH1 0x0 DUP3 GT PUSH2 0x11AC JUMPI PUSH1 0x40 MLOAD PUSH32 0x8C379A000000000000000000000000000000000000000000000000000000000 DUP2 MSTORE PUSH1 0x4 ADD PUSH2 0x11A3 SWAP1 PUSH2 0x3293 JUMP JUMPDEST PUSH1 0x40 MLOAD DUP1 SWAP2 SUB SWAP1 REVERT JUMPDEST PUSH1 0x0 PUSH1 0x9 PUSH1 0x0 DUP2 SLOAD DUP1 SWAP3 SWAP2 SWAP1 PUSH2 0x11C1 SWAP1 PUSH2 0x355E JUMP JUMPDEST SWAP2 SWAP1 POP SSTORE SWAP1 POP PUSH2 0x11D1 DUP6 DUP3 PUSH2 0x1AF4 JUMP JUMPDEST PUSH2 0x11DB DUP2 DUP6 PUSH2 0x1B12 JUMP JUMPDEST PUSH2 0x11E5 DUP2 DUP5 PUSH2 0x17FE JUMP JUMPDEST PUSH32 0xCFCED03C29B25B69154F93CDEEAF3C30ACF71C9196106123A35CE944AD4E889D DUP2 DUP6 DUP6 PUSH1 0x40 MLOAD PUSH2 0x1218 SWAP4 SWAP3 SWAP2 SWAP1 PUSH2 0x35A6 JUMP JUMPDEST PUSH1 0x40 MLOAD DUP1 SWAP2 SUB SWAP1 LOG1 DUP1 SWAP2 POP POP SWAP4 SWAP3 POP POP POP JUMP JUMPDEST PUSH2 0x1233 PUSH2 0x1777 JUMP JUMPDEST PUSH1 0x0 PUSH20 0xFFFFFFFFFFFFFFFFFFFFFFFFFFFFFFFFFFFFFFFF AND DUP2 PUSH20 0xFFFFFFFFFFFFFFFFFFFFFFFFFFFFFFFFFFFFFFFF AND SUB PUSH2 0x12A5 JUMPI PUSH1 0x0 PUSH1 0x40 MLOAD PUSH32 0x1E4FBDF700000000000000000000000000000000000000000000000000000000 DUP2 MSTORE PUSH1 0x4 ADD PUSH2 0x129C SWAP2 SWAP1 PUSH2 0x2850 JUMP JUMPDEST PUSH1 0x40 MLOAD DUP1 SWAP2 SUB SWAP1 REVERT JUMPDEST PUSH2 0x12AE DUP2 PUSH2 0x181A JUMP JUMPDEST POP JUMP JUMPDEST PUSH1 0x0 PUSH1 0x2 PUSH1 0x0 DUP4 DUP2 MSTORE PUSH1 0x20 ADD SWAP1 DUP2 MSTORE PUSH1 0x20 ADD PUSH1 0x0 KECCAK256 PUSH1 0x0 SWAP1 SLOAD SWAP1 PUSH2 0x100 EXP SWAP1 DIV PUSH20 0xFFFFFFFFFFFFFFFFFFFFFFFFFFFFFFFFFFFFFFFF AND SWAP1 POP SWAP2 SWAP1 POP JUMP JUMPDEST PUSH1 0x0 PUSH32 0x80AC58CD00000000000000000000000000000000000000000000000000000000 PUSH28 0xFFFFFFFFFFFFFFFFFFFFFFFFFFFFFFFFFFFFFFFFFFFFFFFFFFFFFFFF NOT AND DUP3 PUSH28 0xFFFFFFFFFFFFFFFFFFFFFFFFFFFFFFFFFFFFFFFFFFFFFFFFFFFFFFFF NOT AND EQ DUP1 PUSH2 0x13B9 JUMPI POP PUSH32 0x5B5E139F00000000000000000000000000000000000000000000000000000000 PUSH28 0xFFFFFFFFFFFFFFFFFFFFFFFFFFFFFFFFFFFFFFFFFFFFFFFFFFFFFFFF NOT AND DUP3 PUSH28 0xFFFFFFFFFFFFFFFFFFFFFFFFFFFFFFFFFFFFFFFFFFFFFFFFFFFFFFFF NOT AND EQ JUMPDEST DUP1 PUSH2 0x13C9 JUMPI POP PUSH2 0x13C8 DUP3 PUSH2 0x1B6E JUMP JUMPDEST JUMPDEST SWAP1 POP SWAP2 SWAP1 POP JUMP JUMPDEST PUSH1 0x0 DUP1 PUSH2 0x13DC DUP4 PUSH2 0x12B1 JUMP JUMPDEST SWAP1 POP PUSH1 0x0 PUSH20 0xFFFFFFFFFFFFFFFFFFFFFFFFFFFFFFFFFFFFFFFF AND DUP2 PUSH20 0xFFFFFFFFFFFFFFFFFFFFFFFFFFFFFFFFFFFFFFFF AND SUB PUSH2 0x144F JUMPI DUP3 PUSH1 0x40 MLOAD PUSH32 0x7E27328900000000000000000000000000000000000000000000000000000000 DUP2 MSTORE PUSH1 0x4 ADD PUSH2 0x1446 SWAP2 SWAP1 PUSH2 0x2979 JUMP JUMPDEST PUSH1 0x40 MLOAD DUP1 SWAP2 SUB SWAP1 REVERT JUMPDEST DUP1 SWAP2 POP POP SWAP2 SWAP1 POP JUMP JUMPDEST PUSH1 0x0 PUSH1 0x4 PUSH1 0x0 DUP4 DUP2 MSTORE PUSH1 0x20 ADD SWAP1 DUP2 MSTORE PUSH1 0x20 ADD PUSH1 0x0 KECCAK256 PUSH1 0x0 SWAP1 SLOAD SWAP1 PUSH2 0x100 EXP SWAP1 DIV PUSH20 0xFFFFFFFFFFFFFFFFFFFFFFFFFFFFFFFFFFFFFFFF AND SWAP1 POP SWAP2 SWAP1 POP JUMP JUMPDEST PUSH1 0x0 CALLER SWAP1 POP SWAP1 JUMP JUMPDEST PUSH2 0x14AA DUP4 DUP4 DUP4 PUSH1 0x1 PUSH2 0x1BD8 JUMP JUMPDEST POP POP POP JUMP JUMPDEST PUSH1 0x2 PUSH1 0x8 SLOAD SUB PUSH2 0x14F4 JUMPI PUSH1 0x40 MLOAD PUSH32 0x8C379A000000000000000000000000000000000000000000000000000000000 DUP2 MSTORE PUSH1 0x4 ADD PUSH2 0x14EB SWAP1 PUSH2 0x3630 JUMP JUMPDEST PUSH1 0x40 MLOAD DUP1 SWAP2 SUB SWAP1 REVERT JUMPDEST PUSH1 0x2 PUSH1 0x8 DUP2 SWAP1 SSTORE POP JUMP JUMPDEST PUSH1 0x0 PUSH20 0xFFFFFFFFFFFFFFFFFFFFFFFFFFFFFFFFFFFFFFFF AND DUP3 PUSH20 0xFFFFFFFFFFFFFFFFFFFFFFFFFFFFFFFFFFFFFFFF AND SUB PUSH2 0x1570 JUMPI PUSH1 0x0 PUSH1 0x40 MLOAD PUSH32 0x64A0AE9200000000000000000000000000000000000000000000000000000000 DUP2 MSTORE PUSH1 0x4 ADD PUSH2 0x1567 SWAP2 SWAP1 PUSH2 0x2850 JUMP JUMPDEST PUSH1 0x40 MLOAD DUP1 SWAP2 SUB SWAP1 REVERT JUMPDEST PUSH1 0x0 PUSH2 0x157E DUP4 DUP4 PUSH1 0x0 PUSH2 0x1D9D JUMP JUMPDEST SWAP1 POP PUSH1 0x0 PUSH20 0xFFFFFFFFFFFFFFFFFFFFFFFFFFFFFFFFFFFFFFFF AND DUP2 PUSH20 0xFFFFFFFFFFFFFFFFFFFFFFFFFFFFFFFFFFFFFFFF AND SUB PUSH2 0x15F1 JUMPI DUP2 PUSH1 0x40 MLOAD PUSH32 0x7E27328900000000000000000000000000000000000000000000000000000000 DUP2 MSTORE PUSH1 0x4 ADD PUSH2 0x15E8 SWAP2 SWAP1 PUSH2 0x2979 JUMP JUMPDEST PUSH1 0x40 MLOAD DUP1 SWAP2 SUB SWAP1 REVERT JUMPDEST DUP4 PUSH20 0xFFFFFFFFFFFFFFFFFFFFFFFFFFFFFFFFFFFFFFFF AND DUP2 PUSH20 0xFFFFFFFFFFFFFFFFFFFFFFFFFFFFFFFFFFFFFFFF AND EQ PUSH2 0x1665 JUMPI DUP4 DUP3 DUP3 PUSH1 0x40 MLOAD PUSH32 0x64283D7B00000000000000000000000000000000000000000000000000000000 DUP2 MSTORE PUSH1 0x4 ADD PUSH2 0x165C SWAP4 SWAP3 SWAP2 SWAP1 PUSH2 0x3650 JUMP JUMPDEST PUSH1 0x40 MLOAD DUP1 SWAP2 SUB SWAP1 REVERT JUMPDEST POP POP POP POP JUMP JUMPDEST PUSH1 0x1 PUSH1 0x8 DUP2 SWAP1 SSTORE POP JUMP JUMPDEST PUSH1 0x0 PUSH20 0xFFFFFFFFFFFFFFFFFFFFFFFFFFFFFFFFFFFFFFFF AND DUP3 PUSH20 0xFFFFFFFFFFFFFFFFFFFFFFFFFFFFFFFFFFFFFFFF AND SUB PUSH2 0x16E7 JUMPI PUSH1 0x0 PUSH1 0x40 MLOAD PUSH32 0x64A0AE9200000000000000000000000000000000000000000000000000000000 DUP2 MSTORE PUSH1 0x4 ADD PUSH2 0x16DE SWAP2 SWAP1 PUSH2 0x2850 JUMP JUMPDEST PUSH1 0x40 MLOAD DUP1 SWAP2 SUB SWAP1 REVERT JUMPDEST PUSH1 0x0 PUSH2 0x16FB DUP4 DUP4 PUSH2 0x16F6 PUSH2 0x1495 JUMP JUMPDEST PUSH2 0x1D9D JUMP JUMPDEST SWAP1 POP DUP4 PUSH20 0xFFFFFFFFFFFFFFFFFFFFFFFFFFFFFFFFFFFFFFFF AND DUP2 PUSH20 0xFFFFFFFFFFFFFFFFFFFFFFFFFFFFFFFFFFFFFFFF AND EQ PUSH2 0x1771 JUMPI DUP4 DUP3 DUP3 PUSH1 0x40 MLOAD PUSH32 0x64283D7B00000000000000000000000000000000000000000000000000000000 DUP2 MSTORE PUSH1 0x4 ADD PUSH2 0x1768 SWAP4 SWAP3 SWAP2 SWAP1 PUSH2 0x3650 JUMP JUMPDEST PUSH1 0x40 MLOAD DUP1 SWAP2 SUB SWAP1 REVERT JUMPDEST POP POP POP POP JUMP JUMPDEST PUSH2 0x177F PUSH2 0x1495 JUMP JUMPDEST PUSH20 0xFFFFFFFFFFFFFFFFFFFFFFFFFFFFFFFFFFFFFFFF AND PUSH2 0x179D PUSH2 0xCDC JUMP JUMPDEST PUSH20 0xFFFFFFFFFFFFFFFFFFFFFFFFFFFFFFFFFFFFFFFF AND EQ PUSH2 0x17FC JUMPI PUSH2 0x17C0 PUSH2 0x1495 JUMP JUMPDEST PUSH1 0x40 MLOAD PUSH32 0x118CDAA700000000000000000000000000000000000000000000000000000000 DUP2 MSTORE PUSH1 0x4 ADD PUSH2 0x17F3 SWAP2 SWAP1 PUSH2 0x2850 JUMP JUMPDEST PUSH1 0x40 MLOAD DUP1 SWAP2 SUB SWAP1 REVERT JUMPDEST JUMP JUMPDEST DUP1 PUSH1 0xA PUSH1 0x0 DUP5 DUP2 MSTORE PUSH1 0x20 ADD SWAP1 DUP2 MSTORE PUSH1 0x20 ADD PUSH1 0x0 KECCAK256 DUP2 SWAP1 SSTORE POP POP POP JUMP JUMPDEST PUSH1 0x0 PUSH1 0x7 PUSH1 0x0 SWAP1 SLOAD SWAP1 PUSH2 0x100 EXP SWAP1 DIV PUSH20 0xFFFFFFFFFFFFFFFFFFFFFFFFFFFFFFFFFFFFFFFF AND SWAP1 POP DUP2 PUSH1 0x7 PUSH1 0x0 PUSH2 0x100 EXP DUP2 SLOAD DUP2 PUSH20 0xFFFFFFFFFFFFFFFFFFFFFFFFFFFFFFFFFFFFFFFF MUL NOT AND SWAP1 DUP4 PUSH20 0xFFFFFFFFFFFFFFFFFFFFFFFFFFFFFFFFFFFFFFFF AND MUL OR SWAP1 SSTORE POP DUP2 PUSH20 0xFFFFFFFFFFFFFFFFFFFFFFFFFFFFFFFFFFFFFFFF AND DUP2 PUSH20 0xFFFFFFFFFFFFFFFFFFFFFFFFFFFFFFFFFFFFFFFF AND PUSH32 0x8BE0079C531659141344CD1FD0A4F28419497F9722A3DAAFE3B4186F6B6457E0 PUSH1 0x40 MLOAD PUSH1 0x40 MLOAD DUP1 SWAP2 SUB SWAP1 LOG3 POP POP JUMP JUMPDEST PUSH1 0x0 PUSH20 0xFFFFFFFFFFFFFFFFFFFFFFFFFFFFFFFFFFFFFFFF AND DUP3 PUSH20 0xFFFFFFFFFFFFFFFFFFFFFFFFFFFFFFFFFFFFFFFF AND SUB PUSH2 0x1951 JUMPI DUP2 PUSH1 0x40 MLOAD PUSH32 0x5B08BA1800000000000000000000000000000000000000000000000000000000 DUP2 MSTORE PUSH1 0x4 ADD PUSH2 0x1948 SWAP2 SWAP1 PUSH2 0x2850 JUMP JUMPDEST PUSH1 0x40 MLOAD DUP1 SWAP2 SUB SWAP1 REVERT JUMPDEST DUP1 PUSH1 0x5 PUSH1 0x0 DUP6 PUSH20 0xFFFFFFFFFFFFFFFFFFFFFFFFFFFFFFFFFFFFFFFF AND PUSH20 0xFFFFFFFFFFFFFFFFFFFFFFFFFFFFFFFFFFFFFFFF AND DUP2 MSTORE PUSH1 0x20 ADD SWAP1 DUP2 MSTORE PUSH1 0x20 ADD PUSH1 0x0 KECCAK256 PUSH1 0x0 DUP5 PUSH20 0xFFFFFFFFFFFFFFFFFFFFFFFFFFFFFFFFFFFFFFFF AND PUSH20 0xFFFFFFFFFFFFFFFFFFFFFFFFFFFFFFFFFFFFFFFF AND DUP2 MSTORE PUSH1 0x20 ADD SWAP1 DUP2 MSTORE PUSH1 0x20 ADD PUSH1 0x0 KECCAK256 PUSH1 0x0 PUSH2 0x100 EXP DUP2 SLOAD DUP2 PUSH1 0xFF MUL NOT AND SWAP1 DUP4 ISZERO ISZERO MUL OR SWAP1 SSTORE POP DUP2 PUSH20 0xFFFFFFFFFFFFFFFFFFFFFFFFFFFFFFFFFFFFFFFF AND DUP4 PUSH20 0xFFFFFFFFFFFFFFFFFFFFFFFFFFFFFFFFFFFFFFFF AND PUSH32 0x17307EAB39AB6107E8899845AD3D59BD9653F200F220920489CA2B5937696C31 DUP4 PUSH1 0x40 MLOAD PUSH2 0x1A42 SWAP2 SWAP1 PUSH2 0x26BD JUMP JUMPDEST PUSH1 0x40 MLOAD DUP1 SWAP2 SUB SWAP1 LOG3 POP POP POP JUMP JUMPDEST PUSH2 0x1A5A DUP5 DUP5 DUP5 PUSH2 0xA74 JUMP JUMPDEST PUSH2 0x1A6E PUSH2 0x1A65 PUSH2 0x1495 JUMP JUMPDEST DUP6 DUP6 DUP6 DUP6 PUSH2 0x1FB7 JUMP JUMPDEST POP POP POP POP JUMP JUMPDEST PUSH1 0x60 PUSH1 0x40 MLOAD DUP1 PUSH1 0x20 ADD PUSH1 0x40 MSTORE DUP1 PUSH1 0x0 DUP2 MSTORE POP SWAP1 POP SWAP1 JUMP JUMPDEST PUSH1 0x60 PUSH2 0x1A96 DUP3 PUSH2 0x13D0 JUMP JUMPDEST POP PUSH1 0x0 PUSH2 0x1AA1 PUSH2 0x1A74 JUMP JUMPDEST SWAP1 POP PUSH1 0x0 DUP2 MLOAD GT PUSH2 0x1AC1 JUMPI PUSH1 0x40 MLOAD DUP1 PUSH1 0x20 ADD PUSH1 0x40 MSTORE DUP1 PUSH1 0x0 DUP2 MSTORE POP PUSH2 0x1AEC JUMP JUMPDEST DUP1 PUSH2 0x1ACB DUP5 PUSH2 0x2168 JUMP JUMPDEST PUSH1 0x40 MLOAD PUSH1 0x20 ADD PUSH2 0x1ADC SWAP3 SWAP2 SWAP1 PUSH2 0x353A JUMP JUMPDEST PUSH1 0x40 MLOAD PUSH1 0x20 DUP2 DUP4 SUB SUB DUP2 MSTORE SWAP1 PUSH1 0x40 MSTORE JUMPDEST SWAP2 POP POP SWAP2 SWAP1 POP JUMP JUMPDEST PUSH2 0x1B0E DUP3 DUP3 PUSH1 0x40 MLOAD DUP1 PUSH1 0x20 ADD PUSH1 0x40 MSTORE DUP1 PUSH1 0x0 DUP2 MSTORE POP PUSH2 0x2236 JUMP JUMPDEST POP POP JUMP JUMPDEST DUP1 PUSH1 0x6 PUSH1 0x0 DUP5 DUP2 MSTORE PUSH1 0x20 ADD SWAP1 DUP2 MSTORE PUSH1 0x20 ADD PUSH1 0x0 KECCAK256 SWAP1 DUP2 PUSH2 0x1B32 SWAP2 SWAP1 PUSH2 0x3833 JUMP JUMPDEST POP PUSH32 0xF8E1A15ABA9398E019F0B49DF1A4FDE98EE17AE345CB5F6B5E2C27F5033E8CE7 DUP3 PUSH1 0x40 MLOAD PUSH2 0x1B62 SWAP2 SWAP1 PUSH2 0x2979 JUMP JUMPDEST PUSH1 0x40 MLOAD DUP1 SWAP2 SUB SWAP1 LOG1 POP POP JUMP JUMPDEST PUSH1 0x0 PUSH32 0x1FFC9A700000000000000000000000000000000000000000000000000000000 PUSH28 0xFFFFFFFFFFFFFFFFFFFFFFFFFFFFFFFFFFFFFFFFFFFFFFFFFFFFFFFF NOT AND DUP3 PUSH28 0xFFFFFFFFFFFFFFFFFFFFFFFFFFFFFFFFFFFFFFFFFFFFFFFFFFFFFFFF NOT AND EQ SWAP1 POP SWAP2 SWAP1 POP JUMP JUMPDEST DUP1 DUP1 PUSH2 0x1C11 JUMPI POP PUSH1 0x0 PUSH20 0xFFFFFFFFFFFFFFFFFFFFFFFFFFFFFFFFFFFFFFFF AND DUP3 PUSH20 0xFFFFFFFFFFFFFFFFFFFFFFFFFFFFFFFFFFFFFFFF AND EQ ISZERO JUMPDEST ISZERO PUSH2 0x1D45 JUMPI PUSH1 0x0 PUSH2 0x1C21 DUP5 PUSH2 0x13D0 JUMP JUMPDEST SWAP1 POP PUSH1 0x0 PUSH20 0xFFFFFFFFFFFFFFFFFFFFFFFFFFFFFFFFFFFFFFFF AND DUP4 PUSH20 0xFFFFFFFFFFFFFFFFFFFFFFFFFFFFFFFFFFFFFFFF AND EQ ISZERO DUP1 ISZERO PUSH2 0x1C8C JUMPI POP DUP3 PUSH20 0xFFFFFFFFFFFFFFFFFFFFFFFFFFFFFFFFFFFFFFFF AND DUP2 PUSH20 0xFFFFFFFFFFFFFFFFFFFFFFFFFFFFFFFFFFFFFFFF AND EQ ISZERO JUMPDEST DUP1 ISZERO PUSH2 0x1C9F JUMPI POP PUSH2 0x1C9D DUP2 DUP5 PUSH2 0x10CB JUMP JUMPDEST ISZERO JUMPDEST ISZERO PUSH2 0x1CE1 JUMPI DUP3 PUSH1 0x40 MLOAD PUSH32 0xA9FBF51F00000000000000000000000000000000000000000000000000000000 DUP2 MSTORE PUSH1 0x4 ADD PUSH2 0x1CD8 SWAP2 SWAP1 PUSH2 0x2850 JUMP JUMPDEST PUSH1 0x40 MLOAD DUP1 SWAP2 SUB SWAP1 REVERT JUMPDEST DUP2 ISZERO PUSH2 0x1D43 JUMPI DUP4 DUP6 PUSH20 0xFFFFFFFFFFFFFFFFFFFFFFFFFFFFFFFFFFFFFFFF AND DUP3 PUSH20 0xFFFFFFFFFFFFFFFFFFFFFFFFFFFFFFFFFFFFFFFF AND PUSH32 0x8C5BE1E5EBEC7D5BD14F71427D1E84F3DD0314C0F7B2291E5B200AC8C7C3B925 PUSH1 0x40 MLOAD PUSH1 0x40 MLOAD DUP1 SWAP2 SUB SWAP1 LOG4 JUMPDEST POP JUMPDEST DUP4 PUSH1 0x4 PUSH1 0x0 DUP6 DUP2 MSTORE PUSH1 0x20 ADD SWAP1 DUP2 MSTORE PUSH1 0x20 ADD PUSH1 0x0 KECCAK256 PUSH1 0x0 PUSH2 0x100 EXP DUP2 SLOAD DUP2 PUSH20 0xFFFFFFFFFFFFFFFFFFFFFFFFFFFFFFFFFFFFFFFF MUL NOT AND SWAP1 DUP4 PUSH20 0xFFFFFFFFFFFFFFFFFFFFFFFFFFFFFFFFFFFFFFFF AND MUL OR SWAP1 SSTORE POP POP POP POP POP JUMP JUMPDEST PUSH1 0x0 DUP1 PUSH2 0x1DA9 DUP5 PUSH2 0x12B1 JUMP JUMPDEST SWAP1 POP PUSH1 0x0 PUSH20 0xFFFFFFFFFFFFFFFFFFFFFFFFFFFFFFFFFFFFFFFF AND DUP4 PUSH20 0xFFFFFFFFFFFFFFFFFFFFFFFFFFFFFFFFFFFFFFFF AND EQ PUSH2 0x1DEB JUMPI PUSH2 0x1DEA DUP2 DUP5 DUP7 PUSH2 0x225A JUMP JUMPDEST JUMPDEST PUSH1 0x0 PUSH20 0xFFFFFFFFFFFFFFFFFFFFFFFFFFFFFFFFFFFFFFFF AND DUP2 PUSH20 0xFFFFFFFFFFFFFFFFFFFFFFFFFFFFFFFFFFFFFFFF AND EQ PUSH2 0x1E7C JUMPI PUSH2 0x1E2D PUSH1 0x0 DUP6 PUSH1 0x0 DUP1 PUSH2 0x1BD8 JUMP JUMPDEST PUSH1 0x1 PUSH1 0x3 PUSH1 0x0 DUP4 PUSH20 0xFFFFFFFFFFFFFFFFFFFFFFFFFFFFFFFFFFFFFFFF AND PUSH20 0xFFFFFFFFFFFFFFFFFFFFFFFFFFFFFFFFFFFFFFFF AND DUP2 MSTORE PUSH1 0x20 ADD SWAP1 DUP2 MSTORE PUSH1 0x20 ADD PUSH1 0x0 KECCAK256 PUSH1 0x0 DUP3 DUP3 SLOAD SUB SWAP3 POP POP DUP2 SWAP1 SSTORE POP JUMPDEST PUSH1 0x0 PUSH20 0xFFFFFFFFFFFFFFFFFFFFFFFFFFFFFFFFFFFFFFFF AND DUP6 PUSH20 0xFFFFFFFFFFFFFFFFFFFFFFFFFFFFFFFFFFFFFFFF AND EQ PUSH2 0x1EFF JUMPI PUSH1 0x1 PUSH1 0x3 PUSH1 0x0 DUP8 PUSH20 0xFFFFFFFFFFFFFFFFFFFFFFFFFFFFFFFFFFFFFFFF AND PUSH20 0xFFFFFFFFFFFFFFFFFFFFFFFFFFFFFFFFFFFFFFFF AND DUP2 MSTORE PUSH1 0x20 ADD SWAP1 DUP2 MSTORE PUSH1 0x20 ADD PUSH1 0x0 KECCAK256 PUSH1 0x0 DUP3 DUP3 SLOAD ADD SWAP3 POP POP DUP2 SWAP1 SSTORE POP JUMPDEST DUP5 PUSH1 0x2 PUSH1 0x0 DUP7 DUP2 MSTORE PUSH1 0x20 ADD SWAP1 DUP2 MSTORE PUSH1 0x20 ADD PUSH1 0x0 KECCAK256 PUSH1 0x0 PUSH2 0x100 EXP DUP2 SLOAD DUP2 PUSH20 0xFFFFFFFFFFFFFFFFFFFFFFFFFFFFFFFFFFFFFFFF MUL NOT AND SWAP1 DUP4 PUSH20 0xFFFFFFFFFFFFFFFFFFFFFFFFFFFFFFFFFFFFFFFF AND MUL OR SWAP1 SSTORE POP DUP4 DUP6 PUSH20 0xFFFFFFFFFFFFFFFFFFFFFFFFFFFFFFFFFFFFFFFF AND DUP3 PUSH20 0xFFFFFFFFFFFFFFFFFFFFFFFFFFFFFFFFFFFFFFFF AND PUSH32 0xDDF252AD1BE2C89B69C2B068FC378DAA952BA7F163C4A11628F55A4DF523B3EF PUSH1 0x40 MLOAD PUSH1 0x40 MLOAD DUP1 SWAP2 SUB SWAP1 LOG4 DUP1 SWAP2 POP POP SWAP4 SWAP3 POP POP POP JUMP JUMPDEST PUSH1 0x0 DUP4 PUSH20 0xFFFFFFFFFFFFFFFFFFFFFFFFFFFFFFFFFFFFFFFF AND EXTCODESIZE GT ISZERO PUSH2 0x2161 JUMPI DUP3 PUSH20 0xFFFFFFFFFFFFFFFFFFFFFFFFFFFFFFFFFFFFFFFF AND PUSH4 0x150B7A02 DUP7 DUP7 DUP6 DUP6 PUSH1 0x40 MLOAD DUP6 PUSH4 0xFFFFFFFF AND PUSH1 0xE0 SHL DUP2 MSTORE PUSH1 0x4 ADD PUSH2 0x2016 SWAP5 SWAP4 SWAP3 SWAP2 SWAP1 PUSH2 0x395A JUMP JUMPDEST PUSH1 0x20 PUSH1 0x40 MLOAD DUP1 DUP4 SUB DUP2 PUSH1 0x0 DUP8 GAS CALL SWAP3 POP POP POP DUP1 ISZERO PUSH2 0x2052 JUMPI POP PUSH1 0x40 MLOAD RETURNDATASIZE PUSH1 0x1F NOT PUSH1 0x1F DUP3 ADD AND DUP3 ADD DUP1 PUSH1 0x40 MSTORE POP DUP2 ADD SWAP1 PUSH2 0x204F SWAP2 SWAP1 PUSH2 0x39BB JUMP JUMPDEST PUSH1 0x1 JUMPDEST PUSH2 0x20D6 JUMPI RETURNDATASIZE DUP1 PUSH1 0x0 DUP2 EQ PUSH2 0x2082 JUMPI PUSH1 0x40 MLOAD SWAP2 POP PUSH1 0x1F NOT PUSH1 0x3F RETURNDATASIZE ADD AND DUP3 ADD PUSH1 0x40 MSTORE RETURNDATASIZE DUP3 MSTORE RETURNDATASIZE PUSH1 0x0 PUSH1 0x20 DUP5 ADD RETURNDATACOPY PUSH2 0x2087 JUMP JUMPDEST PUSH1 0x60 SWAP2 POP JUMPDEST POP PUSH1 0x0 DUP2 MLOAD SUB PUSH2 0x20CE JUMPI DUP4 PUSH1 0x40 MLOAD PUSH32 0x64A0AE9200000000000000000000000000000000000000000000000000000000 DUP2 MSTORE PUSH1 0x4 ADD PUSH2 0x20C5 SWAP2 SWAP1 PUSH2 0x2850 JUMP JUMPDEST PUSH1 0x40 MLOAD DUP1 SWAP2 SUB SWAP1 REVERT JUMPDEST DUP1 MLOAD DUP2 PUSH1 0x20 ADD REVERT JUMPDEST PUSH4 0x150B7A02 PUSH1 0xE0 SHL PUSH28 0xFFFFFFFFFFFFFFFFFFFFFFFFFFFFFFFFFFFFFFFFFFFFFFFFFFFFFFFF NOT AND DUP2 PUSH28 0xFFFFFFFFFFFFFFFFFFFFFFFFFFFFFFFFFFFFFFFFFFFFFFFFFFFFFFFF NOT AND EQ PUSH2 0x215F JUMPI DUP4 PUSH1 0x40 MLOAD PUSH32 0x64A0AE9200000000000000000000000000000000000000000000000000000000 DUP2 MSTORE PUSH1 0x4 ADD PUSH2 0x2156 SWAP2 SWAP1 PUSH2 0x2850 JUMP JUMPDEST PUSH1 0x40 MLOAD DUP1 SWAP2 SUB SWAP1 REVERT JUMPDEST POP JUMPDEST POP POP POP POP POP JUMP JUMPDEST PUSH1 0x60 PUSH1 0x0 PUSH1 0x1 PUSH2 0x2177 DUP5 PUSH2 0x231E JUMP JUMPDEST ADD SWAP1 POP PUSH1 0x0 DUP2 PUSH8 0xFFFFFFFFFFFFFFFF DUP2 GT ISZERO PUSH2 0x2196 JUMPI PUSH2 0x2195 PUSH2 0x2A37 JUMP JUMPDEST JUMPDEST PUSH1 0x40 MLOAD SWAP1 DUP1 DUP3 MSTORE DUP1 PUSH1 0x1F ADD PUSH1 0x1F NOT AND PUSH1 0x20 ADD DUP3 ADD PUSH1 0x40 MSTORE DUP1 ISZERO PUSH2 0x21C8 JUMPI DUP2 PUSH1 0x20 ADD PUSH1 0x1 DUP3 MUL DUP1 CALLDATASIZE DUP4 CALLDATACOPY DUP1 DUP3 ADD SWAP2 POP POP SWAP1 POP JUMPDEST POP SWAP1 POP PUSH1 0x0 DUP3 PUSH1 0x20 ADD DUP3 ADD SWAP1 POP JUMPDEST PUSH1 0x1 ISZERO PUSH2 0x222B JUMPI DUP1 DUP1 PUSH1 0x1 SWAP1 SUB SWAP2 POP POP PUSH32 0x3031323334353637383961626364656600000000000000000000000000000000 PUSH1 0xA DUP7 MOD BYTE DUP2 MSTORE8 PUSH1 0xA DUP6 DUP2 PUSH2 0x221F JUMPI PUSH2 0x221E PUSH2 0x39E8 JUMP JUMPDEST JUMPDEST DIV SWAP5 POP PUSH1 0x0 DUP6 SUB PUSH2 0x21D6 JUMPI JUMPDEST DUP2 SWAP4 POP POP POP POP SWAP2 SWAP1 POP JUMP JUMPDEST PUSH2 0x2240 DUP4 DUP4 PUSH2 0x2471 JUMP JUMPDEST PUSH2 0x2255 PUSH2 0x224B PUSH2 0x1495 JUMP JUMPDEST PUSH1 0x0 DUP6 DUP6 DUP6 PUSH2 0x1FB7 JUMP JUMPDEST POP POP POP JUMP JUMPDEST PUSH2 0x2265 DUP4 DUP4 DUP4 PUSH2 0x256A JUMP JUMPDEST PUSH2 0x2319 JUMPI PUSH1 0x0 PUSH20 0xFFFFFFFFFFFFFFFFFFFFFFFFFFFFFFFFFFFFFFFF AND DUP4 PUSH20 0xFFFFFFFFFFFFFFFFFFFFFFFFFFFFFFFFFFFFFFFF AND SUB PUSH2 0x22DA JUMPI DUP1 PUSH1 0x40 MLOAD PUSH32 0x7E27328900000000000000000000000000000000000000000000000000000000 DUP2 MSTORE PUSH1 0x4 ADD PUSH2 0x22D1 SWAP2 SWAP1 PUSH2 0x2979 JUMP JUMPDEST PUSH1 0x40 MLOAD DUP1 SWAP2 SUB SWAP1 REVERT JUMPDEST DUP2 DUP2 PUSH1 0x40 MLOAD PUSH32 0x177E802F00000000000000000000000000000000000000000000000000000000 DUP2 MSTORE PUSH1 0x4 ADD PUSH2 0x2310 SWAP3 SWAP2 SWAP1 PUSH2 0x3A17 JUMP JUMPDEST PUSH1 0x40 MLOAD DUP1 SWAP2 SUB SWAP1 REVERT JUMPDEST POP POP POP JUMP JUMPDEST PUSH1 0x0 DUP1 PUSH1 0x0 SWAP1 POP PUSH27 0x184F03E93FF9F4DAA797ED6E38ED64BF6A1F010000000000000000 DUP4 LT PUSH2 0x237C JUMPI PUSH27 0x184F03E93FF9F4DAA797ED6E38ED64BF6A1F010000000000000000 DUP4 DUP2 PUSH2 0x2372 JUMPI PUSH2 0x2371 PUSH2 0x39E8 JUMP JUMPDEST JUMPDEST DIV SWAP3 POP PUSH1 0x40 DUP2 ADD SWAP1 POP JUMPDEST PUSH14 0x4EE2D6D415B85ACEF8100000000 DUP4 LT PUSH2 0x23B9 JUMPI PUSH14 0x4EE2D6D415B85ACEF8100000000 DUP4 DUP2 PUSH2 0x23AF JUMPI PUSH2 0x23AE PUSH2 0x39E8 JUMP JUMPDEST JUMPDEST DIV SWAP3 POP PUSH1 0x20 DUP2 ADD SWAP1 POP JUMPDEST PUSH7 0x2386F26FC10000 DUP4 LT PUSH2 0x23E8 JUMPI PUSH7 0x2386F26FC10000 DUP4 DUP2 PUSH2 0x23DE JUMPI PUSH2 0x23DD PUSH2 0x39E8 JUMP JUMPDEST JUMPDEST DIV SWAP3 POP PUSH1 0x10 DUP2 ADD SWAP1 POP JUMPDEST PUSH4 0x5F5E100 DUP4 LT PUSH2 0x2411 JUMPI PUSH4 0x5F5E100 DUP4 DUP2 PUSH2 0x2407 JUMPI PUSH2 0x2406 PUSH2 0x39E8 JUMP JUMPDEST JUMPDEST DIV SWAP3 POP PUSH1 0x8 DUP2 ADD SWAP1 POP JUMPDEST PUSH2 0x2710 DUP4 LT PUSH2 0x2436 JUMPI PUSH2 0x2710 DUP4 DUP2 PUSH2 0x242C JUMPI PUSH2 0x242B PUSH2 0x39E8 JUMP JUMPDEST JUMPDEST DIV SWAP3 POP PUSH1 0x4 DUP2 ADD SWAP1 POP JUMPDEST PUSH1 0x64 DUP4 LT PUSH2 0x2459 JUMPI PUSH1 0x64 DUP4 DUP2 PUSH2 0x244F JUMPI PUSH2 0x244E PUSH2 0x39E8 JUMP JUMPDEST JUMPDEST DIV SWAP3 POP PUSH1 0x2 DUP2 ADD SWAP1 POP JUMPDEST PUSH1 0xA DUP4 LT PUSH2 0x2468 JUMPI PUSH1 0x1 DUP2 ADD SWAP1 POP JUMPDEST DUP1 SWAP2 POP POP SWAP2 SWAP1 POP JUMP JUMPDEST PUSH1 0x0 PUSH20 0xFFFFFFFFFFFFFFFFFFFFFFFFFFFFFFFFFFFFFFFF AND DUP3 PUSH20 0xFFFFFFFFFFFFFFFFFFFFFFFFFFFFFFFFFFFFFFFF AND SUB PUSH2 0x24E3 JUMPI PUSH1 0x0 PUSH1 0x40 MLOAD PUSH32 0x64A0AE9200000000000000000000000000000000000000000000000000000000 DUP2 MSTORE PUSH1 0x4 ADD PUSH2 0x24DA SWAP2 SWAP1 PUSH2 0x2850 JUMP JUMPDEST PUSH1 0x40 MLOAD DUP1 SWAP2 SUB SWAP1 REVERT JUMPDEST PUSH1 0x0 PUSH2 0x24F1 DUP4 DUP4 PUSH1 0x0 PUSH2 0x1D9D JUMP JUMPDEST SWAP1 POP PUSH1 0x0 PUSH20 0xFFFFFFFFFFFFFFFFFFFFFFFFFFFFFFFFFFFFFFFF AND DUP2 PUSH20 0xFFFFFFFFFFFFFFFFFFFFFFFFFFFFFFFFFFFFFFFF AND EQ PUSH2 0x2565 JUMPI PUSH1 0x0 PUSH1 0x40 MLOAD PUSH32 0x73C6AC6E00000000000000000000000000000000000000000000000000000000 DUP2 MSTORE PUSH1 0x4 ADD PUSH2 0x255C SWAP2 SWAP1 PUSH2 0x2850 JUMP JUMPDEST PUSH1 0x40 MLOAD DUP1 SWAP2 SUB SWAP1 REVERT JUMPDEST POP POP POP JUMP JUMPDEST PUSH1 0x0 DUP1 PUSH20 0xFFFFFFFFFFFFFFFFFFFFFFFFFFFFFFFFFFFFFFFF AND DUP4 PUSH20 0xFFFFFFFFFFFFFFFFFFFFFFFFFFFFFFFFFFFFFFFF AND EQ ISZERO DUP1 ISZERO PUSH2 0x2622 JUMPI POP DUP3 PUSH20 0xFFFFFFFFFFFFFFFFFFFFFFFFFFFFFFFFFFFFFFFF AND DUP5 PUSH20 0xFFFFFFFFFFFFFFFFFFFFFFFFFFFFFFFFFFFFFFFF AND EQ DUP1 PUSH2 0x25E3 JUMPI POP PUSH2 0x25E2 DUP5 DUP5 PUSH2 0x10CB JUMP JUMPDEST JUMPDEST DUP1 PUSH2 0x2621 JUMPI POP DUP3 PUSH20 0xFFFFFFFFFFFFFFFFFFFFFFFFFFFFFFFFFFFFFFFF AND PUSH2 0x2609 DUP4 PUSH2 0x1458 JUMP JUMPDEST PUSH20 0xFFFFFFFFFFFFFFFFFFFFFFFFFFFFFFFFFFFFFFFF AND EQ JUMPDEST JUMPDEST SWAP1 POP SWAP4 SWAP3 POP POP POP JUMP JUMPDEST PUSH1 0x0 PUSH1 0x40 MLOAD SWAP1 POP SWAP1 JUMP JUMPDEST PUSH1 0x0 DUP1 REVERT JUMPDEST PUSH1 0x0 DUP1 REVERT JUMPDEST PUSH1 0x0 DUP2 SWAP1 POP SWAP2 SWAP1 POP JUMP JUMPDEST PUSH2 0x2652 DUP2 PUSH2 0x263F JUMP JUMPDEST DUP2 EQ PUSH2 0x265D JUMPI PUSH1 0x0 DUP1 REVERT JUMPDEST POP JUMP JUMPDEST PUSH1 0x0 DUP2 CALLDATALOAD SWAP1 POP PUSH2 0x266F DUP2 PUSH2 0x2649 JUMP JUMPDEST SWAP3 SWAP2 POP POP JUMP JUMPDEST PUSH1 0x0 PUSH1 0x20 DUP3 DUP5 SUB SLT ISZERO PUSH2 0x268B JUMPI PUSH2 0x268A PUSH2 0x2635 JUMP JUMPDEST JUMPDEST PUSH1 0x0 PUSH2 0x2699 DUP5 DUP3 DUP6 ADD PUSH2 0x2660 JUMP JUMPDEST SWAP2 POP POP SWAP3 SWAP2 POP POP JUMP JUMPDEST PUSH1 0x0 DUP2 ISZERO ISZERO SWAP1 POP SWAP2 SWAP1 POP JUMP JUMPDEST PUSH2 0x26B7 DUP2 PUSH2 0x26A2 JUMP JUMPDEST DUP3 MSTORE POP POP JUMP JUMPDEST PUSH1 0x0 PUSH1 0x20 DUP3 ADD SWAP1 POP PUSH2 0x26D2 PUSH1 0x0 DUP4 ADD DUP5 PUSH2 0x26AE JUMP JUMPDEST SWAP3 SWAP2 POP POP JUMP JUMPDEST PUSH1 0x0 PUSH32 0xFFFFFFFF00000000000000000000000000000000000000000000000000000000 DUP3 AND SWAP1 POP SWAP2 SWAP1 POP JUMP JUMPDEST PUSH2 0x270D DUP2 PUSH2 0x26D8 JUMP JUMPDEST DUP2 EQ PUSH2 0x2718 JUMPI PUSH1 0x0 DUP1 REVERT JUMPDEST POP JUMP JUMPDEST PUSH1 0x0 DUP2 CALLDATALOAD SWAP1 POP PUSH2 0x272A DUP2 PUSH2 0x2704 JUMP JUMPDEST SWAP3 SWAP2 POP POP JUMP JUMPDEST PUSH1 0x0 PUSH1 0x20 DUP3 DUP5 SUB SLT ISZERO PUSH2 0x2746 JUMPI PUSH2 0x2745 PUSH2 0x2635 JUMP JUMPDEST JUMPDEST PUSH1 0x0 PUSH2 0x2754 DUP5 DUP3 DUP6 ADD PUSH2 0x271B JUMP JUMPDEST SWAP2 POP POP SWAP3 SWAP2 POP POP JUMP JUMPDEST PUSH1 0x0 DUP2 MLOAD SWAP1 POP SWAP2 SWAP1 POP JUMP JUMPDEST PUSH1 0x0 DUP3 DUP3 MSTORE PUSH1 0x20 DUP3 ADD SWAP1 POP SWAP3 SWAP2 POP POP JUMP JUMPDEST PUSH1 0x0 JUMPDEST DUP4 DUP2 LT ISZERO PUSH2 0x2797 JUMPI DUP1 DUP3 ADD MLOAD DUP2 DUP5 ADD MSTORE PUSH1 0x20 DUP2 ADD SWAP1 POP PUSH2 0x277C JUMP JUMPDEST PUSH1 0x0 DUP5 DUP5 ADD MSTORE POP POP POP POP JUMP JUMPDEST PUSH1 0x0 PUSH1 0x1F NOT PUSH1 0x1F DUP4 ADD AND SWAP1 POP SWAP2 SWAP1 POP JUMP JUMPDEST PUSH1 0x0 PUSH2 0x27BF DUP3 PUSH2 0x275D JUMP JUMPDEST PUSH2 0x27C9 DUP2 DUP6 PUSH2 0x2768 JUMP JUMPDEST SWAP4 POP PUSH2 0x27D9 DUP2 DUP6 PUSH1 0x20 DUP7 ADD PUSH2 0x2779 JUMP JUMPDEST PUSH2 0x27E2 DUP2 PUSH2 0x27A3 JUMP JUMPDEST DUP5 ADD SWAP2 POP POP SWAP3 SWAP2 POP POP JUMP JUMPDEST PUSH1 0x0 PUSH1 0x20 DUP3 ADD SWAP1 POP DUP2 DUP2 SUB PUSH1 0x0 DUP4 ADD MSTORE PUSH2 0x2807 DUP2 DUP5 PUSH2 0x27B4 JUMP JUMPDEST SWAP1 POP SWAP3 SWAP2 POP POP JUMP JUMPDEST PUSH1 0x0 PUSH20 0xFFFFFFFFFFFFFFFFFFFFFFFFFFFFFFFFFFFFFFFF DUP3 AND SWAP1 POP SWAP2 SWAP1 POP JUMP JUMPDEST PUSH1 0x0 PUSH2 0x283A DUP3 PUSH2 0x280F JUMP JUMPDEST SWAP1 POP SWAP2 SWAP1 POP JUMP JUMPDEST PUSH2 0x284A DUP2 PUSH2 0x282F JUMP JUMPDEST DUP3 MSTORE POP POP JUMP JUMPDEST PUSH1 0x0 PUSH1 0x20 DUP3 ADD SWAP1 POP PUSH2 0x2865 PUSH1 0x0 DUP4 ADD DUP5 PUSH2 0x2841 JUMP JUMPDEST SWAP3 SWAP2 POP POP JUMP JUMPDEST PUSH2 0x2874 DUP2 PUSH2 0x282F JUMP JUMPDEST DUP2 EQ PUSH2 0x287F JUMPI PUSH1 0x0 DUP1 REVERT JUMPDEST POP JUMP JUMPDEST PUSH1 0x0 DUP2 CALLDATALOAD SWAP1 POP PUSH2 0x2891 DUP2 PUSH2 0x286B JUMP JUMPDEST SWAP3 SWAP2 POP POP JUMP JUMPDEST PUSH1 0x0 DUP1 PUSH1 0x40 DUP4 DUP6 SUB SLT ISZERO PUSH2 0x28AE JUMPI PUSH2 0x28AD PUSH2 0x2635 JUMP JUMPDEST JUMPDEST PUSH1 0x0 PUSH2 0x28BC DUP6 DUP3 DUP7 ADD PUSH2 0x2882 JUMP JUMPDEST SWAP3 POP POP PUSH1 0x20 PUSH2 0x28CD DUP6 DUP3 DUP7 ADD PUSH2 0x2660 JUMP JUMPDEST SWAP2 POP POP SWAP3 POP SWAP3 SWAP1 POP JUMP JUMPDEST PUSH1 0x0 DUP1 PUSH1 0x0 PUSH1 0x60 DUP5 DUP7 SUB SLT ISZERO PUSH2 0x28F0 JUMPI PUSH2 0x28EF PUSH2 0x2635 JUMP JUMPDEST JUMPDEST PUSH1 0x0 PUSH2 0x28FE DUP7 DUP3 DUP8 ADD PUSH2 0x2882 JUMP JUMPDEST SWAP4 POP POP PUSH1 0x20 PUSH2 0x290F DUP7 DUP3 DUP8 ADD PUSH2 0x2882 JUMP JUMPDEST SWAP3 POP POP PUSH1 0x40 PUSH2 0x2920 DUP7 DUP3 DUP8 ADD PUSH2 0x2660 JUMP JUMPDEST SWAP2 POP POP SWAP3 POP SWAP3 POP SWAP3 JUMP JUMPDEST PUSH1 0x0 DUP1 PUSH1 0x40 DUP4 DUP6 SUB SLT ISZERO PUSH2 0x2941 JUMPI PUSH2 0x2940 PUSH2 0x2635 JUMP JUMPDEST JUMPDEST PUSH1 0x0 PUSH2 0x294F DUP6 DUP3 DUP7 ADD PUSH2 0x2660 JUMP JUMPDEST SWAP3 POP POP PUSH1 0x20 PUSH2 0x2960 DUP6 DUP3 DUP7 ADD PUSH2 0x2660 JUMP JUMPDEST SWAP2 POP POP SWAP3 POP SWAP3 SWAP1 POP JUMP JUMPDEST PUSH2 0x2973 DUP2 PUSH2 0x263F JUMP JUMPDEST DUP3 MSTORE POP POP JUMP JUMPDEST PUSH1 0x0 PUSH1 0x20 DUP3 ADD SWAP1 POP PUSH2 0x298E PUSH1 0x0 DUP4 ADD DUP5 PUSH2 0x296A JUMP JUMPDEST SWAP3 SWAP2 POP POP JUMP JUMPDEST PUSH1 0x0 PUSH1 0x20 DUP3 DUP5 SUB SLT ISZERO PUSH2 0x29AA JUMPI PUSH2 0x29A9 PUSH2 0x2635 JUMP JUMPDEST JUMPDEST PUSH1 0x0 PUSH2 0x29B8 DUP5 DUP3 DUP6 ADD PUSH2 0x2882 JUMP JUMPDEST SWAP2 POP POP SWAP3 SWAP2 POP POP JUMP JUMPDEST PUSH2 0x29CA DUP2 PUSH2 0x26A2 JUMP JUMPDEST DUP2 EQ PUSH2 0x29D5 JUMPI PUSH1 0x0 DUP1 REVERT JUMPDEST POP JUMP JUMPDEST PUSH1 0x0 DUP2 CALLDATALOAD SWAP1 POP PUSH2 0x29E7 DUP2 PUSH2 0x29C1 JUMP JUMPDEST SWAP3 SWAP2 POP POP JUMP JUMPDEST PUSH1 0x0 DUP1 PUSH1 0x40 DUP4 DUP6 SUB SLT ISZERO PUSH2 0x2A04 JUMPI PUSH2 0x2A03 PUSH2 0x2635 JUMP JUMPDEST JUMPDEST PUSH1 0x0 PUSH2 0x2A12 DUP6 DUP3 DUP7 ADD PUSH2 0x2882 JUMP JUMPDEST SWAP3 POP POP PUSH1 0x20 PUSH2 0x2A23 DUP6 DUP3 DUP7 ADD PUSH2 0x29D8 JUMP JUMPDEST SWAP2 POP POP SWAP3 POP SWAP3 SWAP1 POP JUMP JUMPDEST PUSH1 0x0 DUP1 REVERT JUMPDEST PUSH1 0x0 DUP1 REVERT JUMPDEST PUSH32 0x4E487B7100000000000000000000000000000000000000000000000000000000 PUSH1 0x0 MSTORE PUSH1 0x41 PUSH1 0x4 MSTORE PUSH1 0x24 PUSH1 0x0 REVERT JUMPDEST PUSH2 0x2A6F DUP3 PUSH2 0x27A3 JUMP JUMPDEST DUP2 ADD DUP2 DUP2 LT PUSH8 0xFFFFFFFFFFFFFFFF DUP3 GT OR ISZERO PUSH2 0x2A8E JUMPI PUSH2 0x2A8D PUSH2 0x2A37 JUMP JUMPDEST JUMPDEST DUP1 PUSH1 0x40 MSTORE POP POP POP JUMP JUMPDEST PUSH1 0x0 PUSH2 0x2AA1 PUSH2 0x262B JUMP JUMPDEST SWAP1 POP PUSH2 0x2AAD DUP3 DUP3 PUSH2 0x2A66 JUMP JUMPDEST SWAP2 SWAP1 POP JUMP JUMPDEST PUSH1 0x0 PUSH8 0xFFFFFFFFFFFFFFFF DUP3 GT ISZERO PUSH2 0x2ACD JUMPI PUSH2 0x2ACC PUSH2 0x2A37 JUMP JUMPDEST JUMPDEST PUSH2 0x2AD6 DUP3 PUSH2 0x27A3 JUMP JUMPDEST SWAP1 POP PUSH1 0x20 DUP2 ADD SWAP1 POP SWAP2 SWAP1 POP JUMP JUMPDEST DUP3 DUP2 DUP4 CALLDATACOPY PUSH1 0x0 DUP4 DUP4 ADD MSTORE POP POP POP JUMP JUMPDEST PUSH1 0x0 PUSH2 0x2B05 PUSH2 0x2B00 DUP5 PUSH2 0x2AB2 JUMP JUMPDEST PUSH2 0x2A97 JUMP JUMPDEST SWAP1 POP DUP3 DUP2 MSTORE PUSH1 0x20 DUP2 ADD DUP5 DUP5 DUP5 ADD GT ISZERO PUSH2 0x2B21 JUMPI PUSH2 0x2B20 PUSH2 0x2A32 JUMP JUMPDEST JUMPDEST PUSH2 0x2B2C DUP5 DUP3 DUP6 PUSH2 0x2AE3 JUMP JUMPDEST POP SWAP4 SWAP3 POP POP POP JUMP JUMPDEST PUSH1 0x0 DUP3 PUSH1 0x1F DUP4 ADD SLT PUSH2 0x2B49 JUMPI PUSH2 0x2B48 PUSH2 0x2A2D JUMP JUMPDEST JUMPDEST DUP2 CALLDATALOAD PUSH2 0x2B59 DUP5 DUP3 PUSH1 0x20 DUP7 ADD PUSH2 0x2AF2 JUMP JUMPDEST SWAP2 POP POP SWAP3 SWAP2 POP POP JUMP JUMPDEST PUSH1 0x0 DUP1 PUSH1 0x0 DUP1 PUSH1 0x80 DUP6 DUP8 SUB SLT ISZERO PUSH2 0x2B7C JUMPI PUSH2 0x2B7B PUSH2 0x2635 JUMP JUMPDEST JUMPDEST PUSH1 0x0 PUSH2 0x2B8A DUP8 DUP3 DUP9 ADD PUSH2 0x2882 JUMP JUMPDEST SWAP5 POP POP PUSH1 0x20 PUSH2 0x2B9B DUP8 DUP3 DUP9 ADD PUSH2 0x2882 JUMP JUMPDEST SWAP4 POP POP PUSH1 0x40 PUSH2 0x2BAC DUP8 DUP3 DUP9 ADD PUSH2 0x2660 JUMP JUMPDEST SWAP3 POP POP PUSH1 0x60 DUP6 ADD CALLDATALOAD PUSH8 0xFFFFFFFFFFFFFFFF DUP2 GT ISZERO PUSH2 0x2BCD JUMPI PUSH2 0x2BCC PUSH2 0x263A JUMP JUMPDEST JUMPDEST PUSH2 0x2BD9 DUP8 DUP3 DUP9 ADD PUSH2 0x2B34 JUMP JUMPDEST SWAP2 POP POP SWAP3 SWAP6 SWAP2 SWAP5 POP SWAP3 POP JUMP JUMPDEST PUSH1 0x0 DUP1 PUSH1 0x40 DUP4 DUP6 SUB SLT ISZERO PUSH2 0x2BFC JUMPI PUSH2 0x2BFB PUSH2 0x2635 JUMP JUMPDEST JUMPDEST PUSH1 0x0 PUSH2 0x2C0A DUP6 DUP3 DUP7 ADD PUSH2 0x2660 JUMP JUMPDEST SWAP3 POP POP PUSH1 0x20 PUSH2 0x2C1B DUP6 DUP3 DUP7 ADD PUSH2 0x2882 JUMP JUMPDEST SWAP2 POP POP SWAP3 POP SWAP3 SWAP1 POP JUMP JUMPDEST PUSH1 0x0 DUP1 PUSH1 0x40 DUP4 DUP6 SUB SLT ISZERO PUSH2 0x2C3C JUMPI PUSH2 0x2C3B PUSH2 0x2635 JUMP JUMPDEST JUMPDEST PUSH1 0x0 PUSH2 0x2C4A DUP6 DUP3 DUP7 ADD PUSH2 0x2882 JUMP JUMPDEST SWAP3 POP POP PUSH1 0x20 PUSH2 0x2C5B DUP6 DUP3 DUP7 ADD PUSH2 0x2882 JUMP JUMPDEST SWAP2 POP POP SWAP3 POP SWAP3 SWAP1 POP JUMP JUMPDEST PUSH1 0x0 PUSH8 0xFFFFFFFFFFFFFFFF DUP3 GT ISZERO PUSH2 0x2C80 JUMPI PUSH2 0x2C7F PUSH2 0x2A37 JUMP JUMPDEST JUMPDEST PUSH2 0x2C89 DUP3 PUSH2 0x27A3 JUMP JUMPDEST SWAP1 POP PUSH1 0x20 DUP2 ADD SWAP1 POP SWAP2 SWAP1 POP JUMP JUMPDEST PUSH1 0x0 PUSH2 0x2CA9 PUSH2 0x2CA4 DUP5 PUSH2 0x2C65 JUMP JUMPDEST PUSH2 0x2A97 JUMP JUMPDEST SWAP1 POP DUP3 DUP2 MSTORE PUSH1 0x20 DUP2 ADD DUP5 DUP5 DUP5 ADD GT ISZERO PUSH2 0x2CC5 JUMPI PUSH2 0x2CC4 PUSH2 0x2A32 JUMP JUMPDEST JUMPDEST PUSH2 0x2CD0 DUP5 DUP3 DUP6 PUSH2 0x2AE3 JUMP JUMPDEST POP SWAP4 SWAP3 POP POP POP JUMP JUMPDEST PUSH1 0x0 DUP3 PUSH1 0x1F DUP4 ADD SLT PUSH2 0x2CED JUMPI PUSH2 0x2CEC PUSH2 0x2A2D JUMP JUMPDEST JUMPDEST DUP2 CALLDATALOAD PUSH2 0x2CFD DUP5 DUP3 PUSH1 0x20 DUP7 ADD PUSH2 0x2C96 JUMP JUMPDEST SWAP2 POP POP SWAP3 SWAP2 POP POP JUMP JUMPDEST PUSH1 0x0 DUP1 PUSH1 0x0 PUSH1 0x60 DUP5 DUP7 SUB SLT ISZERO PUSH2 0x2D1F JUMPI PUSH2 0x2D1E PUSH2 0x2635 JUMP JUMPDEST JUMPDEST PUSH1 0x0 PUSH2 0x2D2D DUP7 DUP3 DUP8 ADD PUSH2 0x2882 JUMP JUMPDEST SWAP4 POP POP PUSH1 0x20 DUP5 ADD CALLDATALOAD PUSH8 0xFFFFFFFFFFFFFFFF DUP2 GT ISZERO PUSH2 0x2D4E JUMPI PUSH2 0x2D4D PUSH2 0x263A JUMP JUMPDEST JUMPDEST PUSH2 0x2D5A DUP7 DUP3 DUP8 ADD PUSH2 0x2CD8 JUMP JUMPDEST SWAP3 POP POP PUSH1 0x40 PUSH2 0x2D6B DUP7 DUP3 DUP8 ADD PUSH2 0x2660 JUMP JUMPDEST SWAP2 POP POP SWAP3 POP SWAP3 POP SWAP3 JUMP JUMPDEST PUSH32 0x4E487B7100000000000000000000000000000000000000000000000000000000 PUSH1 0x0 MSTORE PUSH1 0x22 PUSH1 0x4 MSTORE PUSH1 0x24 PUSH1 0x0 REVERT JUMPDEST PUSH1 0x0 PUSH1 0x2 DUP3 DIV SWAP1 POP PUSH1 0x1 DUP3 AND DUP1 PUSH2 0x2DBC JUMPI PUSH1 0x7F DUP3 AND SWAP2 POP JUMPDEST PUSH1 0x20 DUP3 LT DUP2 SUB PUSH2 0x2DCF JUMPI PUSH2 0x2DCE PUSH2 0x2D75 JUMP JUMPDEST JUMPDEST POP SWAP2 SWAP1 POP JUMP JUMPDEST PUSH32 0x446E61436F6C6C656374696F6E3A207269636869657374612064692061637175 PUSH1 0x0 DUP3 ADD MSTORE PUSH32 0x6973746F2070657220746F6B656E20696E6573697374656E7465000000000000 PUSH1 0x20 DUP3 ADD MSTORE POP JUMP JUMPDEST PUSH1 0x0 PUSH2 0x2E31 PUSH1 0x3A DUP4 PUSH2 0x2768 JUMP JUMPDEST SWAP2 POP PUSH2 0x2E3C DUP3 PUSH2 0x2DD5 JUMP JUMPDEST PUSH1 0x40 DUP3 ADD SWAP1 POP SWAP2 SWAP1 POP JUMP JUMPDEST PUSH1 0x0 PUSH1 0x20 DUP3 ADD SWAP1 POP DUP2 DUP2 SUB PUSH1 0x0 DUP4 ADD MSTORE PUSH2 0x2E60 DUP2 PUSH2 0x2E24 JUMP JUMPDEST SWAP1 POP SWAP2 SWAP1 POP JUMP JUMPDEST PUSH32 0x446E61436F6C6C656374696F6E3A206E6F6E2070756F69206163717569737461 PUSH1 0x0 DUP3 ADD MSTORE PUSH32 0x726520696C2074756F2073746573736F204E4654000000000000000000000000 PUSH1 0x20 DUP3 ADD MSTORE POP JUMP JUMPDEST PUSH1 0x0 PUSH2 0x2EC3 PUSH1 0x34 DUP4 PUSH2 0x2768 JUMP JUMPDEST SWAP2 POP PUSH2 0x2ECE DUP3 PUSH2 0x2E67 JUMP JUMPDEST PUSH1 0x40 DUP3 ADD SWAP1 POP SWAP2 SWAP1 POP JUMP JUMPDEST PUSH1 0x0 PUSH1 0x20 DUP3 ADD SWAP1 POP DUP2 DUP2 SUB PUSH1 0x0 DUP4 ADD MSTORE PUSH2 0x2EF2 DUP2 PUSH2 0x2EB6 JUMP JUMPDEST SWAP1 POP SWAP2 SWAP1 POP JUMP JUMPDEST PUSH32 0x446E61436F6C6C656374696F6E3A20666F6E646920696E73756666696369656E PUSH1 0x0 DUP3 ADD MSTORE PUSH32 0x7469000000000000000000000000000000000000000000000000000000000000 PUSH1 0x20 DUP3 ADD MSTORE POP JUMP JUMPDEST PUSH1 0x0 PUSH2 0x2F55 PUSH1 0x22 DUP4 PUSH2 0x2768 JUMP JUMPDEST SWAP2 POP PUSH2 0x2F60 DUP3 PUSH2 0x2EF9 JUMP JUMPDEST PUSH1 0x40 DUP3 ADD SWAP1 POP SWAP2 SWAP1 POP JUMP JUMPDEST PUSH1 0x0 PUSH1 0x20 DUP3 ADD SWAP1 POP DUP2 DUP2 SUB PUSH1 0x0 DUP4 ADD MSTORE PUSH2 0x2F84 DUP2 PUSH2 0x2F48 JUMP JUMPDEST SWAP1 POP SWAP2 SWAP1 POP JUMP JUMPDEST PUSH1 0x0 DUP2 SWAP1 POP SWAP3 SWAP2 POP POP JUMP JUMPDEST POP JUMP JUMPDEST PUSH1 0x0 PUSH2 0x2FA6 PUSH1 0x0 DUP4 PUSH2 0x2F8B JUMP JUMPDEST SWAP2 POP PUSH2 0x2FB1 DUP3 PUSH2 0x2F96 JUMP JUMPDEST PUSH1 0x0 DUP3 ADD SWAP1 POP SWAP2 SWAP1 POP JUMP JUMPDEST PUSH1 0x0 PUSH2 0x2FC7 DUP3 PUSH2 0x2F99 JUMP JUMPDEST SWAP2 POP DUP2 SWAP1 POP SWAP2 SWAP1 POP JUMP JUMPDEST PUSH32 0x446E61436F6C6C656374696F6E3A2074726173666572696D656E746F2066616C PUSH1 0x0 DUP3 ADD MSTORE PUSH32 0x6C69746F00000000000000000000000000000000000000000000000000000000 PUSH1 0x20 DUP3 ADD MSTORE POP JUMP JUMPDEST PUSH1 0x0 PUSH2 0x302D PUSH1 0x24 DUP4 PUSH2 0x2768 JUMP JUMPDEST SWAP2 POP PUSH2 0x3038 DUP3 PUSH2 0x2FD1 JUMP JUMPDEST PUSH1 0x40 DUP3 ADD SWAP1 POP SWAP2 SWAP1 POP JUMP JUMPDEST PUSH1 0x0 PUSH1 0x20 DUP3 ADD SWAP1 POP DUP2 DUP2 SUB PUSH1 0x0 DUP4 ADD MSTORE PUSH2 0x305C DUP2 PUSH2 0x3020 JUMP JUMPDEST SWAP1 POP SWAP2 SWAP1 POP JUMP JUMPDEST PUSH32 0x4E487B7100000000000000000000000000000000000000000000000000000000 PUSH1 0x0 MSTORE PUSH1 0x11 PUSH1 0x4 MSTORE PUSH1 0x24 PUSH1 0x0 REVERT JUMPDEST PUSH1 0x0 PUSH2 0x309D DUP3 PUSH2 0x263F JUMP JUMPDEST SWAP2 POP PUSH2 0x30A8 DUP4 PUSH2 0x263F JUMP JUMPDEST SWAP3 POP DUP3 DUP3 SUB SWAP1 POP DUP2 DUP2 GT ISZERO PUSH2 0x30C0 JUMPI PUSH2 0x30BF PUSH2 0x3063 JUMP JUMPDEST JUMPDEST SWAP3 SWAP2 POP POP JUMP JUMPDEST PUSH32 0x446E61436F6C6C656374696F6E3A2072696D626F72736F206563636573736F20 PUSH1 0x0 DUP3 ADD MSTORE PUSH32 0x66616C6C69746F00000000000000000000000000000000000000000000000000 PUSH1 0x20 DUP3 ADD MSTORE POP JUMP JUMPDEST PUSH1 0x0 PUSH2 0x3122 PUSH1 0x27 DUP4 PUSH2 0x2768 JUMP JUMPDEST SWAP2 POP PUSH2 0x312D DUP3 PUSH2 0x30C6 JUMP JUMPDEST PUSH1 0x40 DUP3 ADD SWAP1 POP SWAP2 SWAP1 POP JUMP JUMPDEST PUSH1 0x0 PUSH1 0x20 DUP3 ADD SWAP1 POP DUP2 DUP2 SUB PUSH1 0x0 DUP4 ADD MSTORE PUSH2 0x3151 DUP2 PUSH2 0x3115 JUMP JUMPDEST SWAP1 POP SWAP2 SWAP1 POP JUMP JUMPDEST PUSH1 0x0 PUSH1 0x60 DUP3 ADD SWAP1 POP PUSH2 0x316D PUSH1 0x0 DUP4 ADD DUP7 PUSH2 0x296A JUMP JUMPDEST PUSH2 0x317A PUSH1 0x20 DUP4 ADD DUP6 PUSH2 0x2841 JUMP JUMPDEST PUSH2 0x3187 PUSH1 0x40 DUP4 ADD DUP5 PUSH2 0x296A JUMP JUMPDEST SWAP5 SWAP4 POP POP POP POP JUMP JUMPDEST PUSH32 0x446E61436F6C6C656374696F6E3A207072657A7A6F20696D706F737461746F20 PUSH1 0x0 DUP3 ADD MSTORE PUSH32 0x70657220746F6B656E20696E6573697374656E74650000000000000000000000 PUSH1 0x20 DUP3 ADD MSTORE POP JUMP JUMPDEST PUSH1 0x0 PUSH2 0x31EB PUSH1 0x35 DUP4 PUSH2 0x2768 JUMP JUMPDEST SWAP2 POP PUSH2 0x31F6 DUP3 PUSH2 0x318F JUMP JUMPDEST PUSH1 0x40 DUP3 ADD SWAP1 POP SWAP2 SWAP1 POP JUMP JUMPDEST PUSH1 0x0 PUSH1 0x20 DUP3 ADD SWAP1 POP DUP2 DUP2 SUB PUSH1 0x0 DUP4 ADD MSTORE PUSH2 0x321A DUP2 PUSH2 0x31DE JUMP JUMPDEST SWAP1 POP SWAP2 SWAP1 POP JUMP JUMPDEST PUSH32 0x446E61436F6C6C656374696F6E3A20696C207072657A7A6F20696E697A69616C PUSH1 0x0 DUP3 ADD MSTORE PUSH32 0x65206465766520657373657265206D616767696F7265206469207A65726F0000 PUSH1 0x20 DUP3 ADD MSTORE POP JUMP JUMPDEST PUSH1 0x0 PUSH2 0x327D PUSH1 0x3E DUP4 PUSH2 0x2768 JUMP JUMPDEST SWAP2 POP PUSH2 0x3288 DUP3 PUSH2 0x3221 JUMP JUMPDEST PUSH1 0x40 DUP3 ADD SWAP1 POP SWAP2 SWAP1 POP JUMP JUMPDEST PUSH1 0x0 PUSH1 0x20 DUP3 ADD SWAP1 POP DUP2 DUP2 SUB PUSH1 0x0 DUP4 ADD MSTORE PUSH2 0x32AC DUP2 PUSH2 0x3270 JUMP JUMPDEST SWAP1 POP SWAP2 SWAP1 POP JUMP JUMPDEST PUSH1 0x0 PUSH1 0x40 DUP3 ADD SWAP1 POP PUSH2 0x32C8 PUSH1 0x0 DUP4 ADD DUP6 PUSH2 0x296A JUMP JUMPDEST PUSH2 0x32D5 PUSH1 0x20 DUP4 ADD DUP5 PUSH2 0x296A JUMP JUMPDEST SWAP4 SWAP3 POP POP POP JUMP JUMPDEST PUSH32 0x446E61436F6C6C656374696F6E3A20726963686965737461207072657A7A6F20 PUSH1 0x0 DUP3 ADD MSTORE PUSH32 0x70657220746F6B656E20696E6573697374656E74650000000000000000000000 PUSH1 0x20 DUP3 ADD MSTORE POP JUMP JUMPDEST PUSH1 0x0 PUSH2 0x3338 PUSH1 0x35 DUP4 PUSH2 0x2768 JUMP JUMPDEST SWAP2 POP PUSH2 0x3343 DUP3 PUSH2 0x32DC JUMP JUMPDEST PUSH1 0x40 DUP3 ADD SWAP1 POP SWAP2 SWAP1 POP JUMP JUMPDEST PUSH1 0x0 PUSH1 0x20 DUP3 ADD SWAP1 POP DUP2 DUP2 SUB PUSH1 0x0 DUP4 ADD MSTORE PUSH2 0x3367 DUP2 PUSH2 0x332B JUMP JUMPDEST SWAP1 POP SWAP2 SWAP1 POP JUMP JUMPDEST PUSH32 0x446E61436F6C6C656374696F6E3A20746F6B656E20696E6573697374656E7465 PUSH1 0x0 DUP3 ADD MSTORE POP JUMP JUMPDEST PUSH1 0x0 PUSH2 0x33A4 PUSH1 0x20 DUP4 PUSH2 0x2768 JUMP JUMPDEST SWAP2 POP PUSH2 0x33AF DUP3 PUSH2 0x336E JUMP JUMPDEST PUSH1 0x20 DUP3 ADD SWAP1 POP SWAP2 SWAP1 POP JUMP JUMPDEST PUSH1 0x0 PUSH1 0x20 DUP3 ADD SWAP1 POP DUP2 DUP2 SUB PUSH1 0x0 DUP4 ADD MSTORE PUSH2 0x33D3 DUP2 PUSH2 0x3397 JUMP JUMPDEST SWAP1 POP SWAP2 SWAP1 POP JUMP JUMPDEST PUSH32 0x446E61436F6C6C656374696F6E3A20696E646972697A7A6F206173746120696E PUSH1 0x0 DUP3 ADD MSTORE PUSH32 0x76616C69646F0000000000000000000000000000000000000000000000000000 PUSH1 0x20 DUP3 ADD MSTORE POP JUMP JUMPDEST PUSH1 0x0 PUSH2 0x3436 PUSH1 0x26 DUP4 PUSH2 0x2768 JUMP JUMPDEST SWAP2 POP PUSH2 0x3441 DUP3 PUSH2 0x33DA JUMP JUMPDEST PUSH1 0x40 DUP3 ADD SWAP1 POP SWAP2 SWAP1 POP JUMP JUMPDEST PUSH1 0x0 PUSH1 0x20 DUP3 ADD SWAP1 POP DUP2 DUP2 SUB PUSH1 0x0 DUP4 ADD MSTORE PUSH2 0x3465 DUP2 PUSH2 0x3429 JUMP JUMPDEST SWAP1 POP SWAP2 SWAP1 POP JUMP JUMPDEST PUSH32 0x446E61436F6C6C656374696F6E3A206E6F6E206175746F72697A7A61746F2061 PUSH1 0x0 DUP3 ADD MSTORE PUSH32 0x207072657061726172652071756573746F204E46540000000000000000000000 PUSH1 0x20 DUP3 ADD MSTORE POP JUMP JUMPDEST PUSH1 0x0 PUSH2 0x34C8 PUSH1 0x35 DUP4 PUSH2 0x2768 JUMP JUMPDEST SWAP2 POP PUSH2 0x34D3 DUP3 PUSH2 0x346C JUMP JUMPDEST PUSH1 0x40 DUP3 ADD SWAP1 POP SWAP2 SWAP1 POP JUMP JUMPDEST PUSH1 0x0 PUSH1 0x20 DUP3 ADD SWAP1 POP DUP2 DUP2 SUB PUSH1 0x0 DUP4 ADD MSTORE PUSH2 0x34F7 DUP2 PUSH2 0x34BB JUMP JUMPDEST SWAP1 POP SWAP2 SWAP1 POP JUMP JUMPDEST PUSH1 0x0 DUP2 SWAP1 POP SWAP3 SWAP2 POP POP JUMP JUMPDEST PUSH1 0x0 PUSH2 0x3514 DUP3 PUSH2 0x275D JUMP JUMPDEST PUSH2 0x351E DUP2 DUP6 PUSH2 0x34FE JUMP JUMPDEST SWAP4 POP PUSH2 0x352E DUP2 DUP6 PUSH1 0x20 DUP7 ADD PUSH2 0x2779 JUMP JUMPDEST DUP1 DUP5 ADD SWAP2 POP POP SWAP3 SWAP2 POP POP JUMP JUMPDEST PUSH1 0x0 PUSH2 0x3546 DUP3 DUP6 PUSH2 0x3509 JUMP JUMPDEST SWAP2 POP PUSH2 0x3552 DUP3 DUP5 PUSH2 0x3509 JUMP JUMPDEST SWAP2 POP DUP2 SWAP1 POP SWAP4 SWAP3 POP POP POP JUMP JUMPDEST PUSH1 0x0 PUSH2 0x3569 DUP3 PUSH2 0x263F JUMP JUMPDEST SWAP2 POP PUSH32 0xFFFFFFFFFFFFFFFFFFFFFFFFFFFFFFFFFFFFFFFFFFFFFFFFFFFFFFFFFFFFFFFF DUP3 SUB PUSH2 0x359B JUMPI PUSH2 0x359A PUSH2 0x3063 JUMP JUMPDEST JUMPDEST PUSH1 0x1 DUP3 ADD SWAP1 POP SWAP2 SWAP1 POP JUMP JUMPDEST PUSH1 0x0 PUSH1 0x60 DUP3 ADD SWAP1 POP PUSH2 0x35BB PUSH1 0x0 DUP4 ADD DUP7 PUSH2 0x296A JUMP JUMPDEST DUP2 DUP2 SUB PUSH1 0x20 DUP4 ADD MSTORE PUSH2 0x35CD DUP2 DUP6 PUSH2 0x27B4 JUMP JUMPDEST SWAP1 POP PUSH2 0x35DC PUSH1 0x40 DUP4 ADD DUP5 PUSH2 0x296A JUMP JUMPDEST SWAP5 SWAP4 POP POP POP POP JUMP JUMPDEST PUSH32 0x5265656E7472616E637947756172643A207265656E7472616E742063616C6C00 PUSH1 0x0 DUP3 ADD MSTORE POP JUMP JUMPDEST PUSH1 0x0 PUSH2 0x361A PUSH1 0x1F DUP4 PUSH2 0x2768 JUMP JUMPDEST SWAP2 POP PUSH2 0x3625 DUP3 PUSH2 0x35E4 JUMP JUMPDEST PUSH1 0x20 DUP3 ADD SWAP1 POP SWAP2 SWAP1 POP JUMP JUMPDEST PUSH1 0x0 PUSH1 0x20 DUP3 ADD SWAP1 POP DUP2 DUP2 SUB PUSH1 0x0 DUP4 ADD MSTORE PUSH2 0x3649 DUP2 PUSH2 0x360D JUMP JUMPDEST SWAP1 POP SWAP2 SWAP1 POP JUMP JUMPDEST PUSH1 0x0 PUSH1 0x60 DUP3 ADD SWAP1 POP PUSH2 0x3665 PUSH1 0x0 DUP4 ADD DUP7 PUSH2 0x2841 JUMP JUMPDEST PUSH2 0x3672 PUSH1 0x20 DUP4 ADD DUP6 PUSH2 0x296A JUMP JUMPDEST PUSH2 0x367F PUSH1 0x40 DUP4 ADD DUP5 PUSH2 0x2841 JUMP JUMPDEST SWAP5 SWAP4 POP POP POP POP JUMP JUMPDEST PUSH1 0x0 DUP2 SWAP1 POP DUP2 PUSH1 0x0 MSTORE PUSH1 0x20 PUSH1 0x0 KECCAK256 SWAP1 POP SWAP2 SWAP1 POP JUMP JUMPDEST PUSH1 0x0 PUSH1 0x20 PUSH1 0x1F DUP4 ADD DIV SWAP1 POP SWAP2 SWAP1 POP JUMP JUMPDEST PUSH1 0x0 DUP3 DUP3 SHL SWAP1 POP SWAP3 SWAP2 POP POP JUMP JUMPDEST PUSH1 0x0 PUSH1 0x8 DUP4 MUL PUSH2 0x36E9 PUSH32 0xFFFFFFFFFFFFFFFFFFFFFFFFFFFFFFFFFFFFFFFFFFFFFFFFFFFFFFFFFFFFFFFF DUP3 PUSH2 0x36AC JUMP JUMPDEST PUSH2 0x36F3 DUP7 DUP4 PUSH2 0x36AC JUMP JUMPDEST SWAP6 POP DUP1 NOT DUP5 AND SWAP4 POP DUP1 DUP7 AND DUP5 OR SWAP3 POP POP POP SWAP4 SWAP3 POP POP POP JUMP JUMPDEST PUSH1 0x0 DUP2 SWAP1 POP SWAP2 SWAP1 POP JUMP JUMPDEST PUSH1 0x0 PUSH2 0x3730 PUSH2 0x372B PUSH2 0x3726 DUP5 PUSH2 0x263F JUMP JUMPDEST PUSH2 0x370B JUMP JUMPDEST PUSH2 0x263F JUMP JUMPDEST SWAP1 POP SWAP2 SWAP1 POP JUMP JUMPDEST PUSH1 0x0 DUP2 SWAP1 POP SWAP2 SWAP1 POP JUMP JUMPDEST PUSH2 0x374A DUP4 PUSH2 0x3715 JUMP JUMPDEST PUSH2 0x375E PUSH2 0x3756 DUP3 PUSH2 0x3737 JUMP JUMPDEST DUP5 DUP5 SLOAD PUSH2 0x36B9 JUMP JUMPDEST DUP3 SSTORE POP POP POP POP JUMP JUMPDEST PUSH1 0x0 SWAP1 JUMP JUMPDEST PUSH2 0x3773 PUSH2 0x3766 JUMP JUMPDEST PUSH2 0x377E DUP2 DUP5 DUP5 PUSH2 0x3741 JUMP JUMPDEST POP POP POP JUMP JUMPDEST JUMPDEST DUP2 DUP2 LT ISZERO PUSH2 0x37A2 JUMPI PUSH2 0x3797 PUSH1 0x0 DUP3 PUSH2 0x376B JUMP JUMPDEST PUSH1 0x1 DUP2 ADD SWAP1 POP PUSH2 0x3784 JUMP JUMPDEST POP POP JUMP JUMPDEST PUSH1 0x1F DUP3 GT ISZERO PUSH2 0x37E7 JUMPI PUSH2 0x37B8 DUP2 PUSH2 0x3687 JUMP JUMPDEST PUSH2 0x37C1 DUP5 PUSH2 0x369C JUMP JUMPDEST DUP2 ADD PUSH1 0x20 DUP6 LT ISZERO PUSH2 0x37D0 JUMPI DUP2 SWAP1 POP JUMPDEST PUSH2 0x37E4 PUSH2 0x37DC DUP6 PUSH2 0x369C JUMP JUMPDEST DUP4 ADD DUP3 PUSH2 0x3783 JUMP JUMPDEST POP POP JUMPDEST POP POP POP JUMP JUMPDEST PUSH1 0x0 DUP3 DUP3 SHR SWAP1 POP SWAP3 SWAP2 POP POP JUMP JUMPDEST PUSH1 0x0 PUSH2 0x380A PUSH1 0x0 NOT DUP5 PUSH1 0x8 MUL PUSH2 0x37EC JUMP JUMPDEST NOT DUP1 DUP4 AND SWAP2 POP POP SWAP3 SWAP2 POP POP JUMP JUMPDEST PUSH1 0x0 PUSH2 0x3823 DUP4 DUP4 PUSH2 0x37F9 JUMP JUMPDEST SWAP2 POP DUP3 PUSH1 0x2 MUL DUP3 OR SWAP1 POP SWAP3 SWAP2 POP POP JUMP JUMPDEST PUSH2 0x383C DUP3 PUSH2 0x275D JUMP JUMPDEST PUSH8 0xFFFFFFFFFFFFFFFF DUP2 GT ISZERO PUSH2 0x3855 JUMPI PUSH2 0x3854 PUSH2 0x2A37 JUMP JUMPDEST JUMPDEST PUSH2 0x385F DUP3 SLOAD PUSH2 0x2DA4 JUMP JUMPDEST PUSH2 0x386A DUP3 DUP3 DUP6 PUSH2 0x37A6 JUMP JUMPDEST PUSH1 0x0 PUSH1 0x20 SWAP1 POP PUSH1 0x1F DUP4 GT PUSH1 0x1 DUP2 EQ PUSH2 0x389D JUMPI PUSH1 0x0 DUP5 ISZERO PUSH2 0x388B JUMPI DUP3 DUP8 ADD MLOAD SWAP1 POP JUMPDEST PUSH2 0x3895 DUP6 DUP3 PUSH2 0x3817 JUMP JUMPDEST DUP7 SSTORE POP PUSH2 0x38FD JUMP JUMPDEST PUSH1 0x1F NOT DUP5 AND PUSH2 0x38AB DUP7 PUSH2 0x3687 JUMP JUMPDEST PUSH1 0x0 JUMPDEST DUP3 DUP2 LT ISZERO PUSH2 0x38D3 JUMPI DUP5 DUP10 ADD MLOAD DUP3 SSTORE PUSH1 0x1 DUP3 ADD SWAP2 POP PUSH1 0x20 DUP6 ADD SWAP5 POP PUSH1 0x20 DUP2 ADD SWAP1 POP PUSH2 0x38AE JUMP JUMPDEST DUP7 DUP4 LT ISZERO PUSH2 0x38F0 JUMPI DUP5 DUP10 ADD MLOAD PUSH2 0x38EC PUSH1 0x1F DUP10 AND DUP3 PUSH2 0x37F9 JUMP JUMPDEST DUP4 SSTORE POP JUMPDEST PUSH1 0x1 PUSH1 0x2 DUP9 MUL ADD DUP9 SSTORE POP POP POP JUMPDEST POP POP POP POP POP POP JUMP JUMPDEST PUSH1 0x0 DUP2 MLOAD SWAP1 POP SWAP2 SWAP1 POP JUMP JUMPDEST PUSH1 0x0 DUP3 DUP3 MSTORE PUSH1 0x20 DUP3 ADD SWAP1 POP SWAP3 SWAP2 POP POP JUMP JUMPDEST PUSH1 0x0 PUSH2 0x392C DUP3 PUSH2 0x3905 JUMP JUMPDEST PUSH2 0x3936 DUP2 DUP6 PUSH2 0x3910 JUMP JUMPDEST SWAP4 POP PUSH2 0x3946 DUP2 DUP6 PUSH1 0x20 DUP7 ADD PUSH2 0x2779 JUMP JUMPDEST PUSH2 0x394F DUP2 PUSH2 0x27A3 JUMP JUMPDEST DUP5 ADD SWAP2 POP POP SWAP3 SWAP2 POP POP JUMP JUMPDEST PUSH1 0x0 PUSH1 0x80 DUP3 ADD SWAP1 POP PUSH2 0x396F PUSH1 0x0 DUP4 ADD DUP8 PUSH2 0x2841 JUMP JUMPDEST PUSH2 0x397C PUSH1 0x20 DUP4 ADD DUP7 PUSH2 0x2841 JUMP JUMPDEST PUSH2 0x3989 PUSH1 0x40 DUP4 ADD DUP6 PUSH2 0x296A JUMP JUMPDEST DUP2 DUP2 SUB PUSH1 0x60 DUP4 ADD MSTORE PUSH2 0x399B DUP2 DUP5 PUSH2 0x3921 JUMP JUMPDEST SWAP1 POP SWAP6 SWAP5 POP POP POP POP POP JUMP JUMPDEST PUSH1 0x0 DUP2 MLOAD SWAP1 POP PUSH2 0x39B5 DUP2 PUSH2 0x2704 JUMP JUMPDEST SWAP3 SWAP2 POP POP JUMP JUMPDEST PUSH1 0x0 PUSH1 0x20 DUP3 DUP5 SUB SLT ISZERO PUSH2 0x39D1 JUMPI PUSH2 0x39D0 PUSH2 0x2635 JUMP JUMPDEST JUMPDEST PUSH1 0x0 PUSH2 0x39DF DUP5 DUP3 DUP6 ADD PUSH2 0x39A6 JUMP JUMPDEST SWAP2 POP POP SWAP3 SWAP2 POP POP JUMP JUMPDEST PUSH32 0x4E487B7100000000000000000000000000000000000000000000000000000000 PUSH1 0x0 MSTORE PUSH1 0x12 PUSH1 0x4 MSTORE PUSH1 0x24 PUSH1 0x0 REVERT JUMPDEST PUSH1 0x0 PUSH1 0x40 DUP3 ADD SWAP1 POP PUSH2 0x3A2C PUSH1 0x0 DUP4 ADD DUP6 PUSH2 0x2841 JUMP JUMPDEST PUSH2 0x3A39 PUSH1 0x20 DUP4 ADD DUP5 PUSH2 0x296A JUMP JUMPDEST SWAP4 SWAP3 POP POP POP JUMP INVALID LOG2 PUSH5 0x6970667358 0x22 SLT KECCAK256 0xAB 0x4C ADDRESS 0x27 DUP7 PUSH12 0xE699A031F90202EB68D9D3C7 SWAP7 PUSH0 SMOD SWAP6 DUP15 DUP12 0x2E 0xA8 SWAP2 0xE2 0xC2 MSTORE PUSH26 0x7A64736F6C634300081C00330000000000000000000000000000 "},"methodIdentifiers":{"approve(address,uint256)":"095ea7b3","balanceOf(address)":"70a08231","collectionDescription()":"e2c6875c","createNFT(address,string,uint256)":"eaa6a676","getApproved(uint256)":"081812fc","getContractOwner()":"442890d5","getTokenStartingPrice(uint256)":"5feee1f6","getTotalNFTs()":"30bdb351","isApprovedForAll(address,address)":"e985e9c5","name()":"06fdde03","owner()":"8da5cb5b","ownerOf(uint256)":"6352211e","prepareNFTForAuction(uint256,address)":"ba87e10e","purchaseNFT(uint256)":"150bde03","renounceOwnership()":"715018a6","safeTransferFrom(address,address,uint256)":"42842e0e","safeTransferFrom(address,address,uint256,bytes)":"b88d4fde","setApprovalForAll(address,bool)":"a22cb465","setTokenStartingPrice(uint256,uint256)":"26397ede","supportsInterface(bytes4)":"01ffc9a7","symbol()":"95d89b41","tokenExists(uint256)":"00923f9e","tokenURI(uint256)":"c87b56dd","transferFrom(address,address,uint256)":"23b872dd","transferOwnership(address)":"f2fde38b"}}}}}