{"contracts/DnaAuction.sol":{"DnaAuction":{"abi":[{"inputs":[],"stateMutability":"nonpayable","type":"constructor"},{"inputs":[{"internalType":"address","name":"owner","type":"address"}],"name":"OwnableInvalidOwner","type":"error"},{"inputs":[{"internalType":"address","name":"account","type":"address"}],"name":"OwnableUnauthorizedAccount","type":"error"},{"anonymous":false,"inputs":[{"indexed":false,"internalType":"uint256","name":"auctionId","type":"uint256"},{"indexed":false,"internalType":"address","name":"nftContract","type":"address"},{"indexed":false,"internalType":"uint256","name":"tokenId","type":"uint256"},{"indexed":false,"internalType":"uint256","name":"startingPrice","type":"uint256"},{"indexed":false,"internalType":"uint256","name":"endTime","type":"uint256"}],"name":"AuctionCreated","type":"event"},{"anonymous":false,"inputs":[{"indexed":false,"internalType":"uint256","name":"auctionId","type":"uint256"},{"indexed":false,"internalType":"address","name":"winner","type":"address"},{"indexed":false,"internalType":"uint256","name":"amount","type":"uint256"}],"name":"AuctionEnded","type":"event"},{"anonymous":false,"inputs":[{"indexed":false,"internalType":"uint256","name":"auctionId","type":"uint256"},{"indexed":false,"internalType":"address","name":"winner","type":"address"},{"indexed":false,"internalType":"uint256","name":"amount","type":"uint256"}],"name":"AuctionSettled","type":"event"},{"anonymous":false,"inputs":[{"indexed":false,"internalType":"uint256","name":"auctionId","type":"uint256"},{"indexed":false,"internalType":"address","name":"bidder","type":"address"},{"indexed":false,"internalType":"uint256","name":"amount","type":"uint256"}],"name":"BidPlaced","type":"event"},{"anonymous":false,"inputs":[{"indexed":false,"internalType":"uint256","name":"auctionId","type":"uint256"},{"indexed":false,"internalType":"address","name":"bidder","type":"address"},{"indexed":false,"internalType":"uint256","name":"amount","type":"uint256"}],"name":"BidRefunded","type":"event"},{"anonymous":false,"inputs":[{"indexed":false,"internalType":"uint256","name":"auctionId","type":"uint256"},{"indexed":false,"internalType":"address","name":"winner","type":"address"}],"name":"NFTClaimed","type":"event"},{"anonymous":false,"inputs":[{"indexed":true,"internalType":"address","name":"previousOwner","type":"address"},{"indexed":true,"internalType":"address","name":"newOwner","type":"address"}],"name":"OwnershipTransferred","type":"event"},{"inputs":[],"name":"MAX_BIDDERS","outputs":[{"internalType":"uint256","name":"","type":"uint256"}],"stateMutability":"view","type":"function"},{"inputs":[{"internalType":"uint256","name":"auctionId","type":"uint256"}],"name":"claimNFT","outputs":[],"stateMutability":"nonpayable","type":"function"},{"inputs":[{"internalType":"uint256","name":"auctionId","type":"uint256"}],"name":"claimRefund","outputs":[],"stateMutability":"nonpayable","type":"function"},{"inputs":[{"internalType":"address","name":"nftContract","type":"address"},{"internalType":"uint256","name":"tokenId","type":"uint256"},{"internalType":"uint256","name":"startingPrice","type":"uint256"},{"internalType":"uint256","name":"duration","type":"uint256"}],"name":"createAuction","outputs":[{"internalType":"uint256","name":"","type":"uint256"}],"stateMutability":"nonpayable","type":"function"},{"inputs":[{"internalType":"uint256","name":"auctionId","type":"uint256"}],"name":"endAuction","outputs":[],"stateMutability":"nonpayable","type":"function"},{"inputs":[{"internalType":"uint256","name":"auctionId","type":"uint256"}],"name":"getAuctionDetails","outputs":[{"internalType":"address","name":"nftContract","type":"address"},{"internalType":"uint256","name":"tokenId","type":"uint256"},{"internalType":"uint256","name":"startingPrice","type":"uint256"},{"internalType":"uint256","name":"endTime","type":"uint256"},{"internalType":"address","name":"highestBidder","type":"address"},{"internalType":"uint256","name":"highestBid","type":"uint256"},{"internalType":"bool","name":"ended","type":"bool"},{"internalType":"bool","name":"nftClaimed","type":"bool"}],"stateMutability":"view","type":"function"},{"inputs":[{"internalType":"uint256","name":"auctionId","type":"uint256"},{"internalType":"address","name":"bidder","type":"address"}],"name":"getBid","outputs":[{"internalType":"uint256","name":"","type":"uint256"}],"stateMutability":"view","type":"function"},{"inputs":[],"name":"getTotalAuctions","outputs":[{"internalType":"uint256","name":"","type":"uint256"}],"stateMutability":"view","type":"function"},{"inputs":[{"internalType":"address","name":"","type":"address"},{"internalType":"address","name":"","type":"address"},{"internalType":"uint256","name":"","type":"uint256"},{"internalType":"bytes","name":"","type":"bytes"}],"name":"onERC721Received","outputs":[{"internalType":"bytes4","name":"","type":"bytes4"}],"stateMutability":"nonpayable","type":"function"},{"inputs":[],"name":"owner","outputs":[{"internalType":"address","name":"","type":"address"}],"stateMutability":"view","type":"function"},{"inputs":[{"internalType":"uint256","name":"auctionId","type":"uint256"}],"name":"placeBid","outputs":[],"stateMutability":"payable","type":"function"},{"inputs":[],"name":"renounceOwnership","outputs":[],"stateMutability":"nonpayable","type":"function"},{"inputs":[{"internalType":"address","name":"newOwner","type":"address"}],"name":"transferOwnership","outputs":[],"stateMutability":"nonpayable","type":"function"}],"evm":{"bytecode":{"linkReferences":{},"object":"608060405234801561001057600080fd5b5033600073ffffffffffffffffffffffffffffffffffffffff168173ffffffffffffffffffffffffffffffffffffffff16036100845760006040517f1e4fbdf700000000000000000000000000000000000000000000000000000000815260040161007b91906101a5565b60405180910390fd5b610093816100a060201b60201c565b50600180819055506101c0565b60008060009054906101000a900473ffffffffffffffffffffffffffffffffffffffff169050816000806101000a81548173ffffffffffffffffffffffffffffffffffffffff021916908373ffffffffffffffffffffffffffffffffffffffff1602179055508173ffffffffffffffffffffffffffffffffffffffff168173ffffffffffffffffffffffffffffffffffffffff167f8be0079c531659141344cd1fd0a4f28419497f9722a3daafe3b4186f6b6457e060405160405180910390a35050565b600073ffffffffffffffffffffffffffffffffffffffff82169050919050565b600061018f82610164565b9050919050565b61019f81610184565b82525050565b60006020820190506101ba6000830184610196565b92915050565b61296a806101cf6000396000f3fe6080604052600436106100c25760003560e01c80638da5cb5b1161007f578063eba1b60b11610059578063eba1b60b14610247578063f20e5e3514610284578063f2fde38b146102c8578063fe5c873a146102f1576100c2565b80638da5cb5b146101d75780639979ef4514610202578063b9a2de3a1461021e576100c2565b8063150b7a02146100c75780633ef14cc8146101045780634cc4f50d1461012f5780635b7baf641461015a57806361beb1d714610183578063715018a6146101c0575b600080fd5b3480156100d357600080fd5b506100ee60048036038101906100e99190611b15565b61031a565b6040516100fb9190611bd3565b60405180910390f35b34801561011057600080fd5b5061011961032e565b6040516101269190611bfd565b60405180910390f35b34801561013b57600080fd5b50610144610338565b6040516101519190611bfd565b60405180910390f35b34801561016657600080fd5b50610181600480360381019061017c9190611c18565b61033d565b005b34801561018f57600080fd5b506101aa60048036038101906101a59190611c45565b61068b565b6040516101b79190611bfd565b60405180910390f35b3480156101cc57600080fd5b506101d5610ab1565b005b3480156101e357600080fd5b506101ec610ac5565b6040516101f99190611cbb565b60405180910390f35b61021c60048036038101906102179190611c18565b610aee565b005b34801561022a57600080fd5b5061024560048036038101906102409190611c18565b610e77565b005b34801561025357600080fd5b5061026e60048036038101906102699190611cd6565b6111fb565b60405161027b9190611bfd565b60405180910390f35b34801561029057600080fd5b506102ab60048036038101906102a69190611c18565b6112a4565b6040516102bf989796959493929190611d31565b60405180910390f35b3480156102d457600080fd5b506102ef60048036038101906102ea9190611daf565b6113ab565b005b3480156102fd57600080fd5b5061031860048036038101906103139190611c18565b611431565b005b600063150b7a0260e01b9050949350505050565b6000600254905090565b606481565b61034561177c565b6000600360008381526020019081526020016000209050818160000154146103a2576040517f08c379a000000000000000000000000000000000000000000000000000000000815260040161039990611e39565b60405180910390fd5b8060070160009054906101000a900460ff166103f3576040517f08c379a00000000000000000000000000000000000000000000000000000000081526004016103ea90611ea5565b60405180910390fd5b8060050160009054906101000a900473ffffffffffffffffffffffffffffffffffffffff1673ffffffffffffffffffffffffffffffffffffffff163373ffffffffffffffffffffffffffffffffffffffff1603610485576040517f08c379a000000000000000000000000000000000000000000000000000000000815260040161047c90611f37565b60405180910390fd5b60008160080160003373ffffffffffffffffffffffffffffffffffffffff1673ffffffffffffffffffffffffffffffffffffffff1681526020019081526020016000205411610509576040517f08c379a000000000000000000000000000000000000000000000000000000000815260040161050090611fc9565b60405180910390fd5b60008160080160003373ffffffffffffffffffffffffffffffffffffffff1673ffffffffffffffffffffffffffffffffffffffff16815260200190815260200160002054905060008260080160003373ffffffffffffffffffffffffffffffffffffffff1673ffffffffffffffffffffffffffffffffffffffff1681526020019081526020016000208190555060003373ffffffffffffffffffffffffffffffffffffffff16826040516105bc9061201a565b60006040518083038185875af1925050503d80600081146105f9576040519150601f19603f3d011682016040523d82523d6000602084013e6105fe565b606091505b5050905080610642576040517f08c379a00000000000000000000000000000000000000000000000000000000081526004016106399061207b565b60405180910390fd5b7fa59312996dc68b7f0224b341fed75d5afeb3bb20624107d37942d14f594281568433846040516106759392919061209b565b60405180910390a15050506106886117cb565b50565b60006106956117d4565b61069d61177c565b600082116106e0576040517f08c379a00000000000000000000000000000000000000000000000000000000081526004016106d790612144565b60405180910390fd5b60008311610723576040517f08c379a000000000000000000000000000000000000000000000000000000000815260040161071a906121d6565b60405180910390fd5b60008573ffffffffffffffffffffffffffffffffffffffff16636352211e866040518263ffffffff1660e01b815260040161075e9190611bfd565b602060405180830381865afa15801561077b573d6000803e3d6000fd5b505050506040513d601f19601f8201168201806040525081019061079f919061220b565b90503073ffffffffffffffffffffffffffffffffffffffff168673ffffffffffffffffffffffffffffffffffffffff1663081812fc876040518263ffffffff1660e01b81526004016107f19190611bfd565b602060405180830381865afa15801561080e573d6000803e3d6000fd5b505050506040513d601f19601f82011682018060405250810190610832919061220b565b73ffffffffffffffffffffffffffffffffffffffff1614806108cc57508573ffffffffffffffffffffffffffffffffffffffff1663e985e9c582306040518363ffffffff1660e01b815260040161088a929190612238565b602060405180830381865afa1580156108a7573d6000803e3d6000fd5b505050506040513d601f19601f820116820180604052508101906108cb919061228d565b5b61090b576040517f08c379a00000000000000000000000000000000000000000000000000000000081526004016109029061232c565b60405180910390fd5b8573ffffffffffffffffffffffffffffffffffffffff166342842e0e8230886040518463ffffffff1660e01b81526004016109489392919061234c565b600060405180830381600087803b15801561096257600080fd5b505af1158015610976573d6000803e3d6000fd5b5050505060006002600081548092919061098f906123b2565b9190505590506000600360008381526020019081526020016000209050818160000181905550878160010160006101000a81548173ffffffffffffffffffffffffffffffffffffffff021916908373ffffffffffffffffffffffffffffffffffffffff1602179055508681600201819055508581600301819055508442610a1691906123fa565b816004018190555060008160070160006101000a81548160ff02191690831515021790555060008160070160016101000a81548160ff0219169083151502179055507f05f9bf100dd0ca9f37f08e0526690286d357ed7d6c5a4ac29730440b6e2dfd62828989898560040154604051610a9395949392919061242e565b60405180910390a1819350505050610aa96117cb565b949350505050565b610ab96117d4565b610ac3600061185b565b565b60008060009054906101000a900473ffffffffffffffffffffffffffffffffffffffff16905090565b610af661177c565b600060036000838152602001908152602001600020905081816000015414610b53576040517f08c379a0000000000000000000000000000000000000000000000000000000008152600401610b4a90611e39565b60405180910390fd5b8060070160009054906101000a900460ff1615610ba5576040517f08c379a0000000000000000000000000000000000000000000000000000000008152600401610b9c906124cd565b60405180910390fd5b80600401544210610beb576040517f08c379a0000000000000000000000000000000000000000000000000000000008152600401610be290612539565b60405180910390fd5b80600601543411610c31576040517f08c379a0000000000000000000000000000000000000000000000000000000008152600401610c28906125cb565b60405180910390fd5b60008160050160009054906101000a900473ffffffffffffffffffffffffffffffffffffffff169050600082600601549050600073ffffffffffffffffffffffffffffffffffffffff168273ffffffffffffffffffffffffffffffffffffffff1614158015610ca05750600081115b15610d9c5760008360080160008473ffffffffffffffffffffffffffffffffffffffff1673ffffffffffffffffffffffffffffffffffffffff1681526020019081526020016000208190555060008273ffffffffffffffffffffffffffffffffffffffff1682604051610d129061201a565b60006040518083038185875af1925050503d8060008114610d4f576040519150601f19603f3d011682016040523d82523d6000602084013e610d54565b606091505b505090508015610d9a577fa59312996dc68b7f0224b341fed75d5afeb3bb20624107d37942d14f59428156858484604051610d919392919061209b565b60405180910390a15b505b348360080160003373ffffffffffffffffffffffffffffffffffffffff1673ffffffffffffffffffffffffffffffffffffffff16815260200190815260200160002081905550348360060181905550338360050160006101000a81548173ffffffffffffffffffffffffffffffffffffffff021916908373ffffffffffffffffffffffffffffffffffffffff1602179055507f0e54eff26401bf69b81b26f60bd85ef47f5d85275c1d268d84f68d6897431c47843334604051610e619392919061209b565b60405180910390a1505050610e746117cb565b50565b610e7f6117d4565b610e8761177c565b600060036000838152602001908152602001600020905081816000015414610ee4576040517f08c379a0000000000000000000000000000000000000000000000000000000008152600401610edb90611e39565b60405180910390fd5b8060070160009054906101000a900460ff1615610f36576040517f08c379a0000000000000000000000000000000000000000000000000000000008152600401610f2d906124cd565b60405180910390fd5b8060040154421015610f7d576040517f08c379a0000000000000000000000000000000000000000000000000000000008152600401610f749061265d565b60405180910390fd5b60018160070160006101000a81548160ff02191690831515021790555060008160050160009054906101000a900473ffffffffffffffffffffffffffffffffffffffff1690506000826006015490507fd2aa34a4fdbbc6dff6a3e56f46e0f3ae2a31d7785ff3487aa5c95c642acea501848383604051610fff9392919061209b565b60405180910390a1600073ffffffffffffffffffffffffffffffffffffffff168273ffffffffffffffffffffffffffffffffffffffff16141580156110445750600081115b156111ed5760018360070160016101000a81548160ff0219169083151502179055508260010160009054906101000a900473ffffffffffffffffffffffffffffffffffffffff1673ffffffffffffffffffffffffffffffffffffffff166342842e0e308486600201546040518463ffffffff1660e01b81526004016110cb9392919061234c565b600060405180830381600087803b1580156110e557600080fd5b505af11580156110f9573d6000803e3d6000fd5b505050506000611107610ac5565b73ffffffffffffffffffffffffffffffffffffffff168260405161112a9061201a565b60006040518083038185875af1925050503d8060008114611167576040519150601f19603f3d011682016040523d82523d6000602084013e61116c565b606091505b50509050806111b0576040517f08c379a00000000000000000000000000000000000000000000000000000000081526004016111a7906126ef565b60405180910390fd5b7fc9f72b276a388619c6d185d146697036241880c36654b1a3ffdad07c24038d998584846040516111e39392919061209b565b60405180910390a1505b5050506111f86117cb565b50565b60008060036000858152602001908152602001600020905083816000015414611259576040517f08c379a000000000000000000000000000000000000000000000000000000000815260040161125090611e39565b60405180910390fd5b8060080160008473ffffffffffffffffffffffffffffffffffffffff1673ffffffffffffffffffffffffffffffffffffffff1681526020019081526020016000205491505092915050565b6000806000806000806000806000600360008b815260200190815260200160002090508981600001541461130d576040517f08c379a000000000000000000000000000000000000000000000000000000000815260040161130490611e39565b60405180910390fd5b8060010160009054906101000a900473ffffffffffffffffffffffffffffffffffffffff168160020154826003015483600401548460050160009054906101000a900473ffffffffffffffffffffffffffffffffffffffff1685600601548660070160009054906101000a900460ff168760070160019054906101000a900460ff169850985098509850985098509850985050919395975091939597565b6113b36117d4565b600073ffffffffffffffffffffffffffffffffffffffff168173ffffffffffffffffffffffffffffffffffffffff16036114255760006040517f1e4fbdf700000000000000000000000000000000000000000000000000000000815260040161141c9190611cbb565b60405180910390fd5b61142e8161185b565b50565b61143961177c565b600060036000838152602001908152602001600020905081816000015414611496576040517f08c379a000000000000000000000000000000000000000000000000000000000815260040161148d90611e39565b60405180910390fd5b8060070160009054906101000a900460ff166114e7576040517f08c379a00000000000000000000000000000000000000000000000000000000081526004016114de90611ea5565b60405180910390fd5b8060050160009054906101000a900473ffffffffffffffffffffffffffffffffffffffff1673ffffffffffffffffffffffffffffffffffffffff163373ffffffffffffffffffffffffffffffffffffffff1614611579576040517f08c379a000000000000000000000000000000000000000000000000000000000815260040161157090612781565b60405180910390fd5b8060070160019054906101000a900460ff16156115cb576040517f08c379a00000000000000000000000000000000000000000000000000000000081526004016115c2906127ed565b60405180910390fd5b60018160070160016101000a81548160ff0219169083151502179055508060010160009054906101000a900473ffffffffffffffffffffffffffffffffffffffff1673ffffffffffffffffffffffffffffffffffffffff166342842e0e303384600201546040518463ffffffff1660e01b815260040161164d9392919061234c565b600060405180830381600087803b15801561166757600080fd5b505af115801561167b573d6000803e3d6000fd5b505050506000611689610ac5565b73ffffffffffffffffffffffffffffffffffffffff1682600601546040516116b09061201a565b60006040518083038185875af1925050503d80600081146116ed576040519150601f19603f3d011682016040523d82523d6000602084013e6116f2565b606091505b5050905080611736576040517f08c379a000000000000000000000000000000000000000000000000000000000815260040161172d9061287f565b60405180910390fd5b7fec5f0dee1fc3c7beab746dbd5883eee3f1c9bc07fe02dd318c553c5243f52fea833360405161176792919061289f565b60405180910390a150506117796117cb565b50565b6002600154036117c1576040517f08c379a00000000000000000000000000000000000000000000000000000000081526004016117b890612914565b60405180910390fd5b6002600181905550565b60018081905550565b6117dc61191f565b73ffffffffffffffffffffffffffffffffffffffff166117fa610ac5565b73ffffffffffffffffffffffffffffffffffffffff16146118595761181d61191f565b6040517f118cdaa70000000000000000000000000000000000000000000000000000000081526004016118509190611cbb565b60405180910390fd5b565b60008060009054906101000a900473ffffffffffffffffffffffffffffffffffffffff169050816000806101000a81548173ffffffffffffffffffffffffffffffffffffffff021916908373ffffffffffffffffffffffffffffffffffffffff1602179055508173ffffffffffffffffffffffffffffffffffffffff168173ffffffffffffffffffffffffffffffffffffffff167f8be0079c531659141344cd1fd0a4f28419497f9722a3daafe3b4186f6b6457e060405160405180910390a35050565b600033905090565b6000604051905090565b600080fd5b600080fd5b600073ffffffffffffffffffffffffffffffffffffffff82169050919050565b60006119668261193b565b9050919050565b6119768161195b565b811461198157600080fd5b50565b6000813590506119938161196d565b92915050565b6000819050919050565b6119ac81611999565b81146119b757600080fd5b50565b6000813590506119c9816119a3565b92915050565b600080fd5b600080fd5b6000601f19601f8301169050919050565b7f4e487b7100000000000000000000000000000000000000000000000000000000600052604160045260246000fd5b611a22826119d9565b810181811067ffffffffffffffff82111715611a4157611a406119ea565b5b80604052505050565b6000611a54611927565b9050611a608282611a19565b919050565b600067ffffffffffffffff821115611a8057611a7f6119ea565b5b611a89826119d9565b9050602081019050919050565b82818337600083830152505050565b6000611ab8611ab384611a65565b611a4a565b905082815260208101848484011115611ad457611ad36119d4565b5b611adf848285611a96565b509392505050565b600082601f830112611afc57611afb6119cf565b5b8135611b0c848260208601611aa5565b91505092915050565b60008060008060808587031215611b2f57611b2e611931565b5b6000611b3d87828801611984565b9450506020611b4e87828801611984565b9350506040611b5f878288016119ba565b925050606085013567ffffffffffffffff811115611b8057611b7f611936565b5b611b8c87828801611ae7565b91505092959194509250565b60007fffffffff0000000000000000000000000000000000000000000000000000000082169050919050565b611bcd81611b98565b82525050565b6000602082019050611be86000830184611bc4565b92915050565b611bf781611999565b82525050565b6000602082019050611c126000830184611bee565b92915050565b600060208284031215611c2e57611c2d611931565b5b6000611c3c848285016119ba565b91505092915050565b60008060008060808587031215611c5f57611c5e611931565b5b6000611c6d87828801611984565b9450506020611c7e878288016119ba565b9350506040611c8f878288016119ba565b9250506060611ca0878288016119ba565b91505092959194509250565b611cb58161195b565b82525050565b6000602082019050611cd06000830184611cac565b92915050565b60008060408385031215611ced57611cec611931565b5b6000611cfb858286016119ba565b9250506020611d0c85828601611984565b9150509250929050565b60008115159050919050565b611d2b81611d16565b82525050565b600061010082019050611d47600083018b611cac565b611d54602083018a611bee565b611d616040830189611bee565b611d6e6060830188611bee565b611d7b6080830187611cac565b611d8860a0830186611bee565b611d9560c0830185611d22565b611da260e0830184611d22565b9998505050505050505050565b600060208284031215611dc557611dc4611931565b5b6000611dd384828501611984565b91505092915050565b600082825260208201905092915050565b7f446e6141756374696f6e3a206173746120696e6573697374656e746500000000600082015250565b6000611e23601c83611ddc565b9150611e2e82611ded565b602082019050919050565b60006020820190508181036000830152611e5281611e16565b9050919050565b7f446e6141756374696f6e3a2061737461206e6f6e207465726d696e6174610000600082015250565b6000611e8f601e83611ddc565b9150611e9a82611e59565b602082019050919050565b60006020820190508181036000830152611ebe81611e82565b9050919050565b7f446e6141756374696f6e3a206c276f66666572656e74652070697520616c746f60008201527f206e6f6e2070756f207269636869656465726520756e2072696d626f72736f00602082015250565b6000611f21603f83611ddc565b9150611f2c82611ec5565b604082019050919050565b60006020820190508181036000830152611f5081611f14565b9050919050565b7f446e6141756374696f6e3a206e657373756e61206f666665727461206461207260008201527f696d626f72736172650000000000000000000000000000000000000000000000602082015250565b6000611fb3602983611ddc565b9150611fbe82611f57565b604082019050919050565b60006020820190508181036000830152611fe281611fa6565b9050919050565b600081905092915050565b50565b6000612004600083611fe9565b915061200f82611ff4565b600082019050919050565b600061202582611ff7565b9150819050919050565b7f446e6141756374696f6e3a2072696d626f72736f2066616c6c69746f00000000600082015250565b6000612065601c83611ddc565b91506120708261202f565b602082019050919050565b6000602082019050818103600083015261209481612058565b9050919050565b60006060820190506120b06000830186611bee565b6120bd6020830185611cac565b6120ca6040830184611bee565b949350505050565b7f446e6141756374696f6e3a206c6120647572617461206465766520657373657260008201527f6520706f73697469766100000000000000000000000000000000000000000000602082015250565b600061212e602a83611ddc565b9150612139826120d2565b604082019050919050565b6000602082019050818103600083015261215d81612121565b9050919050565b7f446e6141756374696f6e3a20696c207072657a7a6f20696e697a69616c65206460008201527f65766520657373657265206d616767696f7265206469207a65726f0000000000602082015250565b60006121c0603b83611ddc565b91506121cb82612164565b604082019050919050565b600060208201905081810360008301526121ef816121b3565b9050919050565b6000815190506122058161196d565b92915050565b60006020828403121561222157612220611931565b5b600061222f848285016121f6565b91505092915050565b600060408201905061224d6000830185611cac565b61225a6020830184611cac565b9392505050565b61226a81611d16565b811461227557600080fd5b50565b60008151905061228781612261565b92915050565b6000602082840312156122a3576122a2611931565b5b60006122b184828501612278565b91505092915050565b7f446e6141756374696f6e3a20636f6e74726174746f206e6f6e206175746f726960008201527f7a7a61746f20612074726173666572697265206c274e46540000000000000000602082015250565b6000612316603883611ddc565b9150612321826122ba565b604082019050919050565b6000602082019050818103600083015261234581612309565b9050919050565b60006060820190506123616000830186611cac565b61236e6020830185611cac565b61237b6040830184611bee565b949350505050565b7f4e487b7100000000000000000000000000000000000000000000000000000000600052601160045260246000fd5b60006123bd82611999565b91507fffffffffffffffffffffffffffffffffffffffffffffffffffffffffffffffff82036123ef576123ee612383565b5b600182019050919050565b600061240582611999565b915061241083611999565b925082820190508082111561242857612427612383565b5b92915050565b600060a0820190506124436000830188611bee565b6124506020830187611cac565b61245d6040830186611bee565b61246a6060830185611bee565b6124776080830184611bee565b9695505050505050565b7f446e6141756374696f6e3a206173746120676961207465726d696e6174610000600082015250565b60006124b7601e83611ddc565b91506124c282612481565b602082019050919050565b600060208201905081810360008301526124e6816124aa565b9050919050565b7f446e6141756374696f6e3a206173746120736361647574610000000000000000600082015250565b6000612523601883611ddc565b915061252e826124ed565b602082019050919050565b6000602082019050818103600083015261255281612516565b9050919050565b7f446e6141756374696f6e3a206f666665727461206e6f6e20616262617374616e60008201527f7a6120616c746100000000000000000000000000000000000000000000000000602082015250565b60006125b5602783611ddc565b91506125c082612559565b604082019050919050565b600060208201905081810360008301526125e4816125a8565b9050919050565b7f446e6141756374696f6e3a2061737461206e6f6e20616e636f7261207363616460008201527f7574610000000000000000000000000000000000000000000000000000000000602082015250565b6000612647602383611ddc565b9150612652826125eb565b604082019050919050565b600060208201905081810360008301526126768161263a565b9050919050565b7f446e6141756374696f6e3a2074726173666572696d656e746f20666f6e64692060008201527f66616c6c69746f00000000000000000000000000000000000000000000000000602082015250565b60006126d9602783611ddc565b91506126e48261267d565b604082019050919050565b60006020820190508181036000830152612708816126cc565b9050919050565b7f446e6141756374696f6e3a206e6f6e20736569206c276f66666572656e74652060008201527f70697520616c746f000000000000000000000000000000000000000000000000602082015250565b600061276b602883611ddc565b91506127768261270f565b604082019050919050565b6000602082019050818103600083015261279a8161275e565b9050919050565b7f446e6141756374696f6e3a204e46542067696120726976656e64696361746f00600082015250565b60006127d7601f83611ddc565b91506127e2826127a1565b602082019050919050565b60006020820190508181036000830152612806816127ca565b9050919050565b7f446e6141756374696f6e3a2074726173666572696d656e746f2066616c6c697460008201527f6f00000000000000000000000000000000000000000000000000000000000000602082015250565b6000612869602183611ddc565b91506128748261280d565b604082019050919050565b600060208201905081810360008301526128988161285c565b9050919050565b60006040820190506128b46000830185611bee565b6128c16020830184611cac565b9392505050565b7f5265656e7472616e637947756172643a207265656e7472616e742063616c6c00600082015250565b60006128fe601f83611ddc565b9150612909826128c8565b602082019050919050565b6000602082019050818103600083015261292d816128f1565b905091905056fea2646970667358221220bedca72462acfde6ec77d86e09c0f24c41e592236b610831bb53cc181578a0f764736f6c634300081c0033","opcodes":"PUSH1 0x80 PUSH1 0x40 MSTORE CALLVALUE DUP1 ISZERO PUSH2 0x10 JUMPI PUSH1 0x0 DUP1 REVERT JUMPDEST POP CALLER PUSH1 0x0 PUSH20 0xFFFFFFFFFFFFFFFFFFFFFFFFFFFFFFFFFFFFFFFF AND DUP2 PUSH20 0xFFFFFFFFFFFFFFFFFFFFFFFFFFFFFFFFFFFFFFFF AND SUB PUSH2 0x84 JUMPI PUSH1 0x0 PUSH1 0x40 MLOAD PUSH32 0x1E4FBDF700000000000000000000000000000000000000000000000000000000 DUP2 MSTORE PUSH1 0x4 ADD PUSH2 0x7B SWAP2 SWAP1 PUSH2 0x1A5 JUMP JUMPDEST PUSH1 0x40 MLOAD DUP1 SWAP2 SUB SWAP1 REVERT JUMPDEST PUSH2 0x93 DUP2 PUSH2 0xA0 PUSH1 0x20 SHL PUSH1 0x20 SHR JUMP JUMPDEST POP PUSH1 0x1 DUP1 DUP2 SWAP1 SSTORE POP PUSH2 0x1C0 JUMP JUMPDEST PUSH1 0x0 DUP1 PUSH1 0x0 SWAP1 SLOAD SWAP1 PUSH2 0x100 EXP SWAP1 DIV PUSH20 0xFFFFFFFFFFFFFFFFFFFFFFFFFFFFFFFFFFFFFFFF AND SWAP1 POP DUP2 PUSH1 0x0 DUP1 PUSH2 0x100 EXP DUP2 SLOAD DUP2 PUSH20 0xFFFFFFFFFFFFFFFFFFFFFFFFFFFFFFFFFFFFFFFF MUL NOT AND SWAP1 DUP4 PUSH20 0xFFFFFFFFFFFFFFFFFFFFFFFFFFFFFFFFFFFFFFFF AND MUL OR SWAP1 SSTORE POP DUP2 PUSH20 0xFFFFFFFFFFFFFFFFFFFFFFFFFFFFFFFFFFFFFFFF AND DUP2 PUSH20 0xFFFFFFFFFFFFFFFFFFFFFFFFFFFFFFFFFFFFFFFF AND PUSH32 0x8BE0079C531659141344CD1FD0A4F28419497F9722A3DAAFE3B4186F6B6457E0 PUSH1 0x40 MLOAD PUSH1 0x40 MLOAD DUP1 SWAP2 SUB SWAP1 LOG3 POP POP JUMP JUMPDEST PUSH1 0x0 PUSH20 0xFFFFFFFFFFFFFFFFFFFFFFFFFFFFFFFFFFFFFFFF DUP3 AND SWAP1 POP SWAP2 SWAP1 POP JUMP JUMPDEST PUSH1 0x0 PUSH2 0x18F DUP3 PUSH2 0x164 JUMP JUMPDEST SWAP1 POP SWAP2 SWAP1 POP JUMP JUMPDEST PUSH2 0x19F DUP2 PUSH2 0x184 JUMP JUMPDEST DUP3 MSTORE POP POP JUMP JUMPDEST PUSH1 0x0 PUSH1 0x20 DUP3 ADD SWAP1 POP PUSH2 0x1BA PUSH1 0x0 DUP4 ADD DUP5 PUSH2 0x196 JUMP JUMPDEST SWAP3 SWAP2 POP POP JUMP JUMPDEST PUSH2 0x296A DUP1 PUSH2 0x1CF PUSH1 0x0 CODECOPY PUSH1 0x0 RETURN INVALID PUSH1 0x80 PUSH1 0x40 MSTORE PUSH1 0x4 CALLDATASIZE LT PUSH2 0xC2 JUMPI PUSH1 0x0 CALLDATALOAD PUSH1 0xE0 SHR DUP1 PUSH4 0x8DA5CB5B GT PUSH2 0x7F JUMPI DUP1 PUSH4 0xEBA1B60B GT PUSH2 0x59 JUMPI DUP1 PUSH4 0xEBA1B60B EQ PUSH2 0x247 JUMPI DUP1 PUSH4 0xF20E5E35 EQ PUSH2 0x284 JUMPI DUP1 PUSH4 0xF2FDE38B EQ PUSH2 0x2C8 JUMPI DUP1 PUSH4 0xFE5C873A EQ PUSH2 0x2F1 JUMPI PUSH2 0xC2 JUMP JUMPDEST DUP1 PUSH4 0x8DA5CB5B EQ PUSH2 0x1D7 JUMPI DUP1 PUSH4 0x9979EF45 EQ PUSH2 0x202 JUMPI DUP1 PUSH4 0xB9A2DE3A EQ PUSH2 0x21E JUMPI PUSH2 0xC2 JUMP JUMPDEST DUP1 PUSH4 0x150B7A02 EQ PUSH2 0xC7 JUMPI DUP1 PUSH4 0x3EF14CC8 EQ PUSH2 0x104 JUMPI DUP1 PUSH4 0x4CC4F50D EQ PUSH2 0x12F JUMPI DUP1 PUSH4 0x5B7BAF64 EQ PUSH2 0x15A JUMPI DUP1 PUSH4 0x61BEB1D7 EQ PUSH2 0x183 JUMPI DUP1 PUSH4 0x715018A6 EQ PUSH2 0x1C0 JUMPI JUMPDEST PUSH1 0x0 DUP1 REVERT JUMPDEST CALLVALUE DUP1 ISZERO PUSH2 0xD3 JUMPI PUSH1 0x0 DUP1 REVERT JUMPDEST POP PUSH2 0xEE PUSH1 0x4 DUP1 CALLDATASIZE SUB DUP2 ADD SWAP1 PUSH2 0xE9 SWAP2 SWAP1 PUSH2 0x1B15 JUMP JUMPDEST PUSH2 0x31A JUMP JUMPDEST PUSH1 0x40 MLOAD PUSH2 0xFB SWAP2 SWAP1 PUSH2 0x1BD3 JUMP JUMPDEST PUSH1 0x40 MLOAD DUP1 SWAP2 SUB SWAP1 RETURN JUMPDEST CALLVALUE DUP1 ISZERO PUSH2 0x110 JUMPI PUSH1 0x0 DUP1 REVERT JUMPDEST POP PUSH2 0x119 PUSH2 0x32E JUMP JUMPDEST PUSH1 0x40 MLOAD PUSH2 0x126 SWAP2 SWAP1 PUSH2 0x1BFD JUMP JUMPDEST PUSH1 0x40 MLOAD DUP1 SWAP2 SUB SWAP1 RETURN JUMPDEST CALLVALUE DUP1 ISZERO PUSH2 0x13B JUMPI PUSH1 0x0 DUP1 REVERT JUMPDEST POP PUSH2 0x144 PUSH2 0x338 JUMP JUMPDEST PUSH1 0x40 MLOAD PUSH2 0x151 SWAP2 SWAP1 PUSH2 0x1BFD JUMP JUMPDEST PUSH1 0x40 MLOAD DUP1 SWAP2 SUB SWAP1 RETURN JUMPDEST CALLVALUE DUP1 ISZERO PUSH2 0x166 JUMPI PUSH1 0x0 DUP1 REVERT JUMPDEST POP PUSH2 0x181 PUSH1 0x4 DUP1 CALLDATASIZE SUB DUP2 ADD SWAP1 PUSH2 0x17C SWAP2 SWAP1 PUSH2 0x1C18 JUMP JUMPDEST PUSH2 0x33D JUMP JUMPDEST STOP JUMPDEST CALLVALUE DUP1 ISZERO PUSH2 0x18F JUMPI PUSH1 0x0 DUP1 REVERT JUMPDEST POP PUSH2 0x1AA PUSH1 0x4 DUP1 CALLDATASIZE SUB DUP2 ADD SWAP1 PUSH2 0x1A5 SWAP2 SWAP1 PUSH2 0x1C45 JUMP JUMPDEST PUSH2 0x68B JUMP JUMPDEST PUSH1 0x40 MLOAD PUSH2 0x1B7 SWAP2 SWAP1 PUSH2 0x1BFD JUMP JUMPDEST PUSH1 0x40 MLOAD DUP1 SWAP2 SUB SWAP1 RETURN JUMPDEST CALLVALUE DUP1 ISZERO PUSH2 0x1CC JUMPI PUSH1 0x0 DUP1 REVERT JUMPDEST POP PUSH2 0x1D5 PUSH2 0xAB1 JUMP JUMPDEST STOP JUMPDEST CALLVALUE DUP1 ISZERO PUSH2 0x1E3 JUMPI PUSH1 0x0 DUP1 REVERT JUMPDEST POP PUSH2 0x1EC PUSH2 0xAC5 JUMP JUMPDEST PUSH1 0x40 MLOAD PUSH2 0x1F9 SWAP2 SWAP1 PUSH2 0x1CBB JUMP JUMPDEST PUSH1 0x40 MLOAD DUP1 SWAP2 SUB SWAP1 RETURN JUMPDEST PUSH2 0x21C PUSH1 0x4 DUP1 CALLDATASIZE SUB DUP2 ADD SWAP1 PUSH2 0x217 SWAP2 SWAP1 PUSH2 0x1C18 JUMP JUMPDEST PUSH2 0xAEE JUMP JUMPDEST STOP JUMPDEST CALLVALUE DUP1 ISZERO PUSH2 0x22A JUMPI PUSH1 0x0 DUP1 REVERT JUMPDEST POP PUSH2 0x245 PUSH1 0x4 DUP1 CALLDATASIZE SUB DUP2 ADD SWAP1 PUSH2 0x240 SWAP2 SWAP1 PUSH2 0x1C18 JUMP JUMPDEST PUSH2 0xE77 JUMP JUMPDEST STOP JUMPDEST CALLVALUE DUP1 ISZERO PUSH2 0x253 JUMPI PUSH1 0x0 DUP1 REVERT JUMPDEST POP PUSH2 0x26E PUSH1 0x4 DUP1 CALLDATASIZE SUB DUP2 ADD SWAP1 PUSH2 0x269 SWAP2 SWAP1 PUSH2 0x1CD6 JUMP JUMPDEST PUSH2 0x11FB JUMP JUMPDEST PUSH1 0x40 MLOAD PUSH2 0x27B SWAP2 SWAP1 PUSH2 0x1BFD JUMP JUMPDEST PUSH1 0x40 MLOAD DUP1 SWAP2 SUB SWAP1 RETURN JUMPDEST CALLVALUE DUP1 ISZERO PUSH2 0x290 JUMPI PUSH1 0x0 DUP1 REVERT JUMPDEST POP PUSH2 0x2AB PUSH1 0x4 DUP1 CALLDATASIZE SUB DUP2 ADD SWAP1 PUSH2 0x2A6 SWAP2 SWAP1 PUSH2 0x1C18 JUMP JUMPDEST PUSH2 0x12A4 JUMP JUMPDEST PUSH1 0x40 MLOAD PUSH2 0x2BF SWAP9 SWAP8 SWAP7 SWAP6 SWAP5 SWAP4 SWAP3 SWAP2 SWAP1 PUSH2 0x1D31 JUMP JUMPDEST PUSH1 0x40 MLOAD DUP1 SWAP2 SUB SWAP1 RETURN JUMPDEST CALLVALUE DUP1 ISZERO PUSH2 0x2D4 JUMPI PUSH1 0x0 DUP1 REVERT JUMPDEST POP PUSH2 0x2EF PUSH1 0x4 DUP1 CALLDATASIZE SUB DUP2 ADD SWAP1 PUSH2 0x2EA SWAP2 SWAP1 PUSH2 0x1DAF JUMP JUMPDEST PUSH2 0x13AB JUMP JUMPDEST STOP JUMPDEST CALLVALUE DUP1 ISZERO PUSH2 0x2FD JUMPI PUSH1 0x0 DUP1 REVERT JUMPDEST POP PUSH2 0x318 PUSH1 0x4 DUP1 CALLDATASIZE SUB DUP2 ADD SWAP1 PUSH2 0x313 SWAP2 SWAP1 PUSH2 0x1C18 JUMP JUMPDEST PUSH2 0x1431 JUMP JUMPDEST STOP JUMPDEST PUSH1 0x0 PUSH4 0x150B7A02 PUSH1 0xE0 SHL SWAP1 POP SWAP5 SWAP4 POP POP POP POP JUMP JUMPDEST PUSH1 0x0 PUSH1 0x2 SLOAD SWAP1 POP SWAP1 JUMP JUMPDEST PUSH1 0x64 DUP2 JUMP JUMPDEST PUSH2 0x345 PUSH2 0x177C JUMP JUMPDEST PUSH1 0x0 PUSH1 0x3 PUSH1 0x0 DUP4 DUP2 MSTORE PUSH1 0x20 ADD SWAP1 DUP2 MSTORE PUSH1 0x20 ADD PUSH1 0x0 KECCAK256 SWAP1 POP DUP2 DUP2 PUSH1 0x0 ADD SLOAD EQ PUSH2 0x3A2 JUMPI PUSH1 0x40 MLOAD PUSH32 0x8C379A000000000000000000000000000000000000000000000000000000000 DUP2 MSTORE PUSH1 0x4 ADD PUSH2 0x399 SWAP1 PUSH2 0x1E39 JUMP JUMPDEST PUSH1 0x40 MLOAD DUP1 SWAP2 SUB SWAP1 REVERT JUMPDEST DUP1 PUSH1 0x7 ADD PUSH1 0x0 SWAP1 SLOAD SWAP1 PUSH2 0x100 EXP SWAP1 DIV PUSH1 0xFF AND PUSH2 0x3F3 JUMPI PUSH1 0x40 MLOAD PUSH32 0x8C379A000000000000000000000000000000000000000000000000000000000 DUP2 MSTORE PUSH1 0x4 ADD PUSH2 0x3EA SWAP1 PUSH2 0x1EA5 JUMP JUMPDEST PUSH1 0x40 MLOAD DUP1 SWAP2 SUB SWAP1 REVERT JUMPDEST DUP1 PUSH1 0x5 ADD PUSH1 0x0 SWAP1 SLOAD SWAP1 PUSH2 0x100 EXP SWAP1 DIV PUSH20 0xFFFFFFFFFFFFFFFFFFFFFFFFFFFFFFFFFFFFFFFF AND PUSH20 0xFFFFFFFFFFFFFFFFFFFFFFFFFFFFFFFFFFFFFFFF AND CALLER PUSH20 0xFFFFFFFFFFFFFFFFFFFFFFFFFFFFFFFFFFFFFFFF AND SUB PUSH2 0x485 JUMPI PUSH1 0x40 MLOAD PUSH32 0x8C379A000000000000000000000000000000000000000000000000000000000 DUP2 MSTORE PUSH1 0x4 ADD PUSH2 0x47C SWAP1 PUSH2 0x1F37 JUMP JUMPDEST PUSH1 0x40 MLOAD DUP1 SWAP2 SUB SWAP1 REVERT JUMPDEST PUSH1 0x0 DUP2 PUSH1 0x8 ADD PUSH1 0x0 CALLER PUSH20 0xFFFFFFFFFFFFFFFFFFFFFFFFFFFFFFFFFFFFFFFF AND PUSH20 0xFFFFFFFFFFFFFFFFFFFFFFFFFFFFFFFFFFFFFFFF AND DUP2 MSTORE PUSH1 0x20 ADD SWAP1 DUP2 MSTORE PUSH1 0x20 ADD PUSH1 0x0 KECCAK256 SLOAD GT PUSH2 0x509 JUMPI PUSH1 0x40 MLOAD PUSH32 0x8C379A000000000000000000000000000000000000000000000000000000000 DUP2 MSTORE PUSH1 0x4 ADD PUSH2 0x500 SWAP1 PUSH2 0x1FC9 JUMP JUMPDEST PUSH1 0x40 MLOAD DUP1 SWAP2 SUB SWAP1 REVERT JUMPDEST PUSH1 0x0 DUP2 PUSH1 0x8 ADD PUSH1 0x0 CALLER PUSH20 0xFFFFFFFFFFFFFFFFFFFFFFFFFFFFFFFFFFFFFFFF AND PUSH20 0xFFFFFFFFFFFFFFFFFFFFFFFFFFFFFFFFFFFFFFFF AND DUP2 MSTORE PUSH1 0x20 ADD SWAP1 DUP2 MSTORE PUSH1 0x20 ADD PUSH1 0x0 KECCAK256 SLOAD SWAP1 POP PUSH1 0x0 DUP3 PUSH1 0x8 ADD PUSH1 0x0 CALLER PUSH20 0xFFFFFFFFFFFFFFFFFFFFFFFFFFFFFFFFFFFFFFFF AND PUSH20 0xFFFFFFFFFFFFFFFFFFFFFFFFFFFFFFFFFFFFFFFF AND DUP2 MSTORE PUSH1 0x20 ADD SWAP1 DUP2 MSTORE PUSH1 0x20 ADD PUSH1 0x0 KECCAK256 DUP2 SWAP1 SSTORE POP PUSH1 0x0 CALLER PUSH20 0xFFFFFFFFFFFFFFFFFFFFFFFFFFFFFFFFFFFFFFFF AND DUP3 PUSH1 0x40 MLOAD PUSH2 0x5BC SWAP1 PUSH2 0x201A JUMP JUMPDEST PUSH1 0x0 PUSH1 0x40 MLOAD DUP1 DUP4 SUB DUP2 DUP6 DUP8 GAS CALL SWAP3 POP POP POP RETURNDATASIZE DUP1 PUSH1 0x0 DUP2 EQ PUSH2 0x5F9 JUMPI PUSH1 0x40 MLOAD SWAP2 POP PUSH1 0x1F NOT PUSH1 0x3F RETURNDATASIZE ADD AND DUP3 ADD PUSH1 0x40 MSTORE RETURNDATASIZE DUP3 MSTORE RETURNDATASIZE PUSH1 0x0 PUSH1 0x20 DUP5 ADD RETURNDATACOPY PUSH2 0x5FE JUMP JUMPDEST PUSH1 0x60 SWAP2 POP JUMPDEST POP POP SWAP1 POP DUP1 PUSH2 0x642 JUMPI PUSH1 0x40 MLOAD PUSH32 0x8C379A000000000000000000000000000000000000000000000000000000000 DUP2 MSTORE PUSH1 0x4 ADD PUSH2 0x639 SWAP1 PUSH2 0x207B JUMP JUMPDEST PUSH1 0x40 MLOAD DUP1 SWAP2 SUB SWAP1 REVERT JUMPDEST PUSH32 0xA59312996DC68B7F0224B341FED75D5AFEB3BB20624107D37942D14F59428156 DUP5 CALLER DUP5 PUSH1 0x40 MLOAD PUSH2 0x675 SWAP4 SWAP3 SWAP2 SWAP1 PUSH2 0x209B JUMP JUMPDEST PUSH1 0x40 MLOAD DUP1 SWAP2 SUB SWAP1 LOG1 POP POP POP PUSH2 0x688 PUSH2 0x17CB JUMP JUMPDEST POP JUMP JUMPDEST PUSH1 0x0 PUSH2 0x695 PUSH2 0x17D4 JUMP JUMPDEST PUSH2 0x69D PUSH2 0x177C JUMP JUMPDEST PUSH1 0x0 DUP3 GT PUSH2 0x6E0 JUMPI PUSH1 0x40 MLOAD PUSH32 0x8C379A000000000000000000000000000000000000000000000000000000000 DUP2 MSTORE PUSH1 0x4 ADD PUSH2 0x6D7 SWAP1 PUSH2 0x2144 JUMP JUMPDEST PUSH1 0x40 MLOAD DUP1 SWAP2 SUB SWAP1 REVERT JUMPDEST PUSH1 0x0 DUP4 GT PUSH2 0x723 JUMPI PUSH1 0x40 MLOAD PUSH32 0x8C379A000000000000000000000000000000000000000000000000000000000 DUP2 MSTORE PUSH1 0x4 ADD PUSH2 0x71A SWAP1 PUSH2 0x21D6 JUMP JUMPDEST PUSH1 0x40 MLOAD DUP1 SWAP2 SUB SWAP1 REVERT JUMPDEST PUSH1 0x0 DUP6 PUSH20 0xFFFFFFFFFFFFFFFFFFFFFFFFFFFFFFFFFFFFFFFF AND PUSH4 0x6352211E DUP7 PUSH1 0x40 MLOAD DUP3 PUSH4 0xFFFFFFFF AND PUSH1 0xE0 SHL DUP2 MSTORE PUSH1 0x4 ADD PUSH2 0x75E SWAP2 SWAP1 PUSH2 0x1BFD JUMP JUMPDEST PUSH1 0x20 PUSH1 0x40 MLOAD DUP1 DUP4 SUB DUP2 DUP7 GAS STATICCALL ISZERO DUP1 ISZERO PUSH2 0x77B JUMPI RETURNDATASIZE PUSH1 0x0 DUP1 RETURNDATACOPY RETURNDATASIZE PUSH1 0x0 REVERT JUMPDEST POP POP POP POP PUSH1 0x40 MLOAD RETURNDATASIZE PUSH1 0x1F NOT PUSH1 0x1F DUP3 ADD AND DUP3 ADD DUP1 PUSH1 0x40 MSTORE POP DUP2 ADD SWAP1 PUSH2 0x79F SWAP2 SWAP1 PUSH2 0x220B JUMP JUMPDEST SWAP1 POP ADDRESS PUSH20 0xFFFFFFFFFFFFFFFFFFFFFFFFFFFFFFFFFFFFFFFF AND DUP7 PUSH20 0xFFFFFFFFFFFFFFFFFFFFFFFFFFFFFFFFFFFFFFFF AND PUSH4 0x81812FC DUP8 PUSH1 0x40 MLOAD DUP3 PUSH4 0xFFFFFFFF AND PUSH1 0xE0 SHL DUP2 MSTORE PUSH1 0x4 ADD PUSH2 0x7F1 SWAP2 SWAP1 PUSH2 0x1BFD JUMP JUMPDEST PUSH1 0x20 PUSH1 0x40 MLOAD DUP1 DUP4 SUB DUP2 DUP7 GAS STATICCALL ISZERO DUP1 ISZERO PUSH2 0x80E JUMPI RETURNDATASIZE PUSH1 0x0 DUP1 RETURNDATACOPY RETURNDATASIZE PUSH1 0x0 REVERT JUMPDEST POP POP POP POP PUSH1 0x40 MLOAD RETURNDATASIZE PUSH1 0x1F NOT PUSH1 0x1F DUP3 ADD AND DUP3 ADD DUP1 PUSH1 0x40 MSTORE POP DUP2 ADD SWAP1 PUSH2 0x832 SWAP2 SWAP1 PUSH2 0x220B JUMP JUMPDEST PUSH20 0xFFFFFFFFFFFFFFFFFFFFFFFFFFFFFFFFFFFFFFFF AND EQ DUP1 PUSH2 0x8CC JUMPI POP DUP6 PUSH20 0xFFFFFFFFFFFFFFFFFFFFFFFFFFFFFFFFFFFFFFFF AND PUSH4 0xE985E9C5 DUP3 ADDRESS PUSH1 0x40 MLOAD DUP4 PUSH4 0xFFFFFFFF AND PUSH1 0xE0 SHL DUP2 MSTORE PUSH1 0x4 ADD PUSH2 0x88A SWAP3 SWAP2 SWAP1 PUSH2 0x2238 JUMP JUMPDEST PUSH1 0x20 PUSH1 0x40 MLOAD DUP1 DUP4 SUB DUP2 DUP7 GAS STATICCALL ISZERO DUP1 ISZERO PUSH2 0x8A7 JUMPI RETURNDATASIZE PUSH1 0x0 DUP1 RETURNDATACOPY RETURNDATASIZE PUSH1 0x0 REVERT JUMPDEST POP POP POP POP PUSH1 0x40 MLOAD RETURNDATASIZE PUSH1 0x1F NOT PUSH1 0x1F DUP3 ADD AND DUP3 ADD DUP1 PUSH1 0x40 MSTORE POP DUP2 ADD SWAP1 PUSH2 0x8CB SWAP2 SWAP1 PUSH2 0x228D JUMP JUMPDEST JUMPDEST PUSH2 0x90B JUMPI PUSH1 0x40 MLOAD PUSH32 0x8C379A000000000000000000000000000000000000000000000000000000000 DUP2 MSTORE PUSH1 0x4 ADD PUSH2 0x902 SWAP1 PUSH2 0x232C JUMP JUMPDEST PUSH1 0x40 MLOAD DUP1 SWAP2 SUB SWAP1 REVERT JUMPDEST DUP6 PUSH20 0xFFFFFFFFFFFFFFFFFFFFFFFFFFFFFFFFFFFFFFFF AND PUSH4 0x42842E0E DUP3 ADDRESS DUP9 PUSH1 0x40 MLOAD DUP5 PUSH4 0xFFFFFFFF AND PUSH1 0xE0 SHL DUP2 MSTORE PUSH1 0x4 ADD PUSH2 0x948 SWAP4 SWAP3 SWAP2 SWAP1 PUSH2 0x234C JUMP JUMPDEST PUSH1 0x0 PUSH1 0x40 MLOAD DUP1 DUP4 SUB DUP2 PUSH1 0x0 DUP8 DUP1 EXTCODESIZE ISZERO DUP1 ISZERO PUSH2 0x962 JUMPI PUSH1 0x0 DUP1 REVERT JUMPDEST POP GAS CALL ISZERO DUP1 ISZERO PUSH2 0x976 JUMPI RETURNDATASIZE PUSH1 0x0 DUP1 RETURNDATACOPY RETURNDATASIZE PUSH1 0x0 REVERT JUMPDEST POP POP POP POP PUSH1 0x0 PUSH1 0x2 PUSH1 0x0 DUP2 SLOAD DUP1 SWAP3 SWAP2 SWAP1 PUSH2 0x98F SWAP1 PUSH2 0x23B2 JUMP JUMPDEST SWAP2 SWAP1 POP SSTORE SWAP1 POP PUSH1 0x0 PUSH1 0x3 PUSH1 0x0 DUP4 DUP2 MSTORE PUSH1 0x20 ADD SWAP1 DUP2 MSTORE PUSH1 0x20 ADD PUSH1 0x0 KECCAK256 SWAP1 POP DUP2 DUP2 PUSH1 0x0 ADD DUP2 SWAP1 SSTORE POP DUP8 DUP2 PUSH1 0x1 ADD PUSH1 0x0 PUSH2 0x100 EXP DUP2 SLOAD DUP2 PUSH20 0xFFFFFFFFFFFFFFFFFFFFFFFFFFFFFFFFFFFFFFFF MUL NOT AND SWAP1 DUP4 PUSH20 0xFFFFFFFFFFFFFFFFFFFFFFFFFFFFFFFFFFFFFFFF AND MUL OR SWAP1 SSTORE POP DUP7 DUP2 PUSH1 0x2 ADD DUP2 SWAP1 SSTORE POP DUP6 DUP2 PUSH1 0x3 ADD DUP2 SWAP1 SSTORE POP DUP5 TIMESTAMP PUSH2 0xA16 SWAP2 SWAP1 PUSH2 0x23FA JUMP JUMPDEST DUP2 PUSH1 0x4 ADD DUP2 SWAP1 SSTORE POP PUSH1 0x0 DUP2 PUSH1 0x7 ADD PUSH1 0x0 PUSH2 0x100 EXP DUP2 SLOAD DUP2 PUSH1 0xFF MUL NOT AND SWAP1 DUP4 ISZERO ISZERO MUL OR SWAP1 SSTORE POP PUSH1 0x0 DUP2 PUSH1 0x7 ADD PUSH1 0x1 PUSH2 0x100 EXP DUP2 SLOAD DUP2 PUSH1 0xFF MUL NOT AND SWAP1 DUP4 ISZERO ISZERO MUL OR SWAP1 SSTORE POP PUSH32 0x5F9BF100DD0CA9F37F08E0526690286D357ED7D6C5A4AC29730440B6E2DFD62 DUP3 DUP10 DUP10 DUP10 DUP6 PUSH1 0x4 ADD SLOAD PUSH1 0x40 MLOAD PUSH2 0xA93 SWAP6 SWAP5 SWAP4 SWAP3 SWAP2 SWAP1 PUSH2 0x242E JUMP JUMPDEST PUSH1 0x40 MLOAD DUP1 SWAP2 SUB SWAP1 LOG1 DUP2 SWAP4 POP POP POP POP PUSH2 0xAA9 PUSH2 0x17CB JUMP JUMPDEST SWAP5 SWAP4 POP POP POP POP JUMP JUMPDEST PUSH2 0xAB9 PUSH2 0x17D4 JUMP JUMPDEST PUSH2 0xAC3 PUSH1 0x0 PUSH2 0x185B JUMP JUMPDEST JUMP JUMPDEST PUSH1 0x0 DUP1 PUSH1 0x0 SWAP1 SLOAD SWAP1 PUSH2 0x100 EXP SWAP1 DIV PUSH20 0xFFFFFFFFFFFFFFFFFFFFFFFFFFFFFFFFFFFFFFFF AND SWAP1 POP SWAP1 JUMP JUMPDEST PUSH2 0xAF6 PUSH2 0x177C JUMP JUMPDEST PUSH1 0x0 PUSH1 0x3 PUSH1 0x0 DUP4 DUP2 MSTORE PUSH1 0x20 ADD SWAP1 DUP2 MSTORE PUSH1 0x20 ADD PUSH1 0x0 KECCAK256 SWAP1 POP DUP2 DUP2 PUSH1 0x0 ADD SLOAD EQ PUSH2 0xB53 JUMPI PUSH1 0x40 MLOAD PUSH32 0x8C379A000000000000000000000000000000000000000000000000000000000 DUP2 MSTORE PUSH1 0x4 ADD PUSH2 0xB4A SWAP1 PUSH2 0x1E39 JUMP JUMPDEST PUSH1 0x40 MLOAD DUP1 SWAP2 SUB SWAP1 REVERT JUMPDEST DUP1 PUSH1 0x7 ADD PUSH1 0x0 SWAP1 SLOAD SWAP1 PUSH2 0x100 EXP SWAP1 DIV PUSH1 0xFF AND ISZERO PUSH2 0xBA5 JUMPI PUSH1 0x40 MLOAD PUSH32 0x8C379A000000000000000000000000000000000000000000000000000000000 DUP2 MSTORE PUSH1 0x4 ADD PUSH2 0xB9C SWAP1 PUSH2 0x24CD JUMP JUMPDEST PUSH1 0x40 MLOAD DUP1 SWAP2 SUB SWAP1 REVERT JUMPDEST DUP1 PUSH1 0x4 ADD SLOAD TIMESTAMP LT PUSH2 0xBEB JUMPI PUSH1 0x40 MLOAD PUSH32 0x8C379A000000000000000000000000000000000000000000000000000000000 DUP2 MSTORE PUSH1 0x4 ADD PUSH2 0xBE2 SWAP1 PUSH2 0x2539 JUMP JUMPDEST PUSH1 0x40 MLOAD DUP1 SWAP2 SUB SWAP1 REVERT JUMPDEST DUP1 PUSH1 0x6 ADD SLOAD CALLVALUE GT PUSH2 0xC31 JUMPI PUSH1 0x40 MLOAD PUSH32 0x8C379A000000000000000000000000000000000000000000000000000000000 DUP2 MSTORE PUSH1 0x4 ADD PUSH2 0xC28 SWAP1 PUSH2 0x25CB JUMP JUMPDEST PUSH1 0x40 MLOAD DUP1 SWAP2 SUB SWAP1 REVERT JUMPDEST PUSH1 0x0 DUP2 PUSH1 0x5 ADD PUSH1 0x0 SWAP1 SLOAD SWAP1 PUSH2 0x100 EXP SWAP1 DIV PUSH20 0xFFFFFFFFFFFFFFFFFFFFFFFFFFFFFFFFFFFFFFFF AND SWAP1 POP PUSH1 0x0 DUP3 PUSH1 0x6 ADD SLOAD SWAP1 POP PUSH1 0x0 PUSH20 0xFFFFFFFFFFFFFFFFFFFFFFFFFFFFFFFFFFFFFFFF AND DUP3 PUSH20 0xFFFFFFFFFFFFFFFFFFFFFFFFFFFFFFFFFFFFFFFF AND EQ ISZERO DUP1 ISZERO PUSH2 0xCA0 JUMPI POP PUSH1 0x0 DUP2 GT JUMPDEST ISZERO PUSH2 0xD9C JUMPI PUSH1 0x0 DUP4 PUSH1 0x8 ADD PUSH1 0x0 DUP5 PUSH20 0xFFFFFFFFFFFFFFFFFFFFFFFFFFFFFFFFFFFFFFFF AND PUSH20 0xFFFFFFFFFFFFFFFFFFFFFFFFFFFFFFFFFFFFFFFF AND DUP2 MSTORE PUSH1 0x20 ADD SWAP1 DUP2 MSTORE PUSH1 0x20 ADD PUSH1 0x0 KECCAK256 DUP2 SWAP1 SSTORE POP PUSH1 0x0 DUP3 PUSH20 0xFFFFFFFFFFFFFFFFFFFFFFFFFFFFFFFFFFFFFFFF AND DUP3 PUSH1 0x40 MLOAD PUSH2 0xD12 SWAP1 PUSH2 0x201A JUMP JUMPDEST PUSH1 0x0 PUSH1 0x40 MLOAD DUP1 DUP4 SUB DUP2 DUP6 DUP8 GAS CALL SWAP3 POP POP POP RETURNDATASIZE DUP1 PUSH1 0x0 DUP2 EQ PUSH2 0xD4F JUMPI PUSH1 0x40 MLOAD SWAP2 POP PUSH1 0x1F NOT PUSH1 0x3F RETURNDATASIZE ADD AND DUP3 ADD PUSH1 0x40 MSTORE RETURNDATASIZE DUP3 MSTORE RETURNDATASIZE PUSH1 0x0 PUSH1 0x20 DUP5 ADD RETURNDATACOPY PUSH2 0xD54 JUMP JUMPDEST PUSH1 0x60 SWAP2 POP JUMPDEST POP POP SWAP1 POP DUP1 ISZERO PUSH2 0xD9A JUMPI PUSH32 0xA59312996DC68B7F0224B341FED75D5AFEB3BB20624107D37942D14F59428156 DUP6 DUP5 DUP5 PUSH1 0x40 MLOAD PUSH2 0xD91 SWAP4 SWAP3 SWAP2 SWAP1 PUSH2 0x209B JUMP JUMPDEST PUSH1 0x40 MLOAD DUP1 SWAP2 SUB SWAP1 LOG1 JUMPDEST POP JUMPDEST CALLVALUE DUP4 PUSH1 0x8 ADD PUSH1 0x0 CALLER PUSH20 0xFFFFFFFFFFFFFFFFFFFFFFFFFFFFFFFFFFFFFFFF AND PUSH20 0xFFFFFFFFFFFFFFFFFFFFFFFFFFFFFFFFFFFFFFFF AND DUP2 MSTORE PUSH1 0x20 ADD SWAP1 DUP2 MSTORE PUSH1 0x20 ADD PUSH1 0x0 KECCAK256 DUP2 SWAP1 SSTORE POP CALLVALUE DUP4 PUSH1 0x6 ADD DUP2 SWAP1 SSTORE POP CALLER DUP4 PUSH1 0x5 ADD PUSH1 0x0 PUSH2 0x100 EXP DUP2 SLOAD DUP2 PUSH20 0xFFFFFFFFFFFFFFFFFFFFFFFFFFFFFFFFFFFFFFFF MUL NOT AND SWAP1 DUP4 PUSH20 0xFFFFFFFFFFFFFFFFFFFFFFFFFFFFFFFFFFFFFFFF AND MUL OR SWAP1 SSTORE POP PUSH32 0xE54EFF26401BF69B81B26F60BD85EF47F5D85275C1D268D84F68D6897431C47 DUP5 CALLER CALLVALUE PUSH1 0x40 MLOAD PUSH2 0xE61 SWAP4 SWAP3 SWAP2 SWAP1 PUSH2 0x209B JUMP JUMPDEST PUSH1 0x40 MLOAD DUP1 SWAP2 SUB SWAP1 LOG1 POP POP POP PUSH2 0xE74 PUSH2 0x17CB JUMP JUMPDEST POP JUMP JUMPDEST PUSH2 0xE7F PUSH2 0x17D4 JUMP JUMPDEST PUSH2 0xE87 PUSH2 0x177C JUMP JUMPDEST PUSH1 0x0 PUSH1 0x3 PUSH1 0x0 DUP4 DUP2 MSTORE PUSH1 0x20 ADD SWAP1 DUP2 MSTORE PUSH1 0x20 ADD PUSH1 0x0 KECCAK256 SWAP1 POP DUP2 DUP2 PUSH1 0x0 ADD SLOAD EQ PUSH2 0xEE4 JUMPI PUSH1 0x40 MLOAD PUSH32 0x8C379A000000000000000000000000000000000000000000000000000000000 DUP2 MSTORE PUSH1 0x4 ADD PUSH2 0xEDB SWAP1 PUSH2 0x1E39 JUMP JUMPDEST PUSH1 0x40 MLOAD DUP1 SWAP2 SUB SWAP1 REVERT JUMPDEST DUP1 PUSH1 0x7 ADD PUSH1 0x0 SWAP1 SLOAD SWAP1 PUSH2 0x100 EXP SWAP1 DIV PUSH1 0xFF AND ISZERO PUSH2 0xF36 JUMPI PUSH1 0x40 MLOAD PUSH32 0x8C379A000000000000000000000000000000000000000000000000000000000 DUP2 MSTORE PUSH1 0x4 ADD PUSH2 0xF2D SWAP1 PUSH2 0x24CD JUMP JUMPDEST PUSH1 0x40 MLOAD DUP1 SWAP2 SUB SWAP1 REVERT JUMPDEST DUP1 PUSH1 0x4 ADD SLOAD TIMESTAMP LT ISZERO PUSH2 0xF7D JUMPI PUSH1 0x40 MLOAD PUSH32 0x8C379A000000000000000000000000000000000000000000000000000000000 DUP2 MSTORE PUSH1 0x4 ADD PUSH2 0xF74 SWAP1 PUSH2 0x265D JUMP JUMPDEST PUSH1 0x40 MLOAD DUP1 SWAP2 SUB SWAP1 REVERT JUMPDEST PUSH1 0x1 DUP2 PUSH1 0x7 ADD PUSH1 0x0 PUSH2 0x100 EXP DUP2 SLOAD DUP2 PUSH1 0xFF MUL NOT AND SWAP1 DUP4 ISZERO ISZERO MUL OR SWAP1 SSTORE POP PUSH1 0x0 DUP2 PUSH1 0x5 ADD PUSH1 0x0 SWAP1 SLOAD SWAP1 PUSH2 0x100 EXP SWAP1 DIV PUSH20 0xFFFFFFFFFFFFFFFFFFFFFFFFFFFFFFFFFFFFFFFF AND SWAP1 POP PUSH1 0x0 DUP3 PUSH1 0x6 ADD SLOAD SWAP1 POP PUSH32 0xD2AA34A4FDBBC6DFF6A3E56F46E0F3AE2A31D7785FF3487AA5C95C642ACEA501 DUP5 DUP4 DUP4 PUSH1 0x40 MLOAD PUSH2 0xFFF SWAP4 SWAP3 SWAP2 SWAP1 PUSH2 0x209B JUMP JUMPDEST PUSH1 0x40 MLOAD DUP1 SWAP2 SUB SWAP1 LOG1 PUSH1 0x0 PUSH20 0xFFFFFFFFFFFFFFFFFFFFFFFFFFFFFFFFFFFFFFFF AND DUP3 PUSH20 0xFFFFFFFFFFFFFFFFFFFFFFFFFFFFFFFFFFFFFFFF AND EQ ISZERO DUP1 ISZERO PUSH2 0x1044 JUMPI POP PUSH1 0x0 DUP2 GT JUMPDEST ISZERO PUSH2 0x11ED JUMPI PUSH1 0x1 DUP4 PUSH1 0x7 ADD PUSH1 0x1 PUSH2 0x100 EXP DUP2 SLOAD DUP2 PUSH1 0xFF MUL NOT AND SWAP1 DUP4 ISZERO ISZERO MUL OR SWAP1 SSTORE POP DUP3 PUSH1 0x1 ADD PUSH1 0x0 SWAP1 SLOAD SWAP1 PUSH2 0x100 EXP SWAP1 DIV PUSH20 0xFFFFFFFFFFFFFFFFFFFFFFFFFFFFFFFFFFFFFFFF AND PUSH20 0xFFFFFFFFFFFFFFFFFFFFFFFFFFFFFFFFFFFFFFFF AND PUSH4 0x42842E0E ADDRESS DUP5 DUP7 PUSH1 0x2 ADD SLOAD PUSH1 0x40 MLOAD DUP5 PUSH4 0xFFFFFFFF AND PUSH1 0xE0 SHL DUP2 MSTORE PUSH1 0x4 ADD PUSH2 0x10CB SWAP4 SWAP3 SWAP2 SWAP1 PUSH2 0x234C JUMP JUMPDEST PUSH1 0x0 PUSH1 0x40 MLOAD DUP1 DUP4 SUB DUP2 PUSH1 0x0 DUP8 DUP1 EXTCODESIZE ISZERO DUP1 ISZERO PUSH2 0x10E5 JUMPI PUSH1 0x0 DUP1 REVERT JUMPDEST POP GAS CALL ISZERO DUP1 ISZERO PUSH2 0x10F9 JUMPI RETURNDATASIZE PUSH1 0x0 DUP1 RETURNDATACOPY RETURNDATASIZE PUSH1 0x0 REVERT JUMPDEST POP POP POP POP PUSH1 0x0 PUSH2 0x1107 PUSH2 0xAC5 JUMP JUMPDEST PUSH20 0xFFFFFFFFFFFFFFFFFFFFFFFFFFFFFFFFFFFFFFFF AND DUP3 PUSH1 0x40 MLOAD PUSH2 0x112A SWAP1 PUSH2 0x201A JUMP JUMPDEST PUSH1 0x0 PUSH1 0x40 MLOAD DUP1 DUP4 SUB DUP2 DUP6 DUP8 GAS CALL SWAP3 POP POP POP RETURNDATASIZE DUP1 PUSH1 0x0 DUP2 EQ PUSH2 0x1167 JUMPI PUSH1 0x40 MLOAD SWAP2 POP PUSH1 0x1F NOT PUSH1 0x3F RETURNDATASIZE ADD AND DUP3 ADD PUSH1 0x40 MSTORE RETURNDATASIZE DUP3 MSTORE RETURNDATASIZE PUSH1 0x0 PUSH1 0x20 DUP5 ADD RETURNDATACOPY PUSH2 0x116C JUMP JUMPDEST PUSH1 0x60 SWAP2 POP JUMPDEST POP POP SWAP1 POP DUP1 PUSH2 0x11B0 JUMPI PUSH1 0x40 MLOAD PUSH32 0x8C379A000000000000000000000000000000000000000000000000000000000 DUP2 MSTORE PUSH1 0x4 ADD PUSH2 0x11A7 SWAP1 PUSH2 0x26EF JUMP JUMPDEST PUSH1 0x40 MLOAD DUP1 SWAP2 SUB SWAP1 REVERT JUMPDEST PUSH32 0xC9F72B276A388619C6D185D146697036241880C36654B1A3FFDAD07C24038D99 DUP6 DUP5 DUP5 PUSH1 0x40 MLOAD PUSH2 0x11E3 SWAP4 SWAP3 SWAP2 SWAP1 PUSH2 0x209B JUMP JUMPDEST PUSH1 0x40 MLOAD DUP1 SWAP2 SUB SWAP1 LOG1 POP JUMPDEST POP POP POP PUSH2 0x11F8 PUSH2 0x17CB JUMP JUMPDEST POP JUMP JUMPDEST PUSH1 0x0 DUP1 PUSH1 0x3 PUSH1 0x0 DUP6 DUP2 MSTORE PUSH1 0x20 ADD SWAP1 DUP2 MSTORE PUSH1 0x20 ADD PUSH1 0x0 KECCAK256 SWAP1 POP DUP4 DUP2 PUSH1 0x0 ADD SLOAD EQ PUSH2 0x1259 JUMPI PUSH1 0x40 MLOAD PUSH32 0x8C379A000000000000000000000000000000000000000000000000000000000 DUP2 MSTORE PUSH1 0x4 ADD PUSH2 0x1250 SWAP1 PUSH2 0x1E39 JUMP JUMPDEST PUSH1 0x40 MLOAD DUP1 SWAP2 SUB SWAP1 REVERT JUMPDEST DUP1 PUSH1 0x8 ADD PUSH1 0x0 DUP5 PUSH20 0xFFFFFFFFFFFFFFFFFFFFFFFFFFFFFFFFFFFFFFFF AND PUSH20 0xFFFFFFFFFFFFFFFFFFFFFFFFFFFFFFFFFFFFFFFF AND DUP2 MSTORE PUSH1 0x20 ADD SWAP1 DUP2 MSTORE PUSH1 0x20 ADD PUSH1 0x0 KECCAK256 SLOAD SWAP2 POP POP SWAP3 SWAP2 POP POP JUMP JUMPDEST PUSH1 0x0 DUP1 PUSH1 0x0 DUP1 PUSH1 0x0 DUP1 PUSH1 0x0 DUP1 PUSH1 0x0 PUSH1 0x3 PUSH1 0x0 DUP12 DUP2 MSTORE PUSH1 0x20 ADD SWAP1 DUP2 MSTORE PUSH1 0x20 ADD PUSH1 0x0 KECCAK256 SWAP1 POP DUP10 DUP2 PUSH1 0x0 ADD SLOAD EQ PUSH2 0x130D JUMPI PUSH1 0x40 MLOAD PUSH32 0x8C379A000000000000000000000000000000000000000000000000000000000 DUP2 MSTORE PUSH1 0x4 ADD PUSH2 0x1304 SWAP1 PUSH2 0x1E39 JUMP JUMPDEST PUSH1 0x40 MLOAD DUP1 SWAP2 SUB SWAP1 REVERT JUMPDEST DUP1 PUSH1 0x1 ADD PUSH1 0x0 SWAP1 SLOAD SWAP1 PUSH2 0x100 EXP SWAP1 DIV PUSH20 0xFFFFFFFFFFFFFFFFFFFFFFFFFFFFFFFFFFFFFFFF AND DUP2 PUSH1 0x2 ADD SLOAD DUP3 PUSH1 0x3 ADD SLOAD DUP4 PUSH1 0x4 ADD SLOAD DUP5 PUSH1 0x5 ADD PUSH1 0x0 SWAP1 SLOAD SWAP1 PUSH2 0x100 EXP SWAP1 DIV PUSH20 0xFFFFFFFFFFFFFFFFFFFFFFFFFFFFFFFFFFFFFFFF AND DUP6 PUSH1 0x6 ADD SLOAD DUP7 PUSH1 0x7 ADD PUSH1 0x0 SWAP1 SLOAD SWAP1 PUSH2 0x100 EXP SWAP1 DIV PUSH1 0xFF AND DUP8 PUSH1 0x7 ADD PUSH1 0x1 SWAP1 SLOAD SWAP1 PUSH2 0x100 EXP SWAP1 DIV PUSH1 0xFF AND SWAP9 POP SWAP9 POP SWAP9 POP SWAP9 POP SWAP9 POP SWAP9 POP SWAP9 POP SWAP9 POP POP SWAP2 SWAP4 SWAP6 SWAP8 POP SWAP2 SWAP4 SWAP6 SWAP8 JUMP JUMPDEST PUSH2 0x13B3 PUSH2 0x17D4 JUMP JUMPDEST PUSH1 0x0 PUSH20 0xFFFFFFFFFFFFFFFFFFFFFFFFFFFFFFFFFFFFFFFF AND DUP2 PUSH20 0xFFFFFFFFFFFFFFFFFFFFFFFFFFFFFFFFFFFFFFFF AND SUB PUSH2 0x1425 JUMPI PUSH1 0x0 PUSH1 0x40 MLOAD PUSH32 0x1E4FBDF700000000000000000000000000000000000000000000000000000000 DUP2 MSTORE PUSH1 0x4 ADD PUSH2 0x141C SWAP2 SWAP1 PUSH2 0x1CBB JUMP JUMPDEST PUSH1 0x40 MLOAD DUP1 SWAP2 SUB SWAP1 REVERT JUMPDEST PUSH2 0x142E DUP2 PUSH2 0x185B JUMP JUMPDEST POP JUMP JUMPDEST PUSH2 0x1439 PUSH2 0x177C JUMP JUMPDEST PUSH1 0x0 PUSH1 0x3 PUSH1 0x0 DUP4 DUP2 MSTORE PUSH1 0x20 ADD SWAP1 DUP2 MSTORE PUSH1 0x20 ADD PUSH1 0x0 KECCAK256 SWAP1 POP DUP2 DUP2 PUSH1 0x0 ADD SLOAD EQ PUSH2 0x1496 JUMPI PUSH1 0x40 MLOAD PUSH32 0x8C379A000000000000000000000000000000000000000000000000000000000 DUP2 MSTORE PUSH1 0x4 ADD PUSH2 0x148D SWAP1 PUSH2 0x1E39 JUMP JUMPDEST PUSH1 0x40 MLOAD DUP1 SWAP2 SUB SWAP1 REVERT JUMPDEST DUP1 PUSH1 0x7 ADD PUSH1 0x0 SWAP1 SLOAD SWAP1 PUSH2 0x100 EXP SWAP1 DIV PUSH1 0xFF AND PUSH2 0x14E7 JUMPI PUSH1 0x40 MLOAD PUSH32 0x8C379A000000000000000000000000000000000000000000000000000000000 DUP2 MSTORE PUSH1 0x4 ADD PUSH2 0x14DE SWAP1 PUSH2 0x1EA5 JUMP JUMPDEST PUSH1 0x40 MLOAD DUP1 SWAP2 SUB SWAP1 REVERT JUMPDEST DUP1 PUSH1 0x5 ADD PUSH1 0x0 SWAP1 SLOAD SWAP1 PUSH2 0x100 EXP SWAP1 DIV PUSH20 0xFFFFFFFFFFFFFFFFFFFFFFFFFFFFFFFFFFFFFFFF AND PUSH20 0xFFFFFFFFFFFFFFFFFFFFFFFFFFFFFFFFFFFFFFFF AND CALLER PUSH20 0xFFFFFFFFFFFFFFFFFFFFFFFFFFFFFFFFFFFFFFFF AND EQ PUSH2 0x1579 JUMPI PUSH1 0x40 MLOAD PUSH32 0x8C379A000000000000000000000000000000000000000000000000000000000 DUP2 MSTORE PUSH1 0x4 ADD PUSH2 0x1570 SWAP1 PUSH2 0x2781 JUMP JUMPDEST PUSH1 0x40 MLOAD DUP1 SWAP2 SUB SWAP1 REVERT JUMPDEST DUP1 PUSH1 0x7 ADD PUSH1 0x1 SWAP1 SLOAD SWAP1 PUSH2 0x100 EXP SWAP1 DIV PUSH1 0xFF AND ISZERO PUSH2 0x15CB JUMPI PUSH1 0x40 MLOAD PUSH32 0x8C379A000000000000000000000000000000000000000000000000000000000 DUP2 MSTORE PUSH1 0x4 ADD PUSH2 0x15C2 SWAP1 PUSH2 0x27ED JUMP JUMPDEST PUSH1 0x40 MLOAD DUP1 SWAP2 SUB SWAP1 REVERT JUMPDEST PUSH1 0x1 DUP2 PUSH1 0x7 ADD PUSH1 0x1 PUSH2 0x100 EXP DUP2 SLOAD DUP2 PUSH1 0xFF MUL NOT AND SWAP1 DUP4 ISZERO ISZERO MUL OR SWAP1 SSTORE POP DUP1 PUSH1 0x1 ADD PUSH1 0x0 SWAP1 SLOAD SWAP1 PUSH2 0x100 EXP SWAP1 DIV PUSH20 0xFFFFFFFFFFFFFFFFFFFFFFFFFFFFFFFFFFFFFFFF AND PUSH20 0xFFFFFFFFFFFFFFFFFFFFFFFFFFFFFFFFFFFFFFFF AND PUSH4 0x42842E0E ADDRESS CALLER DUP5 PUSH1 0x2 ADD SLOAD PUSH1 0x40 MLOAD DUP5 PUSH4 0xFFFFFFFF AND PUSH1 0xE0 SHL DUP2 MSTORE PUSH1 0x4 ADD PUSH2 0x164D SWAP4 SWAP3 SWAP2 SWAP1 PUSH2 0x234C JUMP JUMPDEST PUSH1 0x0 PUSH1 0x40 MLOAD DUP1 DUP4 SUB DUP2 PUSH1 0x0 DUP8 DUP1 EXTCODESIZE ISZERO DUP1 ISZERO PUSH2 0x1667 JUMPI PUSH1 0x0 DUP1 REVERT JUMPDEST POP GAS CALL ISZERO DUP1 ISZERO PUSH2 0x167B JUMPI RETURNDATASIZE PUSH1 0x0 DUP1 RETURNDATACOPY RETURNDATASIZE PUSH1 0x0 REVERT JUMPDEST POP POP POP POP PUSH1 0x0 PUSH2 0x1689 PUSH2 0xAC5 JUMP JUMPDEST PUSH20 0xFFFFFFFFFFFFFFFFFFFFFFFFFFFFFFFFFFFFFFFF AND DUP3 PUSH1 0x6 ADD SLOAD PUSH1 0x40 MLOAD PUSH2 0x16B0 SWAP1 PUSH2 0x201A JUMP JUMPDEST PUSH1 0x0 PUSH1 0x40 MLOAD DUP1 DUP4 SUB DUP2 DUP6 DUP8 GAS CALL SWAP3 POP POP POP RETURNDATASIZE DUP1 PUSH1 0x0 DUP2 EQ PUSH2 0x16ED JUMPI PUSH1 0x40 MLOAD SWAP2 POP PUSH1 0x1F NOT PUSH1 0x3F RETURNDATASIZE ADD AND DUP3 ADD PUSH1 0x40 MSTORE RETURNDATASIZE DUP3 MSTORE RETURNDATASIZE PUSH1 0x0 PUSH1 0x20 DUP5 ADD RETURNDATACOPY PUSH2 0x16F2 JUMP JUMPDEST PUSH1 0x60 SWAP2 POP JUMPDEST POP POP SWAP1 POP DUP1 PUSH2 0x1736 JUMPI PUSH1 0x40 MLOAD PUSH32 0x8C379A000000000000000000000000000000000000000000000000000000000 DUP2 MSTORE PUSH1 0x4 ADD PUSH2 0x172D SWAP1 PUSH2 0x287F JUMP JUMPDEST PUSH1 0x40 MLOAD DUP1 SWAP2 SUB SWAP1 REVERT JUMPDEST PUSH32 0xEC5F0DEE1FC3C7BEAB746DBD5883EEE3F1C9BC07FE02DD318C553C5243F52FEA DUP4 CALLER PUSH1 0x40 MLOAD PUSH2 0x1767 SWAP3 SWAP2 SWAP1 PUSH2 0x289F JUMP JUMPDEST PUSH1 0x40 MLOAD DUP1 SWAP2 SUB SWAP1 LOG1 POP POP PUSH2 0x1779 PUSH2 0x17CB JUMP JUMPDEST POP JUMP JUMPDEST PUSH1 0x2 PUSH1 0x1 SLOAD SUB PUSH2 0x17C1 JUMPI PUSH1 0x40 MLOAD PUSH32 0x8C379A000000000000000000000000000000000000000000000000000000000 DUP2 MSTORE PUSH1 0x4 ADD PUSH2 0x17B8 SWAP1 PUSH2 0x2914 JUMP JUMPDEST PUSH1 0x40 MLOAD DUP1 SWAP2 SUB SWAP1 REVERT JUMPDEST PUSH1 0x2 PUSH1 0x1 DUP2 SWAP1 SSTORE POP JUMP JUMPDEST PUSH1 0x1 DUP1 DUP2 SWAP1 SSTORE POP JUMP JUMPDEST PUSH2 0x17DC PUSH2 0x191F JUMP JUMPDEST PUSH20 0xFFFFFFFFFFFFFFFFFFFFFFFFFFFFFFFFFFFFFFFF AND PUSH2 0x17FA PUSH2 0xAC5 JUMP JUMPDEST PUSH20 0xFFFFFFFFFFFFFFFFFFFFFFFFFFFFFFFFFFFFFFFF AND EQ PUSH2 0x1859 JUMPI PUSH2 0x181D PUSH2 0x191F JUMP JUMPDEST PUSH1 0x40 MLOAD PUSH32 0x118CDAA700000000000000000000000000000000000000000000000000000000 DUP2 MSTORE PUSH1 0x4 ADD PUSH2 0x1850 SWAP2 SWAP1 PUSH2 0x1CBB JUMP JUMPDEST PUSH1 0x40 MLOAD DUP1 SWAP2 SUB SWAP1 REVERT JUMPDEST JUMP JUMPDEST PUSH1 0x0 DUP1 PUSH1 0x0 SWAP1 SLOAD SWAP1 PUSH2 0x100 EXP SWAP1 DIV PUSH20 0xFFFFFFFFFFFFFFFFFFFFFFFFFFFFFFFFFFFFFFFF AND SWAP1 POP DUP2 PUSH1 0x0 DUP1 PUSH2 0x100 EXP DUP2 SLOAD DUP2 PUSH20 0xFFFFFFFFFFFFFFFFFFFFFFFFFFFFFFFFFFFFFFFF MUL NOT AND SWAP1 DUP4 PUSH20 0xFFFFFFFFFFFFFFFFFFFFFFFFFFFFFFFFFFFFFFFF AND MUL OR SWAP1 SSTORE POP DUP2 PUSH20 0xFFFFFFFFFFFFFFFFFFFFFFFFFFFFFFFFFFFFFFFF AND DUP2 PUSH20 0xFFFFFFFFFFFFFFFFFFFFFFFFFFFFFFFFFFFFFFFF AND PUSH32 0x8BE0079C531659141344CD1FD0A4F28419497F9722A3DAAFE3B4186F6B6457E0 PUSH1 0x40 MLOAD PUSH1 0x40 MLOAD DUP1 SWAP2 SUB SWAP1 LOG3 POP POP JUMP JUMPDEST PUSH1 0x0 CALLER SWAP1 POP SWAP1 JUMP JUMPDEST PUSH1 0x0 PUSH1 0x40 MLOAD SWAP1 POP SWAP1 JUMP JUMPDEST PUSH1 0x0 DUP1 REVERT JUMPDEST PUSH1 0x0 DUP1 REVERT JUMPDEST PUSH1 0x0 PUSH20 0xFFFFFFFFFFFFFFFFFFFFFFFFFFFFFFFFFFFFFFFF DUP3 AND SWAP1 POP SWAP2 SWAP1 POP JUMP JUMPDEST PUSH1 0x0 PUSH2 0x1966 DUP3 PUSH2 0x193B JUMP JUMPDEST SWAP1 POP SWAP2 SWAP1 POP JUMP JUMPDEST PUSH2 0x1976 DUP2 PUSH2 0x195B JUMP JUMPDEST DUP2 EQ PUSH2 0x1981 JUMPI PUSH1 0x0 DUP1 REVERT JUMPDEST POP JUMP JUMPDEST PUSH1 0x0 DUP2 CALLDATALOAD SWAP1 POP PUSH2 0x1993 DUP2 PUSH2 0x196D JUMP JUMPDEST SWAP3 SWAP2 POP POP JUMP JUMPDEST PUSH1 0x0 DUP2 SWAP1 POP SWAP2 SWAP1 POP JUMP JUMPDEST PUSH2 0x19AC DUP2 PUSH2 0x1999 JUMP JUMPDEST DUP2 EQ PUSH2 0x19B7 JUMPI PUSH1 0x0 DUP1 REVERT JUMPDEST POP JUMP JUMPDEST PUSH1 0x0 DUP2 CALLDATALOAD SWAP1 POP PUSH2 0x19C9 DUP2 PUSH2 0x19A3 JUMP JUMPDEST SWAP3 SWAP2 POP POP JUMP JUMPDEST PUSH1 0x0 DUP1 REVERT JUMPDEST PUSH1 0x0 DUP1 REVERT JUMPDEST PUSH1 0x0 PUSH1 0x1F NOT PUSH1 0x1F DUP4 ADD AND SWAP1 POP SWAP2 SWAP1 POP JUMP JUMPDEST PUSH32 0x4E487B7100000000000000000000000000000000000000000000000000000000 PUSH1 0x0 MSTORE PUSH1 0x41 PUSH1 0x4 MSTORE PUSH1 0x24 PUSH1 0x0 REVERT JUMPDEST PUSH2 0x1A22 DUP3 PUSH2 0x19D9 JUMP JUMPDEST DUP2 ADD DUP2 DUP2 LT PUSH8 0xFFFFFFFFFFFFFFFF DUP3 GT OR ISZERO PUSH2 0x1A41 JUMPI PUSH2 0x1A40 PUSH2 0x19EA JUMP JUMPDEST JUMPDEST DUP1 PUSH1 0x40 MSTORE POP POP POP JUMP JUMPDEST PUSH1 0x0 PUSH2 0x1A54 PUSH2 0x1927 JUMP JUMPDEST SWAP1 POP PUSH2 0x1A60 DUP3 DUP3 PUSH2 0x1A19 JUMP JUMPDEST SWAP2 SWAP1 POP JUMP JUMPDEST PUSH1 0x0 PUSH8 0xFFFFFFFFFFFFFFFF DUP3 GT ISZERO PUSH2 0x1A80 JUMPI PUSH2 0x1A7F PUSH2 0x19EA JUMP JUMPDEST JUMPDEST PUSH2 0x1A89 DUP3 PUSH2 0x19D9 JUMP JUMPDEST SWAP1 POP PUSH1 0x20 DUP2 ADD SWAP1 POP SWAP2 SWAP1 POP JUMP JUMPDEST DUP3 DUP2 DUP4 CALLDATACOPY PUSH1 0x0 DUP4 DUP4 ADD MSTORE POP POP POP JUMP JUMPDEST PUSH1 0x0 PUSH2 0x1AB8 PUSH2 0x1AB3 DUP5 PUSH2 0x1A65 JUMP JUMPDEST PUSH2 0x1A4A JUMP JUMPDEST SWAP1 POP DUP3 DUP2 MSTORE PUSH1 0x20 DUP2 ADD DUP5 DUP5 DUP5 ADD GT ISZERO PUSH2 0x1AD4 JUMPI PUSH2 0x1AD3 PUSH2 0x19D4 JUMP JUMPDEST JUMPDEST PUSH2 0x1ADF DUP5 DUP3 DUP6 PUSH2 0x1A96 JUMP JUMPDEST POP SWAP4 SWAP3 POP POP POP JUMP JUMPDEST PUSH1 0x0 DUP3 PUSH1 0x1F DUP4 ADD SLT PUSH2 0x1AFC JUMPI PUSH2 0x1AFB PUSH2 0x19CF JUMP JUMPDEST JUMPDEST DUP2 CALLDATALOAD PUSH2 0x1B0C DUP5 DUP3 PUSH1 0x20 DUP7 ADD PUSH2 0x1AA5 JUMP JUMPDEST SWAP2 POP POP SWAP3 SWAP2 POP POP JUMP JUMPDEST PUSH1 0x0 DUP1 PUSH1 0x0 DUP1 PUSH1 0x80 DUP6 DUP8 SUB SLT ISZERO PUSH2 0x1B2F JUMPI PUSH2 0x1B2E PUSH2 0x1931 JUMP JUMPDEST JUMPDEST PUSH1 0x0 PUSH2 0x1B3D DUP8 DUP3 DUP9 ADD PUSH2 0x1984 JUMP JUMPDEST SWAP5 POP POP PUSH1 0x20 PUSH2 0x1B4E DUP8 DUP3 DUP9 ADD PUSH2 0x1984 JUMP JUMPDEST SWAP4 POP POP PUSH1 0x40 PUSH2 0x1B5F DUP8 DUP3 DUP9 ADD PUSH2 0x19BA JUMP JUMPDEST SWAP3 POP POP PUSH1 0x60 DUP6 ADD CALLDATALOAD PUSH8 0xFFFFFFFFFFFFFFFF DUP2 GT ISZERO PUSH2 0x1B80 JUMPI PUSH2 0x1B7F PUSH2 0x1936 JUMP JUMPDEST JUMPDEST PUSH2 0x1B8C DUP8 DUP3 DUP9 ADD PUSH2 0x1AE7 JUMP JUMPDEST SWAP2 POP POP SWAP3 SWAP6 SWAP2 SWAP5 POP SWAP3 POP JUMP JUMPDEST PUSH1 0x0 PUSH32 0xFFFFFFFF00000000000000000000000000000000000000000000000000000000 DUP3 AND SWAP1 POP SWAP2 SWAP1 POP JUMP JUMPDEST PUSH2 0x1BCD DUP2 PUSH2 0x1B98 JUMP JUMPDEST DUP3 MSTORE POP POP JUMP JUMPDEST PUSH1 0x0 PUSH1 0x20 DUP3 ADD SWAP1 POP PUSH2 0x1BE8 PUSH1 0x0 DUP4 ADD DUP5 PUSH2 0x1BC4 JUMP JUMPDEST SWAP3 SWAP2 POP POP JUMP JUMPDEST PUSH2 0x1BF7 DUP2 PUSH2 0x1999 JUMP JUMPDEST DUP3 MSTORE POP POP JUMP JUMPDEST PUSH1 0x0 PUSH1 0x20 DUP3 ADD SWAP1 POP PUSH2 0x1C12 PUSH1 0x0 DUP4 ADD DUP5 PUSH2 0x1BEE JUMP JUMPDEST SWAP3 SWAP2 POP POP JUMP JUMPDEST PUSH1 0x0 PUSH1 0x20 DUP3 DUP5 SUB SLT ISZERO PUSH2 0x1C2E JUMPI PUSH2 0x1C2D PUSH2 0x1931 JUMP JUMPDEST JUMPDEST PUSH1 0x0 PUSH2 0x1C3C DUP5 DUP3 DUP6 ADD PUSH2 0x19BA JUMP JUMPDEST SWAP2 POP POP SWAP3 SWAP2 POP POP JUMP JUMPDEST PUSH1 0x0 DUP1 PUSH1 0x0 DUP1 PUSH1 0x80 DUP6 DUP8 SUB SLT ISZERO PUSH2 0x1C5F JUMPI PUSH2 0x1C5E PUSH2 0x1931 JUMP JUMPDEST JUMPDEST PUSH1 0x0 PUSH2 0x1C6D DUP8 DUP3 DUP9 ADD PUSH2 0x1984 JUMP JUMPDEST SWAP5 POP POP PUSH1 0x20 PUSH2 0x1C7E DUP8 DUP3 DUP9 ADD PUSH2 0x19BA JUMP JUMPDEST SWAP4 POP POP PUSH1 0x40 PUSH2 0x1C8F DUP8 DUP3 DUP9 ADD PUSH2 0x19BA JUMP JUMPDEST SWAP3 POP POP PUSH1 0x60 PUSH2 0x1CA0 DUP8 DUP3 DUP9 ADD PUSH2 0x19BA JUMP JUMPDEST SWAP2 POP POP SWAP3 SWAP6 SWAP2 SWAP5 POP SWAP3 POP JUMP JUMPDEST PUSH2 0x1CB5 DUP2 PUSH2 0x195B JUMP JUMPDEST DUP3 MSTORE POP POP JUMP JUMPDEST PUSH1 0x0 PUSH1 0x20 DUP3 ADD SWAP1 POP PUSH2 0x1CD0 PUSH1 0x0 DUP4 ADD DUP5 PUSH2 0x1CAC JUMP JUMPDEST SWAP3 SWAP2 POP POP JUMP JUMPDEST PUSH1 0x0 DUP1 PUSH1 0x40 DUP4 DUP6 SUB SLT ISZERO PUSH2 0x1CED JUMPI PUSH2 0x1CEC PUSH2 0x1931 JUMP JUMPDEST JUMPDEST PUSH1 0x0 PUSH2 0x1CFB DUP6 DUP3 DUP7 ADD PUSH2 0x19BA JUMP JUMPDEST SWAP3 POP POP PUSH1 0x20 PUSH2 0x1D0C DUP6 DUP3 DUP7 ADD PUSH2 0x1984 JUMP JUMPDEST SWAP2 POP POP SWAP3 POP SWAP3 SWAP1 POP JUMP JUMPDEST PUSH1 0x0 DUP2 ISZERO ISZERO SWAP1 POP SWAP2 SWAP1 POP JUMP JUMPDEST PUSH2 0x1D2B DUP2 PUSH2 0x1D16 JUMP JUMPDEST DUP3 MSTORE POP POP JUMP JUMPDEST PUSH1 0x0 PUSH2 0x100 DUP3 ADD SWAP1 POP PUSH2 0x1D47 PUSH1 0x0 DUP4 ADD DUP12 PUSH2 0x1CAC JUMP JUMPDEST PUSH2 0x1D54 PUSH1 0x20 DUP4 ADD DUP11 PUSH2 0x1BEE JUMP JUMPDEST PUSH2 0x1D61 PUSH1 0x40 DUP4 ADD DUP10 PUSH2 0x1BEE JUMP JUMPDEST PUSH2 0x1D6E PUSH1 0x60 DUP4 ADD DUP9 PUSH2 0x1BEE JUMP JUMPDEST PUSH2 0x1D7B PUSH1 0x80 DUP4 ADD DUP8 PUSH2 0x1CAC JUMP JUMPDEST PUSH2 0x1D88 PUSH1 0xA0 DUP4 ADD DUP7 PUSH2 0x1BEE JUMP JUMPDEST PUSH2 0x1D95 PUSH1 0xC0 DUP4 ADD DUP6 PUSH2 0x1D22 JUMP JUMPDEST PUSH2 0x1DA2 PUSH1 0xE0 DUP4 ADD DUP5 PUSH2 0x1D22 JUMP JUMPDEST SWAP10 SWAP9 POP POP POP POP POP POP POP POP POP JUMP JUMPDEST PUSH1 0x0 PUSH1 0x20 DUP3 DUP5 SUB SLT ISZERO PUSH2 0x1DC5 JUMPI PUSH2 0x1DC4 PUSH2 0x1931 JUMP JUMPDEST JUMPDEST PUSH1 0x0 PUSH2 0x1DD3 DUP5 DUP3 DUP6 ADD PUSH2 0x1984 JUMP JUMPDEST SWAP2 POP POP SWAP3 SWAP2 POP POP JUMP JUMPDEST PUSH1 0x0 DUP3 DUP3 MSTORE PUSH1 0x20 DUP3 ADD SWAP1 POP SWAP3 SWAP2 POP POP JUMP JUMPDEST PUSH32 0x446E6141756374696F6E3A206173746120696E6573697374656E746500000000 PUSH1 0x0 DUP3 ADD MSTORE POP JUMP JUMPDEST PUSH1 0x0 PUSH2 0x1E23 PUSH1 0x1C DUP4 PUSH2 0x1DDC JUMP JUMPDEST SWAP2 POP PUSH2 0x1E2E DUP3 PUSH2 0x1DED JUMP JUMPDEST PUSH1 0x20 DUP3 ADD SWAP1 POP SWAP2 SWAP1 POP JUMP JUMPDEST PUSH1 0x0 PUSH1 0x20 DUP3 ADD SWAP1 POP DUP2 DUP2 SUB PUSH1 0x0 DUP4 ADD MSTORE PUSH2 0x1E52 DUP2 PUSH2 0x1E16 JUMP JUMPDEST SWAP1 POP SWAP2 SWAP1 POP JUMP JUMPDEST PUSH32 0x446E6141756374696F6E3A2061737461206E6F6E207465726D696E6174610000 PUSH1 0x0 DUP3 ADD MSTORE POP JUMP JUMPDEST PUSH1 0x0 PUSH2 0x1E8F PUSH1 0x1E DUP4 PUSH2 0x1DDC JUMP JUMPDEST SWAP2 POP PUSH2 0x1E9A DUP3 PUSH2 0x1E59 JUMP JUMPDEST PUSH1 0x20 DUP3 ADD SWAP1 POP SWAP2 SWAP1 POP JUMP JUMPDEST PUSH1 0x0 PUSH1 0x20 DUP3 ADD SWAP1 POP DUP2 DUP2 SUB PUSH1 0x0 DUP4 ADD MSTORE PUSH2 0x1EBE DUP2 PUSH2 0x1E82 JUMP JUMPDEST SWAP1 POP SWAP2 SWAP1 POP JUMP JUMPDEST PUSH32 0x446E6141756374696F6E3A206C276F66666572656E74652070697520616C746F PUSH1 0x0 DUP3 ADD MSTORE PUSH32 0x206E6F6E2070756F207269636869656465726520756E2072696D626F72736F00 PUSH1 0x20 DUP3 ADD MSTORE POP JUMP JUMPDEST PUSH1 0x0 PUSH2 0x1F21 PUSH1 0x3F DUP4 PUSH2 0x1DDC JUMP JUMPDEST SWAP2 POP PUSH2 0x1F2C DUP3 PUSH2 0x1EC5 JUMP JUMPDEST PUSH1 0x40 DUP3 ADD SWAP1 POP SWAP2 SWAP1 POP JUMP JUMPDEST PUSH1 0x0 PUSH1 0x20 DUP3 ADD SWAP1 POP DUP2 DUP2 SUB PUSH1 0x0 DUP4 ADD MSTORE PUSH2 0x1F50 DUP2 PUSH2 0x1F14 JUMP JUMPDEST SWAP1 POP SWAP2 SWAP1 POP JUMP JUMPDEST PUSH32 0x446E6141756374696F6E3A206E657373756E61206F6666657274612064612072 PUSH1 0x0 DUP3 ADD MSTORE PUSH32 0x696D626F72736172650000000000000000000000000000000000000000000000 PUSH1 0x20 DUP3 ADD MSTORE POP JUMP JUMPDEST PUSH1 0x0 PUSH2 0x1FB3 PUSH1 0x29 DUP4 PUSH2 0x1DDC JUMP JUMPDEST SWAP2 POP PUSH2 0x1FBE DUP3 PUSH2 0x1F57 JUMP JUMPDEST PUSH1 0x40 DUP3 ADD SWAP1 POP SWAP2 SWAP1 POP JUMP JUMPDEST PUSH1 0x0 PUSH1 0x20 DUP3 ADD SWAP1 POP DUP2 DUP2 SUB PUSH1 0x0 DUP4 ADD MSTORE PUSH2 0x1FE2 DUP2 PUSH2 0x1FA6 JUMP JUMPDEST SWAP1 POP SWAP2 SWAP1 POP JUMP JUMPDEST PUSH1 0x0 DUP2 SWAP1 POP SWAP3 SWAP2 POP POP JUMP JUMPDEST POP JUMP JUMPDEST PUSH1 0x0 PUSH2 0x2004 PUSH1 0x0 DUP4 PUSH2 0x1FE9 JUMP JUMPDEST SWAP2 POP PUSH2 0x200F DUP3 PUSH2 0x1FF4 JUMP JUMPDEST PUSH1 0x0 DUP3 ADD SWAP1 POP SWAP2 SWAP1 POP JUMP JUMPDEST PUSH1 0x0 PUSH2 0x2025 DUP3 PUSH2 0x1FF7 JUMP JUMPDEST SWAP2 POP DUP2 SWAP1 POP SWAP2 SWAP1 POP JUMP JUMPDEST PUSH32 0x446E6141756374696F6E3A2072696D626F72736F2066616C6C69746F00000000 PUSH1 0x0 DUP3 ADD MSTORE POP JUMP JUMPDEST PUSH1 0x0 PUSH2 0x2065 PUSH1 0x1C DUP4 PUSH2 0x1DDC JUMP JUMPDEST SWAP2 POP PUSH2 0x2070 DUP3 PUSH2 0x202F JUMP JUMPDEST PUSH1 0x20 DUP3 ADD SWAP1 POP SWAP2 SWAP1 POP JUMP JUMPDEST PUSH1 0x0 PUSH1 0x20 DUP3 ADD SWAP1 POP DUP2 DUP2 SUB PUSH1 0x0 DUP4 ADD MSTORE PUSH2 0x2094 DUP2 PUSH2 0x2058 JUMP JUMPDEST SWAP1 POP SWAP2 SWAP1 POP JUMP JUMPDEST PUSH1 0x0 PUSH1 0x60 DUP3 ADD SWAP1 POP PUSH2 0x20B0 PUSH1 0x0 DUP4 ADD DUP7 PUSH2 0x1BEE JUMP JUMPDEST PUSH2 0x20BD PUSH1 0x20 DUP4 ADD DUP6 PUSH2 0x1CAC JUMP JUMPDEST PUSH2 0x20CA PUSH1 0x40 DUP4 ADD DUP5 PUSH2 0x1BEE JUMP JUMPDEST SWAP5 SWAP4 POP POP POP POP JUMP JUMPDEST PUSH32 0x446E6141756374696F6E3A206C61206475726174612064657665206573736572 PUSH1 0x0 DUP3 ADD MSTORE PUSH32 0x6520706F73697469766100000000000000000000000000000000000000000000 PUSH1 0x20 DUP3 ADD MSTORE POP JUMP JUMPDEST PUSH1 0x0 PUSH2 0x212E PUSH1 0x2A DUP4 PUSH2 0x1DDC JUMP JUMPDEST SWAP2 POP PUSH2 0x2139 DUP3 PUSH2 0x20D2 JUMP JUMPDEST PUSH1 0x40 DUP3 ADD SWAP1 POP SWAP2 SWAP1 POP JUMP JUMPDEST PUSH1 0x0 PUSH1 0x20 DUP3 ADD SWAP1 POP DUP2 DUP2 SUB PUSH1 0x0 DUP4 ADD MSTORE PUSH2 0x215D DUP2 PUSH2 0x2121 JUMP JUMPDEST SWAP1 POP SWAP2 SWAP1 POP JUMP JUMPDEST PUSH32 0x446E6141756374696F6E3A20696C207072657A7A6F20696E697A69616C652064 PUSH1 0x0 DUP3 ADD MSTORE PUSH32 0x65766520657373657265206D616767696F7265206469207A65726F0000000000 PUSH1 0x20 DUP3 ADD MSTORE POP JUMP JUMPDEST PUSH1 0x0 PUSH2 0x21C0 PUSH1 0x3B DUP4 PUSH2 0x1DDC JUMP JUMPDEST SWAP2 POP PUSH2 0x21CB DUP3 PUSH2 0x2164 JUMP JUMPDEST PUSH1 0x40 DUP3 ADD SWAP1 POP SWAP2 SWAP1 POP JUMP JUMPDEST PUSH1 0x0 PUSH1 0x20 DUP3 ADD SWAP1 POP DUP2 DUP2 SUB PUSH1 0x0 DUP4 ADD MSTORE PUSH2 0x21EF DUP2 PUSH2 0x21B3 JUMP JUMPDEST SWAP1 POP SWAP2 SWAP1 POP JUMP JUMPDEST PUSH1 0x0 DUP2 MLOAD SWAP1 POP PUSH2 0x2205 DUP2 PUSH2 0x196D JUMP JUMPDEST SWAP3 SWAP2 POP POP JUMP JUMPDEST PUSH1 0x0 PUSH1 0x20 DUP3 DUP5 SUB SLT ISZERO PUSH2 0x2221 JUMPI PUSH2 0x2220 PUSH2 0x1931 JUMP JUMPDEST JUMPDEST PUSH1 0x0 PUSH2 0x222F DUP5 DUP3 DUP6 ADD PUSH2 0x21F6 JUMP JUMPDEST SWAP2 POP POP SWAP3 SWAP2 POP POP JUMP JUMPDEST PUSH1 0x0 PUSH1 0x40 DUP3 ADD SWAP1 POP PUSH2 0x224D PUSH1 0x0 DUP4 ADD DUP6 PUSH2 0x1CAC JUMP JUMPDEST PUSH2 0x225A PUSH1 0x20 DUP4 ADD DUP5 PUSH2 0x1CAC JUMP JUMPDEST SWAP4 SWAP3 POP POP POP JUMP JUMPDEST PUSH2 0x226A DUP2 PUSH2 0x1D16 JUMP JUMPDEST DUP2 EQ PUSH2 0x2275 JUMPI PUSH1 0x0 DUP1 REVERT JUMPDEST POP JUMP JUMPDEST PUSH1 0x0 DUP2 MLOAD SWAP1 POP PUSH2 0x2287 DUP2 PUSH2 0x2261 JUMP JUMPDEST SWAP3 SWAP2 POP POP JUMP JUMPDEST PUSH1 0x0 PUSH1 0x20 DUP3 DUP5 SUB SLT ISZERO PUSH2 0x22A3 JUMPI PUSH2 0x22A2 PUSH2 0x1931 JUMP JUMPDEST JUMPDEST PUSH1 0x0 PUSH2 0x22B1 DUP5 DUP3 DUP6 ADD PUSH2 0x2278 JUMP JUMPDEST SWAP2 POP POP SWAP3 SWAP2 POP POP JUMP JUMPDEST PUSH32 0x446E6141756374696F6E3A20636F6E74726174746F206E6F6E206175746F7269 PUSH1 0x0 DUP3 ADD MSTORE PUSH32 0x7A7A61746F20612074726173666572697265206C274E46540000000000000000 PUSH1 0x20 DUP3 ADD MSTORE POP JUMP JUMPDEST PUSH1 0x0 PUSH2 0x2316 PUSH1 0x38 DUP4 PUSH2 0x1DDC JUMP JUMPDEST SWAP2 POP PUSH2 0x2321 DUP3 PUSH2 0x22BA JUMP JUMPDEST PUSH1 0x40 DUP3 ADD SWAP1 POP SWAP2 SWAP1 POP JUMP JUMPDEST PUSH1 0x0 PUSH1 0x20 DUP3 ADD SWAP1 POP DUP2 DUP2 SUB PUSH1 0x0 DUP4 ADD MSTORE PUSH2 0x2345 DUP2 PUSH2 0x2309 JUMP JUMPDEST SWAP1 POP SWAP2 SWAP1 POP JUMP JUMPDEST PUSH1 0x0 PUSH1 0x60 DUP3 ADD SWAP1 POP PUSH2 0x2361 PUSH1 0x0 DUP4 ADD DUP7 PUSH2 0x1CAC JUMP JUMPDEST PUSH2 0x236E PUSH1 0x20 DUP4 ADD DUP6 PUSH2 0x1CAC JUMP JUMPDEST PUSH2 0x237B PUSH1 0x40 DUP4 ADD DUP5 PUSH2 0x1BEE JUMP JUMPDEST SWAP5 SWAP4 POP POP POP POP JUMP JUMPDEST PUSH32 0x4E487B7100000000000000000000000000000000000000000000000000000000 PUSH1 0x0 MSTORE PUSH1 0x11 PUSH1 0x4 MSTORE PUSH1 0x24 PUSH1 0x0 REVERT JUMPDEST PUSH1 0x0 PUSH2 0x23BD DUP3 PUSH2 0x1999 JUMP JUMPDEST SWAP2 POP PUSH32 0xFFFFFFFFFFFFFFFFFFFFFFFFFFFFFFFFFFFFFFFFFFFFFFFFFFFFFFFFFFFFFFFF DUP3 SUB PUSH2 0x23EF JUMPI PUSH2 0x23EE PUSH2 0x2383 JUMP JUMPDEST JUMPDEST PUSH1 0x1 DUP3 ADD SWAP1 POP SWAP2 SWAP1 POP JUMP JUMPDEST PUSH1 0x0 PUSH2 0x2405 DUP3 PUSH2 0x1999 JUMP JUMPDEST SWAP2 POP PUSH2 0x2410 DUP4 PUSH2 0x1999 JUMP JUMPDEST SWAP3 POP DUP3 DUP3 ADD SWAP1 POP DUP1 DUP3 GT ISZERO PUSH2 0x2428 JUMPI PUSH2 0x2427 PUSH2 0x2383 JUMP JUMPDEST JUMPDEST SWAP3 SWAP2 POP POP JUMP JUMPDEST PUSH1 0x0 PUSH1 0xA0 DUP3 ADD SWAP1 POP PUSH2 0x2443 PUSH1 0x0 DUP4 ADD DUP9 PUSH2 0x1BEE JUMP JUMPDEST PUSH2 0x2450 PUSH1 0x20 DUP4 ADD DUP8 PUSH2 0x1CAC JUMP JUMPDEST PUSH2 0x245D PUSH1 0x40 DUP4 ADD DUP7 PUSH2 0x1BEE JUMP JUMPDEST PUSH2 0x246A PUSH1 0x60 DUP4 ADD DUP6 PUSH2 0x1BEE JUMP JUMPDEST PUSH2 0x2477 PUSH1 0x80 DUP4 ADD DUP5 PUSH2 0x1BEE JUMP JUMPDEST SWAP7 SWAP6 POP POP POP POP POP POP JUMP JUMPDEST PUSH32 0x446E6141756374696F6E3A206173746120676961207465726D696E6174610000 PUSH1 0x0 DUP3 ADD MSTORE POP JUMP JUMPDEST PUSH1 0x0 PUSH2 0x24B7 PUSH1 0x1E DUP4 PUSH2 0x1DDC JUMP JUMPDEST SWAP2 POP PUSH2 0x24C2 DUP3 PUSH2 0x2481 JUMP JUMPDEST PUSH1 0x20 DUP3 ADD SWAP1 POP SWAP2 SWAP1 POP JUMP JUMPDEST PUSH1 0x0 PUSH1 0x20 DUP3 ADD SWAP1 POP DUP2 DUP2 SUB PUSH1 0x0 DUP4 ADD MSTORE PUSH2 0x24E6 DUP2 PUSH2 0x24AA JUMP JUMPDEST SWAP1 POP SWAP2 SWAP1 POP JUMP JUMPDEST PUSH32 0x446E6141756374696F6E3A206173746120736361647574610000000000000000 PUSH1 0x0 DUP3 ADD MSTORE POP JUMP JUMPDEST PUSH1 0x0 PUSH2 0x2523 PUSH1 0x18 DUP4 PUSH2 0x1DDC JUMP JUMPDEST SWAP2 POP PUSH2 0x252E DUP3 PUSH2 0x24ED JUMP JUMPDEST PUSH1 0x20 DUP3 ADD SWAP1 POP SWAP2 SWAP1 POP JUMP JUMPDEST PUSH1 0x0 PUSH1 0x20 DUP3 ADD SWAP1 POP DUP2 DUP2 SUB PUSH1 0x0 DUP4 ADD MSTORE PUSH2 0x2552 DUP2 PUSH2 0x2516 JUMP JUMPDEST SWAP1 POP SWAP2 SWAP1 POP JUMP JUMPDEST PUSH32 0x446E6141756374696F6E3A206F666665727461206E6F6E20616262617374616E PUSH1 0x0 DUP3 ADD MSTORE PUSH32 0x7A6120616C746100000000000000000000000000000000000000000000000000 PUSH1 0x20 DUP3 ADD MSTORE POP JUMP JUMPDEST PUSH1 0x0 PUSH2 0x25B5 PUSH1 0x27 DUP4 PUSH2 0x1DDC JUMP JUMPDEST SWAP2 POP PUSH2 0x25C0 DUP3 PUSH2 0x2559 JUMP JUMPDEST PUSH1 0x40 DUP3 ADD SWAP1 POP SWAP2 SWAP1 POP JUMP JUMPDEST PUSH1 0x0 PUSH1 0x20 DUP3 ADD SWAP1 POP DUP2 DUP2 SUB PUSH1 0x0 DUP4 ADD MSTORE PUSH2 0x25E4 DUP2 PUSH2 0x25A8 JUMP JUMPDEST SWAP1 POP SWAP2 SWAP1 POP JUMP JUMPDEST PUSH32 0x446E6141756374696F6E3A2061737461206E6F6E20616E636F72612073636164 PUSH1 0x0 DUP3 ADD MSTORE PUSH32 0x7574610000000000000000000000000000000000000000000000000000000000 PUSH1 0x20 DUP3 ADD MSTORE POP JUMP JUMPDEST PUSH1 0x0 PUSH2 0x2647 PUSH1 0x23 DUP4 PUSH2 0x1DDC JUMP JUMPDEST SWAP2 POP PUSH2 0x2652 DUP3 PUSH2 0x25EB JUMP JUMPDEST PUSH1 0x40 DUP3 ADD SWAP1 POP SWAP2 SWAP1 POP JUMP JUMPDEST PUSH1 0x0 PUSH1 0x20 DUP3 ADD SWAP1 POP DUP2 DUP2 SUB PUSH1 0x0 DUP4 ADD MSTORE PUSH2 0x2676 DUP2 PUSH2 0x263A JUMP JUMPDEST SWAP1 POP SWAP2 SWAP1 POP JUMP JUMPDEST PUSH32 0x446E6141756374696F6E3A2074726173666572696D656E746F20666F6E646920 PUSH1 0x0 DUP3 ADD MSTORE PUSH32 0x66616C6C69746F00000000000000000000000000000000000000000000000000 PUSH1 0x20 DUP3 ADD MSTORE POP JUMP JUMPDEST PUSH1 0x0 PUSH2 0x26D9 PUSH1 0x27 DUP4 PUSH2 0x1DDC JUMP JUMPDEST SWAP2 POP PUSH2 0x26E4 DUP3 PUSH2 0x267D JUMP JUMPDEST PUSH1 0x40 DUP3 ADD SWAP1 POP SWAP2 SWAP1 POP JUMP JUMPDEST PUSH1 0x0 PUSH1 0x20 DUP3 ADD SWAP1 POP DUP2 DUP2 SUB PUSH1 0x0 DUP4 ADD MSTORE PUSH2 0x2708 DUP2 PUSH2 0x26CC JUMP JUMPDEST SWAP1 POP SWAP2 SWAP1 POP JUMP JUMPDEST PUSH32 0x446E6141756374696F6E3A206E6F6E20736569206C276F66666572656E746520 PUSH1 0x0 DUP3 ADD MSTORE PUSH32 0x70697520616C746F000000000000000000000000000000000000000000000000 PUSH1 0x20 DUP3 ADD MSTORE POP JUMP JUMPDEST PUSH1 0x0 PUSH2 0x276B PUSH1 0x28 DUP4 PUSH2 0x1DDC JUMP JUMPDEST SWAP2 POP PUSH2 0x2776 DUP3 PUSH2 0x270F JUMP JUMPDEST PUSH1 0x40 DUP3 ADD SWAP1 POP SWAP2 SWAP1 POP JUMP JUMPDEST PUSH1 0x0 PUSH1 0x20 DUP3 ADD SWAP1 POP DUP2 DUP2 SUB PUSH1 0x0 DUP4 ADD MSTORE PUSH2 0x279A DUP2 PUSH2 0x275E JUMP JUMPDEST SWAP1 POP SWAP2 SWAP1 POP JUMP JUMPDEST PUSH32 0x446E6141756374696F6E3A204E46542067696120726976656E64696361746F00 PUSH1 0x0 DUP3 ADD MSTORE POP JUMP JUMPDEST PUSH1 0x0 PUSH2 0x27D7 PUSH1 0x1F DUP4 PUSH2 0x1DDC JUMP JUMPDEST SWAP2 POP PUSH2 0x27E2 DUP3 PUSH2 0x27A1 JUMP JUMPDEST PUSH1 0x20 DUP3 ADD SWAP1 POP SWAP2 SWAP1 POP JUMP JUMPDEST PUSH1 0x0 PUSH1 0x20 DUP3 ADD SWAP1 POP DUP2 DUP2 SUB PUSH1 0x0 DUP4 ADD MSTORE PUSH2 0x2806 DUP2 PUSH2 0x27CA JUMP JUMPDEST SWAP1 POP SWAP2 SWAP1 POP JUMP JUMPDEST PUSH32 0x446E6141756374696F6E3A2074726173666572696D656E746F2066616C6C6974 PUSH1 0x0 DUP3 ADD MSTORE PUSH32 0x6F00000000000000000000000000000000000000000000000000000000000000 PUSH1 0x20 DUP3 ADD MSTORE POP JUMP JUMPDEST PUSH1 0x0 PUSH2 0x2869 PUSH1 0x21 DUP4 PUSH2 0x1DDC JUMP JUMPDEST SWAP2 POP PUSH2 0x2874 DUP3 PUSH2 0x280D JUMP JUMPDEST PUSH1 0x40 DUP3 ADD SWAP1 POP SWAP2 SWAP1 POP JUMP JUMPDEST PUSH1 0x0 PUSH1 0x20 DUP3 ADD SWAP1 POP DUP2 DUP2 SUB PUSH1 0x0 DUP4 ADD MSTORE PUSH2 0x2898 DUP2 PUSH2 0x285C JUMP JUMPDEST SWAP1 POP SWAP2 SWAP1 POP JUMP JUMPDEST PUSH1 0x0 PUSH1 0x40 DUP3 ADD SWAP1 POP PUSH2 0x28B4 PUSH1 0x0 DUP4 ADD DUP6 PUSH2 0x1BEE JUMP JUMPDEST PUSH2 0x28C1 PUSH1 0x20 DUP4 ADD DUP5 PUSH2 0x1CAC JUMP JUMPDEST SWAP4 SWAP3 POP POP POP JUMP JUMPDEST PUSH32 0x5265656E7472616E637947756172643A207265656E7472616E742063616C6C00 PUSH1 0x0 DUP3 ADD MSTORE POP JUMP JUMPDEST PUSH1 0x0 PUSH2 0x28FE PUSH1 0x1F DUP4 PUSH2 0x1DDC JUMP JUMPDEST SWAP2 POP PUSH2 0x2909 DUP3 PUSH2 0x28C8 JUMP JUMPDEST PUSH1 0x20 DUP3 ADD SWAP1 POP SWAP2 SWAP1 POP JUMP JUMPDEST PUSH1 0x0 PUSH1 0x20 DUP3 ADD SWAP1 POP DUP2 DUP2 SUB PUSH1 0x0 DUP4 ADD MSTORE PUSH2 0x292D DUP2 PUSH2 0x28F1 JUMP JUMPDEST SWAP1 POP SWAP2 SWAP1 POP JUMP INVALID LOG2 PUSH5 0x6970667358 0x22 SLT KECCAK256 0xBE 0xDC 0xA7 0x24 PUSH3 0xACFDE6 0xEC PUSH24 0xD86E09C0F24C41E592236B610831BB53CC181578A0F76473 PUSH16 0x6C634300081C00330000000000000000 "},"methodIdentifiers":{"MAX_BIDDERS()":"4cc4f50d","claimNFT(uint256)":"fe5c873a","claimRefund(uint256)":"5b7baf64","createAuction(address,uint256,uint256,uint256)":"61beb1d7","endAuction(uint256)":"b9a2de3a","getAuctionDetails(uint256)":"f20e5e35","getBid(uint256,address)":"eba1b60b","getTotalAuctions()":"3ef14cc8","onERC721Received(address,address,uint256,bytes)":"150b7a02","owner()":"8da5cb5b","placeBid(uint256)":"9979ef45","renounceOwnership()":"715018a6","transferOwnership(address)":"f2fde38b"}}}}}