{"contracts/DnaAuction.sol":{"DnaAuction":{"abi":[{"inputs":[],"stateMutability":"nonpayable","type":"constructor"},{"inputs":[{"internalType":"address","name":"owner","type":"address"}],"name":"OwnableInvalidOwner","type":"error"},{"inputs":[{"internalType":"address","name":"account","type":"address"}],"name":"OwnableUnauthorizedAccount","type":"error"},{"anonymous":false,"inputs":[{"indexed":false,"internalType":"uint256","name":"auctionId","type":"uint256"},{"indexed":false,"internalType":"address","name":"nftContract","type":"address"},{"indexed":false,"internalType":"uint256","name":"tokenId","type":"uint256"},{"indexed":false,"internalType":"uint256","name":"startingPrice","type":"uint256"},{"indexed":false,"internalType":"uint256","name":"endTime","type":"uint256"}],"name":"AuctionCreated","type":"event"},{"anonymous":false,"inputs":[{"indexed":false,"internalType":"uint256","name":"auctionId","type":"uint256"},{"indexed":false,"internalType":"address","name":"winner","type":"address"},{"indexed":false,"internalType":"uint256","name":"amount","type":"uint256"}],"name":"AuctionEnded","type":"event"},{"anonymous":false,"inputs":[{"indexed":false,"internalType":"uint256","name":"auctionId","type":"uint256"},{"indexed":false,"internalType":"address","name":"bidder","type":"address"},{"indexed":false,"internalType":"uint256","name":"amount","type":"uint256"}],"name":"BidPlaced","type":"event"},{"anonymous":false,"inputs":[{"indexed":false,"internalType":"uint256","name":"auctionId","type":"uint256"},{"indexed":false,"internalType":"address","name":"bidder","type":"address"},{"indexed":false,"internalType":"uint256","name":"amount","type":"uint256"}],"name":"BidRefunded","type":"event"},{"anonymous":false,"inputs":[{"indexed":false,"internalType":"uint256","name":"auctionId","type":"uint256"},{"indexed":false,"internalType":"address","name":"winner","type":"address"}],"name":"NFTClaimed","type":"event"},{"anonymous":false,"inputs":[{"indexed":true,"internalType":"address","name":"previousOwner","type":"address"},{"indexed":true,"internalType":"address","name":"newOwner","type":"address"}],"name":"OwnershipTransferred","type":"event"},{"inputs":[{"internalType":"address","name":"nftContract","type":"address"},{"internalType":"uint256","name":"tokenId","type":"uint256"},{"internalType":"uint256","name":"startingPrice","type":"uint256"},{"internalType":"uint256","name":"duration","type":"uint256"}],"name":"createAuction","outputs":[{"internalType":"uint256","name":"","type":"uint256"}],"stateMutability":"nonpayable","type":"function"},{"inputs":[],"name":"getTotalAuctions","outputs":[{"internalType":"uint256","name":"","type":"uint256"}],"stateMutability":"view","type":"function"},{"inputs":[{"internalType":"address","name":"","type":"address"},{"internalType":"address","name":"","type":"address"},{"internalType":"uint256","name":"","type":"uint256"},{"internalType":"bytes","name":"","type":"bytes"}],"name":"onERC721Received","outputs":[{"internalType":"bytes4","name":"","type":"bytes4"}],"stateMutability":"nonpayable","type":"function"},{"inputs":[],"name":"owner","outputs":[{"internalType":"address","name":"","type":"address"}],"stateMutability":"view","type":"function"},{"inputs":[],"name":"renounceOwnership","outputs":[],"stateMutability":"nonpayable","type":"function"},{"inputs":[{"internalType":"address","name":"newOwner","type":"address"}],"name":"transferOwnership","outputs":[],"stateMutability":"nonpayable","type":"function"}],"evm":{"bytecode":{"linkReferences":{},"object":"608060405234801561001057600080fd5b5033600073ffffffffffffffffffffffffffffffffffffffff168173ffffffffffffffffffffffffffffffffffffffff16036100845760006040517f1e4fbdf700000000000000000000000000000000000000000000000000000000815260040161007b919061019e565b60405180910390fd5b6100938161009960201b60201c565b506101b9565b60008060009054906101000a900473ffffffffffffffffffffffffffffffffffffffff169050816000806101000a81548173ffffffffffffffffffffffffffffffffffffffff021916908373ffffffffffffffffffffffffffffffffffffffff1602179055508173ffffffffffffffffffffffffffffffffffffffff168173ffffffffffffffffffffffffffffffffffffffff167f8be0079c531659141344cd1fd0a4f28419497f9722a3daafe3b4186f6b6457e060405160405180910390a35050565b600073ffffffffffffffffffffffffffffffffffffffff82169050919050565b60006101888261015d565b9050919050565b6101988161017d565b82525050565b60006020820190506101b3600083018461018f565b92915050565b610b04806101c86000396000f3fe608060405234801561001057600080fd5b50600436106100625760003560e01c8063150b7a02146100675780633ef14cc81461009757806361beb1d7146100b5578063715018a6146100e55780638da5cb5b146100ef578063f2fde38b1461010d575b600080fd5b610081600480360381019061007c9190610735565b610129565b60405161008e91906107f3565b60405180910390f35b61009f61013d565b6040516100ac919061081d565b60405180910390f35b6100cf60048036038101906100ca9190610838565b610147565b6040516100dc919061081d565b60405180910390f35b6100ed610331565b005b6100f7610345565b60405161010491906108ae565b60405180910390f35b610127600480360381019061012291906108c9565b61036e565b005b600063150b7a0260e01b9050949350505050565b6000600154905090565b60006101516103f4565b60008211610194576040517f08c379a000000000000000000000000000000000000000000000000000000000815260040161018b90610979565b60405180910390fd5b8473ffffffffffffffffffffffffffffffffffffffff166342842e0e3330876040518463ffffffff1660e01b81526004016101d193929190610999565b600060405180830381600087803b1580156101eb57600080fd5b505af11580156101ff573d6000803e3d6000fd5b50505050600060016000815480929190610218906109ff565b9190505590506000600260008381526020019081526020016000209050818160000181905550868160010160006101000a81548173ffffffffffffffffffffffffffffffffffffffff021916908373ffffffffffffffffffffffffffffffffffffffff160217905550858160020181905550848160030181905550834261029f9190610a47565b816004018190555060008160070160006101000a81548160ff02191690831515021790555060008160070160016101000a81548160ff0219169083151502179055507f05f9bf100dd0ca9f37f08e0526690286d357ed7d6c5a4ac29730440b6e2dfd6282888888856004015460405161031c959493929190610a7b565b60405180910390a18192505050949350505050565b6103396103f4565b610343600061047b565b565b60008060009054906101000a900473ffffffffffffffffffffffffffffffffffffffff16905090565b6103766103f4565b600073ffffffffffffffffffffffffffffffffffffffff168173ffffffffffffffffffffffffffffffffffffffff16036103e85760006040517f1e4fbdf70000000000000000000000000000000000000000000000000000000081526004016103df91906108ae565b60405180910390fd5b6103f18161047b565b50565b6103fc61053f565b73ffffffffffffffffffffffffffffffffffffffff1661041a610345565b73ffffffffffffffffffffffffffffffffffffffff16146104795761043d61053f565b6040517f118cdaa700000000000000000000000000000000000000000000000000000000815260040161047091906108ae565b60405180910390fd5b565b60008060009054906101000a900473ffffffffffffffffffffffffffffffffffffffff169050816000806101000a81548173ffffffffffffffffffffffffffffffffffffffff021916908373ffffffffffffffffffffffffffffffffffffffff1602179055508173ffffffffffffffffffffffffffffffffffffffff168173ffffffffffffffffffffffffffffffffffffffff167f8be0079c531659141344cd1fd0a4f28419497f9722a3daafe3b4186f6b6457e060405160405180910390a35050565b600033905090565b6000604051905090565b600080fd5b600080fd5b600073ffffffffffffffffffffffffffffffffffffffff82169050919050565b60006105868261055b565b9050919050565b6105968161057b565b81146105a157600080fd5b50565b6000813590506105b38161058d565b92915050565b6000819050919050565b6105cc816105b9565b81146105d757600080fd5b50565b6000813590506105e9816105c3565b92915050565b600080fd5b600080fd5b6000601f19601f8301169050919050565b7f4e487b7100000000000000000000000000000000000000000000000000000000600052604160045260246000fd5b610642826105f9565b810181811067ffffffffffffffff821117156106615761066061060a565b5b80604052505050565b6000610674610547565b90506106808282610639565b919050565b600067ffffffffffffffff8211156106a05761069f61060a565b5b6106a9826105f9565b9050602081019050919050565b82818337600083830152505050565b60006106d86106d384610685565b61066a565b9050828152602081018484840111156106f4576106f36105f4565b5b6106ff8482856106b6565b509392505050565b600082601f83011261071c5761071b6105ef565b5b813561072c8482602086016106c5565b91505092915050565b6000806000806080858703121561074f5761074e610551565b5b600061075d878288016105a4565b945050602061076e878288016105a4565b935050604061077f878288016105da565b925050606085013567ffffffffffffffff8111156107a05761079f610556565b5b6107ac87828801610707565b91505092959194509250565b60007fffffffff0000000000000000000000000000000000000000000000000000000082169050919050565b6107ed816107b8565b82525050565b600060208201905061080860008301846107e4565b92915050565b610817816105b9565b82525050565b6000602082019050610832600083018461080e565b92915050565b6000806000806080858703121561085257610851610551565b5b6000610860878288016105a4565b9450506020610871878288016105da565b9350506040610882878288016105da565b9250506060610893878288016105da565b91505092959194509250565b6108a88161057b565b82525050565b60006020820190506108c3600083018461089f565b92915050565b6000602082840312156108df576108de610551565b5b60006108ed848285016105a4565b91505092915050565b600082825260208201905092915050565b7f446e6141756374696f6e3a206c6120647572617461206465766520657373657260008201527f6520706f73697469766100000000000000000000000000000000000000000000602082015250565b6000610963602a836108f6565b915061096e82610907565b604082019050919050565b6000602082019050818103600083015261099281610956565b9050919050565b60006060820190506109ae600083018661089f565b6109bb602083018561089f565b6109c8604083018461080e565b949350505050565b7f4e487b7100000000000000000000000000000000000000000000000000000000600052601160045260246000fd5b6000610a0a826105b9565b91507fffffffffffffffffffffffffffffffffffffffffffffffffffffffffffffffff8203610a3c57610a3b6109d0565b5b600182019050919050565b6000610a52826105b9565b9150610a5d836105b9565b9250828201905080821115610a7557610a746109d0565b5b92915050565b600060a082019050610a90600083018861080e565b610a9d602083018761089f565b610aaa604083018661080e565b610ab7606083018561080e565b610ac4608083018461080e565b969550505050505056fea2646970667358221220c42b2559c6c2a23842d0db66ae6d18f1d6aa2b8318961599c41d2ea3ecd2f80d64736f6c634300081c0033","opcodes":"PUSH1 0x80 PUSH1 0x40 MSTORE CALLVALUE DUP1 ISZERO PUSH2 0x10 JUMPI PUSH1 0x0 DUP1 REVERT JUMPDEST POP CALLER PUSH1 0x0 PUSH20 0xFFFFFFFFFFFFFFFFFFFFFFFFFFFFFFFFFFFFFFFF AND DUP2 PUSH20 0xFFFFFFFFFFFFFFFFFFFFFFFFFFFFFFFFFFFFFFFF AND SUB PUSH2 0x84 JUMPI PUSH1 0x0 PUSH1 0x40 MLOAD PUSH32 0x1E4FBDF700000000000000000000000000000000000000000000000000000000 DUP2 MSTORE PUSH1 0x4 ADD PUSH2 0x7B SWAP2 SWAP1 PUSH2 0x19E JUMP JUMPDEST PUSH1 0x40 MLOAD DUP1 SWAP2 SUB SWAP1 REVERT JUMPDEST PUSH2 0x93 DUP2 PUSH2 0x99 PUSH1 0x20 SHL PUSH1 0x20 SHR JUMP JUMPDEST POP PUSH2 0x1B9 JUMP JUMPDEST PUSH1 0x0 DUP1 PUSH1 0x0 SWAP1 SLOAD SWAP1 PUSH2 0x100 EXP SWAP1 DIV PUSH20 0xFFFFFFFFFFFFFFFFFFFFFFFFFFFFFFFFFFFFFFFF AND SWAP1 POP DUP2 PUSH1 0x0 DUP1 PUSH2 0x100 EXP DUP2 SLOAD DUP2 PUSH20 0xFFFFFFFFFFFFFFFFFFFFFFFFFFFFFFFFFFFFFFFF MUL NOT AND SWAP1 DUP4 PUSH20 0xFFFFFFFFFFFFFFFFFFFFFFFFFFFFFFFFFFFFFFFF AND MUL OR SWAP1 SSTORE POP DUP2 PUSH20 0xFFFFFFFFFFFFFFFFFFFFFFFFFFFFFFFFFFFFFFFF AND DUP2 PUSH20 0xFFFFFFFFFFFFFFFFFFFFFFFFFFFFFFFFFFFFFFFF AND PUSH32 0x8BE0079C531659141344CD1FD0A4F28419497F9722A3DAAFE3B4186F6B6457E0 PUSH1 0x40 MLOAD PUSH1 0x40 MLOAD DUP1 SWAP2 SUB SWAP1 LOG3 POP POP JUMP JUMPDEST PUSH1 0x0 PUSH20 0xFFFFFFFFFFFFFFFFFFFFFFFFFFFFFFFFFFFFFFFF DUP3 AND SWAP1 POP SWAP2 SWAP1 POP JUMP JUMPDEST PUSH1 0x0 PUSH2 0x188 DUP3 PUSH2 0x15D JUMP JUMPDEST SWAP1 POP SWAP2 SWAP1 POP JUMP JUMPDEST PUSH2 0x198 DUP2 PUSH2 0x17D JUMP JUMPDEST DUP3 MSTORE POP POP JUMP JUMPDEST PUSH1 0x0 PUSH1 0x20 DUP3 ADD SWAP1 POP PUSH2 0x1B3 PUSH1 0x0 DUP4 ADD DUP5 PUSH2 0x18F JUMP JUMPDEST SWAP3 SWAP2 POP POP JUMP JUMPDEST PUSH2 0xB04 DUP1 PUSH2 0x1C8 PUSH1 0x0 CODECOPY PUSH1 0x0 RETURN INVALID PUSH1 0x80 PUSH1 0x40 MSTORE CALLVALUE DUP1 ISZERO PUSH2 0x10 JUMPI PUSH1 0x0 DUP1 REVERT JUMPDEST POP PUSH1 0x4 CALLDATASIZE LT PUSH2 0x62 JUMPI PUSH1 0x0 CALLDATALOAD PUSH1 0xE0 SHR DUP1 PUSH4 0x150B7A02 EQ PUSH2 0x67 JUMPI DUP1 PUSH4 0x3EF14CC8 EQ PUSH2 0x97 JUMPI DUP1 PUSH4 0x61BEB1D7 EQ PUSH2 0xB5 JUMPI DUP1 PUSH4 0x715018A6 EQ PUSH2 0xE5 JUMPI DUP1 PUSH4 0x8DA5CB5B EQ PUSH2 0xEF JUMPI DUP1 PUSH4 0xF2FDE38B EQ PUSH2 0x10D JUMPI JUMPDEST PUSH1 0x0 DUP1 REVERT JUMPDEST PUSH2 0x81 PUSH1 0x4 DUP1 CALLDATASIZE SUB DUP2 ADD SWAP1 PUSH2 0x7C SWAP2 SWAP1 PUSH2 0x735 JUMP JUMPDEST PUSH2 0x129 JUMP JUMPDEST PUSH1 0x40 MLOAD PUSH2 0x8E SWAP2 SWAP1 PUSH2 0x7F3 JUMP JUMPDEST PUSH1 0x40 MLOAD DUP1 SWAP2 SUB SWAP1 RETURN JUMPDEST PUSH2 0x9F PUSH2 0x13D JUMP JUMPDEST PUSH1 0x40 MLOAD PUSH2 0xAC SWAP2 SWAP1 PUSH2 0x81D JUMP JUMPDEST PUSH1 0x40 MLOAD DUP1 SWAP2 SUB SWAP1 RETURN JUMPDEST PUSH2 0xCF PUSH1 0x4 DUP1 CALLDATASIZE SUB DUP2 ADD SWAP1 PUSH2 0xCA SWAP2 SWAP1 PUSH2 0x838 JUMP JUMPDEST PUSH2 0x147 JUMP JUMPDEST PUSH1 0x40 MLOAD PUSH2 0xDC SWAP2 SWAP1 PUSH2 0x81D JUMP JUMPDEST PUSH1 0x40 MLOAD DUP1 SWAP2 SUB SWAP1 RETURN JUMPDEST PUSH2 0xED PUSH2 0x331 JUMP JUMPDEST STOP JUMPDEST PUSH2 0xF7 PUSH2 0x345 JUMP JUMPDEST PUSH1 0x40 MLOAD PUSH2 0x104 SWAP2 SWAP1 PUSH2 0x8AE JUMP JUMPDEST PUSH1 0x40 MLOAD DUP1 SWAP2 SUB SWAP1 RETURN JUMPDEST PUSH2 0x127 PUSH1 0x4 DUP1 CALLDATASIZE SUB DUP2 ADD SWAP1 PUSH2 0x122 SWAP2 SWAP1 PUSH2 0x8C9 JUMP JUMPDEST PUSH2 0x36E JUMP JUMPDEST STOP JUMPDEST PUSH1 0x0 PUSH4 0x150B7A02 PUSH1 0xE0 SHL SWAP1 POP SWAP5 SWAP4 POP POP POP POP JUMP JUMPDEST PUSH1 0x0 PUSH1 0x1 SLOAD SWAP1 POP SWAP1 JUMP JUMPDEST PUSH1 0x0 PUSH2 0x151 PUSH2 0x3F4 JUMP JUMPDEST PUSH1 0x0 DUP3 GT PUSH2 0x194 JUMPI PUSH1 0x40 MLOAD PUSH32 0x8C379A000000000000000000000000000000000000000000000000000000000 DUP2 MSTORE PUSH1 0x4 ADD PUSH2 0x18B SWAP1 PUSH2 0x979 JUMP JUMPDEST PUSH1 0x40 MLOAD DUP1 SWAP2 SUB SWAP1 REVERT JUMPDEST DUP5 PUSH20 0xFFFFFFFFFFFFFFFFFFFFFFFFFFFFFFFFFFFFFFFF AND PUSH4 0x42842E0E CALLER ADDRESS DUP8 PUSH1 0x40 MLOAD DUP5 PUSH4 0xFFFFFFFF AND PUSH1 0xE0 SHL DUP2 MSTORE PUSH1 0x4 ADD PUSH2 0x1D1 SWAP4 SWAP3 SWAP2 SWAP1 PUSH2 0x999 JUMP JUMPDEST PUSH1 0x0 PUSH1 0x40 MLOAD DUP1 DUP4 SUB DUP2 PUSH1 0x0 DUP8 DUP1 EXTCODESIZE ISZERO DUP1 ISZERO PUSH2 0x1EB JUMPI PUSH1 0x0 DUP1 REVERT JUMPDEST POP GAS CALL ISZERO DUP1 ISZERO PUSH2 0x1FF JUMPI RETURNDATASIZE PUSH1 0x0 DUP1 RETURNDATACOPY RETURNDATASIZE PUSH1 0x0 REVERT JUMPDEST POP POP POP POP PUSH1 0x0 PUSH1 0x1 PUSH1 0x0 DUP2 SLOAD DUP1 SWAP3 SWAP2 SWAP1 PUSH2 0x218 SWAP1 PUSH2 0x9FF JUMP JUMPDEST SWAP2 SWAP1 POP SSTORE SWAP1 POP PUSH1 0x0 PUSH1 0x2 PUSH1 0x0 DUP4 DUP2 MSTORE PUSH1 0x20 ADD SWAP1 DUP2 MSTORE PUSH1 0x20 ADD PUSH1 0x0 KECCAK256 SWAP1 POP DUP2 DUP2 PUSH1 0x0 ADD DUP2 SWAP1 SSTORE POP DUP7 DUP2 PUSH1 0x1 ADD PUSH1 0x0 PUSH2 0x100 EXP DUP2 SLOAD DUP2 PUSH20 0xFFFFFFFFFFFFFFFFFFFFFFFFFFFFFFFFFFFFFFFF MUL NOT AND SWAP1 DUP4 PUSH20 0xFFFFFFFFFFFFFFFFFFFFFFFFFFFFFFFFFFFFFFFF AND MUL OR SWAP1 SSTORE POP DUP6 DUP2 PUSH1 0x2 ADD DUP2 SWAP1 SSTORE POP DUP5 DUP2 PUSH1 0x3 ADD DUP2 SWAP1 SSTORE POP DUP4 TIMESTAMP PUSH2 0x29F SWAP2 SWAP1 PUSH2 0xA47 JUMP JUMPDEST DUP2 PUSH1 0x4 ADD DUP2 SWAP1 SSTORE POP PUSH1 0x0 DUP2 PUSH1 0x7 ADD PUSH1 0x0 PUSH2 0x100 EXP DUP2 SLOAD DUP2 PUSH1 0xFF MUL NOT AND SWAP1 DUP4 ISZERO ISZERO MUL OR SWAP1 SSTORE POP PUSH1 0x0 DUP2 PUSH1 0x7 ADD PUSH1 0x1 PUSH2 0x100 EXP DUP2 SLOAD DUP2 PUSH1 0xFF MUL NOT AND SWAP1 DUP4 ISZERO ISZERO MUL OR SWAP1 SSTORE POP PUSH32 0x5F9BF100DD0CA9F37F08E0526690286D357ED7D6C5A4AC29730440B6E2DFD62 DUP3 DUP9 DUP9 DUP9 DUP6 PUSH1 0x4 ADD SLOAD PUSH1 0x40 MLOAD PUSH2 0x31C SWAP6 SWAP5 SWAP4 SWAP3 SWAP2 SWAP1 PUSH2 0xA7B JUMP JUMPDEST PUSH1 0x40 MLOAD DUP1 SWAP2 SUB SWAP1 LOG1 DUP2 SWAP3 POP POP POP SWAP5 SWAP4 POP POP POP POP JUMP JUMPDEST PUSH2 0x339 PUSH2 0x3F4 JUMP JUMPDEST PUSH2 0x343 PUSH1 0x0 PUSH2 0x47B JUMP JUMPDEST JUMP JUMPDEST PUSH1 0x0 DUP1 PUSH1 0x0 SWAP1 SLOAD SWAP1 PUSH2 0x100 EXP SWAP1 DIV PUSH20 0xFFFFFFFFFFFFFFFFFFFFFFFFFFFFFFFFFFFFFFFF AND SWAP1 POP SWAP1 JUMP JUMPDEST PUSH2 0x376 PUSH2 0x3F4 JUMP JUMPDEST PUSH1 0x0 PUSH20 0xFFFFFFFFFFFFFFFFFFFFFFFFFFFFFFFFFFFFFFFF AND DUP2 PUSH20 0xFFFFFFFFFFFFFFFFFFFFFFFFFFFFFFFFFFFFFFFF AND SUB PUSH2 0x3E8 JUMPI PUSH1 0x0 PUSH1 0x40 MLOAD PUSH32 0x1E4FBDF700000000000000000000000000000000000000000000000000000000 DUP2 MSTORE PUSH1 0x4 ADD PUSH2 0x3DF SWAP2 SWAP1 PUSH2 0x8AE JUMP JUMPDEST PUSH1 0x40 MLOAD DUP1 SWAP2 SUB SWAP1 REVERT JUMPDEST PUSH2 0x3F1 DUP2 PUSH2 0x47B JUMP JUMPDEST POP JUMP JUMPDEST PUSH2 0x3FC PUSH2 0x53F JUMP JUMPDEST PUSH20 0xFFFFFFFFFFFFFFFFFFFFFFFFFFFFFFFFFFFFFFFF AND PUSH2 0x41A PUSH2 0x345 JUMP JUMPDEST PUSH20 0xFFFFFFFFFFFFFFFFFFFFFFFFFFFFFFFFFFFFFFFF AND EQ PUSH2 0x479 JUMPI PUSH2 0x43D PUSH2 0x53F JUMP JUMPDEST PUSH1 0x40 MLOAD PUSH32 0x118CDAA700000000000000000000000000000000000000000000000000000000 DUP2 MSTORE PUSH1 0x4 ADD PUSH2 0x470 SWAP2 SWAP1 PUSH2 0x8AE JUMP JUMPDEST PUSH1 0x40 MLOAD DUP1 SWAP2 SUB SWAP1 REVERT JUMPDEST JUMP JUMPDEST PUSH1 0x0 DUP1 PUSH1 0x0 SWAP1 SLOAD SWAP1 PUSH2 0x100 EXP SWAP1 DIV PUSH20 0xFFFFFFFFFFFFFFFFFFFFFFFFFFFFFFFFFFFFFFFF AND SWAP1 POP DUP2 PUSH1 0x0 DUP1 PUSH2 0x100 EXP DUP2 SLOAD DUP2 PUSH20 0xFFFFFFFFFFFFFFFFFFFFFFFFFFFFFFFFFFFFFFFF MUL NOT AND SWAP1 DUP4 PUSH20 0xFFFFFFFFFFFFFFFFFFFFFFFFFFFFFFFFFFFFFFFF AND MUL OR SWAP1 SSTORE POP DUP2 PUSH20 0xFFFFFFFFFFFFFFFFFFFFFFFFFFFFFFFFFFFFFFFF AND DUP2 PUSH20 0xFFFFFFFFFFFFFFFFFFFFFFFFFFFFFFFFFFFFFFFF AND PUSH32 0x8BE0079C531659141344CD1FD0A4F28419497F9722A3DAAFE3B4186F6B6457E0 PUSH1 0x40 MLOAD PUSH1 0x40 MLOAD DUP1 SWAP2 SUB SWAP1 LOG3 POP POP JUMP JUMPDEST PUSH1 0x0 CALLER SWAP1 POP SWAP1 JUMP JUMPDEST PUSH1 0x0 PUSH1 0x40 MLOAD SWAP1 POP SWAP1 JUMP JUMPDEST PUSH1 0x0 DUP1 REVERT JUMPDEST PUSH1 0x0 DUP1 REVERT JUMPDEST PUSH1 0x0 PUSH20 0xFFFFFFFFFFFFFFFFFFFFFFFFFFFFFFFFFFFFFFFF DUP3 AND SWAP1 POP SWAP2 SWAP1 POP JUMP JUMPDEST PUSH1 0x0 PUSH2 0x586 DUP3 PUSH2 0x55B JUMP JUMPDEST SWAP1 POP SWAP2 SWAP1 POP JUMP JUMPDEST PUSH2 0x596 DUP2 PUSH2 0x57B JUMP JUMPDEST DUP2 EQ PUSH2 0x5A1 JUMPI PUSH1 0x0 DUP1 REVERT JUMPDEST POP JUMP JUMPDEST PUSH1 0x0 DUP2 CALLDATALOAD SWAP1 POP PUSH2 0x5B3 DUP2 PUSH2 0x58D JUMP JUMPDEST SWAP3 SWAP2 POP POP JUMP JUMPDEST PUSH1 0x0 DUP2 SWAP1 POP SWAP2 SWAP1 POP JUMP JUMPDEST PUSH2 0x5CC DUP2 PUSH2 0x5B9 JUMP JUMPDEST DUP2 EQ PUSH2 0x5D7 JUMPI PUSH1 0x0 DUP1 REVERT JUMPDEST POP JUMP JUMPDEST PUSH1 0x0 DUP2 CALLDATALOAD SWAP1 POP PUSH2 0x5E9 DUP2 PUSH2 0x5C3 JUMP JUMPDEST SWAP3 SWAP2 POP POP JUMP JUMPDEST PUSH1 0x0 DUP1 REVERT JUMPDEST PUSH1 0x0 DUP1 REVERT JUMPDEST PUSH1 0x0 PUSH1 0x1F NOT PUSH1 0x1F DUP4 ADD AND SWAP1 POP SWAP2 SWAP1 POP JUMP JUMPDEST PUSH32 0x4E487B7100000000000000000000000000000000000000000000000000000000 PUSH1 0x0 MSTORE PUSH1 0x41 PUSH1 0x4 MSTORE PUSH1 0x24 PUSH1 0x0 REVERT JUMPDEST PUSH2 0x642 DUP3 PUSH2 0x5F9 JUMP JUMPDEST DUP2 ADD DUP2 DUP2 LT PUSH8 0xFFFFFFFFFFFFFFFF DUP3 GT OR ISZERO PUSH2 0x661 JUMPI PUSH2 0x660 PUSH2 0x60A JUMP JUMPDEST JUMPDEST DUP1 PUSH1 0x40 MSTORE POP POP POP JUMP JUMPDEST PUSH1 0x0 PUSH2 0x674 PUSH2 0x547 JUMP JUMPDEST SWAP1 POP PUSH2 0x680 DUP3 DUP3 PUSH2 0x639 JUMP JUMPDEST SWAP2 SWAP1 POP JUMP JUMPDEST PUSH1 0x0 PUSH8 0xFFFFFFFFFFFFFFFF DUP3 GT ISZERO PUSH2 0x6A0 JUMPI PUSH2 0x69F PUSH2 0x60A JUMP JUMPDEST JUMPDEST PUSH2 0x6A9 DUP3 PUSH2 0x5F9 JUMP JUMPDEST SWAP1 POP PUSH1 0x20 DUP2 ADD SWAP1 POP SWAP2 SWAP1 POP JUMP JUMPDEST DUP3 DUP2 DUP4 CALLDATACOPY PUSH1 0x0 DUP4 DUP4 ADD MSTORE POP POP POP JUMP JUMPDEST PUSH1 0x0 PUSH2 0x6D8 PUSH2 0x6D3 DUP5 PUSH2 0x685 JUMP JUMPDEST PUSH2 0x66A JUMP JUMPDEST SWAP1 POP DUP3 DUP2 MSTORE PUSH1 0x20 DUP2 ADD DUP5 DUP5 DUP5 ADD GT ISZERO PUSH2 0x6F4 JUMPI PUSH2 0x6F3 PUSH2 0x5F4 JUMP JUMPDEST JUMPDEST PUSH2 0x6FF DUP5 DUP3 DUP6 PUSH2 0x6B6 JUMP JUMPDEST POP SWAP4 SWAP3 POP POP POP JUMP JUMPDEST PUSH1 0x0 DUP3 PUSH1 0x1F DUP4 ADD SLT PUSH2 0x71C JUMPI PUSH2 0x71B PUSH2 0x5EF JUMP JUMPDEST JUMPDEST DUP2 CALLDATALOAD PUSH2 0x72C DUP5 DUP3 PUSH1 0x20 DUP7 ADD PUSH2 0x6C5 JUMP JUMPDEST SWAP2 POP POP SWAP3 SWAP2 POP POP JUMP JUMPDEST PUSH1 0x0 DUP1 PUSH1 0x0 DUP1 PUSH1 0x80 DUP6 DUP8 SUB SLT ISZERO PUSH2 0x74F JUMPI PUSH2 0x74E PUSH2 0x551 JUMP JUMPDEST JUMPDEST PUSH1 0x0 PUSH2 0x75D DUP8 DUP3 DUP9 ADD PUSH2 0x5A4 JUMP JUMPDEST SWAP5 POP POP PUSH1 0x20 PUSH2 0x76E DUP8 DUP3 DUP9 ADD PUSH2 0x5A4 JUMP JUMPDEST SWAP4 POP POP PUSH1 0x40 PUSH2 0x77F DUP8 DUP3 DUP9 ADD PUSH2 0x5DA JUMP JUMPDEST SWAP3 POP POP PUSH1 0x60 DUP6 ADD CALLDATALOAD PUSH8 0xFFFFFFFFFFFFFFFF DUP2 GT ISZERO PUSH2 0x7A0 JUMPI PUSH2 0x79F PUSH2 0x556 JUMP JUMPDEST JUMPDEST PUSH2 0x7AC DUP8 DUP3 DUP9 ADD PUSH2 0x707 JUMP JUMPDEST SWAP2 POP POP SWAP3 SWAP6 SWAP2 SWAP5 POP SWAP3 POP JUMP JUMPDEST PUSH1 0x0 PUSH32 0xFFFFFFFF00000000000000000000000000000000000000000000000000000000 DUP3 AND SWAP1 POP SWAP2 SWAP1 POP JUMP JUMPDEST PUSH2 0x7ED DUP2 PUSH2 0x7B8 JUMP JUMPDEST DUP3 MSTORE POP POP JUMP JUMPDEST PUSH1 0x0 PUSH1 0x20 DUP3 ADD SWAP1 POP PUSH2 0x808 PUSH1 0x0 DUP4 ADD DUP5 PUSH2 0x7E4 JUMP JUMPDEST SWAP3 SWAP2 POP POP JUMP JUMPDEST PUSH2 0x817 DUP2 PUSH2 0x5B9 JUMP JUMPDEST DUP3 MSTORE POP POP JUMP JUMPDEST PUSH1 0x0 PUSH1 0x20 DUP3 ADD SWAP1 POP PUSH2 0x832 PUSH1 0x0 DUP4 ADD DUP5 PUSH2 0x80E JUMP JUMPDEST SWAP3 SWAP2 POP POP JUMP JUMPDEST PUSH1 0x0 DUP1 PUSH1 0x0 DUP1 PUSH1 0x80 DUP6 DUP8 SUB SLT ISZERO PUSH2 0x852 JUMPI PUSH2 0x851 PUSH2 0x551 JUMP JUMPDEST JUMPDEST PUSH1 0x0 PUSH2 0x860 DUP8 DUP3 DUP9 ADD PUSH2 0x5A4 JUMP JUMPDEST SWAP5 POP POP PUSH1 0x20 PUSH2 0x871 DUP8 DUP3 DUP9 ADD PUSH2 0x5DA JUMP JUMPDEST SWAP4 POP POP PUSH1 0x40 PUSH2 0x882 DUP8 DUP3 DUP9 ADD PUSH2 0x5DA JUMP JUMPDEST SWAP3 POP POP PUSH1 0x60 PUSH2 0x893 DUP8 DUP3 DUP9 ADD PUSH2 0x5DA JUMP JUMPDEST SWAP2 POP POP SWAP3 SWAP6 SWAP2 SWAP5 POP SWAP3 POP JUMP JUMPDEST PUSH2 0x8A8 DUP2 PUSH2 0x57B JUMP JUMPDEST DUP3 MSTORE POP POP JUMP JUMPDEST PUSH1 0x0 PUSH1 0x20 DUP3 ADD SWAP1 POP PUSH2 0x8C3 PUSH1 0x0 DUP4 ADD DUP5 PUSH2 0x89F JUMP JUMPDEST SWAP3 SWAP2 POP POP JUMP JUMPDEST PUSH1 0x0 PUSH1 0x20 DUP3 DUP5 SUB SLT ISZERO PUSH2 0x8DF JUMPI PUSH2 0x8DE PUSH2 0x551 JUMP JUMPDEST JUMPDEST PUSH1 0x0 PUSH2 0x8ED DUP5 DUP3 DUP6 ADD PUSH2 0x5A4 JUMP JUMPDEST SWAP2 POP POP SWAP3 SWAP2 POP POP JUMP JUMPDEST PUSH1 0x0 DUP3 DUP3 MSTORE PUSH1 0x20 DUP3 ADD SWAP1 POP SWAP3 SWAP2 POP POP JUMP JUMPDEST PUSH32 0x446E6141756374696F6E3A206C61206475726174612064657665206573736572 PUSH1 0x0 DUP3 ADD MSTORE PUSH32 0x6520706F73697469766100000000000000000000000000000000000000000000 PUSH1 0x20 DUP3 ADD MSTORE POP JUMP JUMPDEST PUSH1 0x0 PUSH2 0x963 PUSH1 0x2A DUP4 PUSH2 0x8F6 JUMP JUMPDEST SWAP2 POP PUSH2 0x96E DUP3 PUSH2 0x907 JUMP JUMPDEST PUSH1 0x40 DUP3 ADD SWAP1 POP SWAP2 SWAP1 POP JUMP JUMPDEST PUSH1 0x0 PUSH1 0x20 DUP3 ADD SWAP1 POP DUP2 DUP2 SUB PUSH1 0x0 DUP4 ADD MSTORE PUSH2 0x992 DUP2 PUSH2 0x956 JUMP JUMPDEST SWAP1 POP SWAP2 SWAP1 POP JUMP JUMPDEST PUSH1 0x0 PUSH1 0x60 DUP3 ADD SWAP1 POP PUSH2 0x9AE PUSH1 0x0 DUP4 ADD DUP7 PUSH2 0x89F JUMP JUMPDEST PUSH2 0x9BB PUSH1 0x20 DUP4 ADD DUP6 PUSH2 0x89F JUMP JUMPDEST PUSH2 0x9C8 PUSH1 0x40 DUP4 ADD DUP5 PUSH2 0x80E JUMP JUMPDEST SWAP5 SWAP4 POP POP POP POP JUMP JUMPDEST PUSH32 0x4E487B7100000000000000000000000000000000000000000000000000000000 PUSH1 0x0 MSTORE PUSH1 0x11 PUSH1 0x4 MSTORE PUSH1 0x24 PUSH1 0x0 REVERT JUMPDEST PUSH1 0x0 PUSH2 0xA0A DUP3 PUSH2 0x5B9 JUMP JUMPDEST SWAP2 POP PUSH32 0xFFFFFFFFFFFFFFFFFFFFFFFFFFFFFFFFFFFFFFFFFFFFFFFFFFFFFFFFFFFFFFFF DUP3 SUB PUSH2 0xA3C JUMPI PUSH2 0xA3B PUSH2 0x9D0 JUMP JUMPDEST JUMPDEST PUSH1 0x1 DUP3 ADD SWAP1 POP SWAP2 SWAP1 POP JUMP JUMPDEST PUSH1 0x0 PUSH2 0xA52 DUP3 PUSH2 0x5B9 JUMP JUMPDEST SWAP2 POP PUSH2 0xA5D DUP4 PUSH2 0x5B9 JUMP JUMPDEST SWAP3 POP DUP3 DUP3 ADD SWAP1 POP DUP1 DUP3 GT ISZERO PUSH2 0xA75 JUMPI PUSH2 0xA74 PUSH2 0x9D0 JUMP JUMPDEST JUMPDEST SWAP3 SWAP2 POP POP JUMP JUMPDEST PUSH1 0x0 PUSH1 0xA0 DUP3 ADD SWAP1 POP PUSH2 0xA90 PUSH1 0x0 DUP4 ADD DUP9 PUSH2 0x80E JUMP JUMPDEST PUSH2 0xA9D PUSH1 0x20 DUP4 ADD DUP8 PUSH2 0x89F JUMP JUMPDEST PUSH2 0xAAA PUSH1 0x40 DUP4 ADD DUP7 PUSH2 0x80E JUMP JUMPDEST PUSH2 0xAB7 PUSH1 0x60 DUP4 ADD DUP6 PUSH2 0x80E JUMP JUMPDEST PUSH2 0xAC4 PUSH1 0x80 DUP4 ADD DUP5 PUSH2 0x80E JUMP JUMPDEST SWAP7 SWAP6 POP POP POP POP POP POP JUMP INVALID LOG2 PUSH5 0x6970667358 0x22 SLT KECCAK256 0xC4 0x2B 0x25 MSIZE 0xC6 0xC2 LOG2 CODESIZE TIMESTAMP 0xD0 0xDB PUSH7 0xAE6D18F1D6AA2B DUP4 XOR SWAP7 ISZERO SWAP10 0xC4 SAR 0x2E LOG3 0xEC 0xD2 0xF8 0xD PUSH5 0x736F6C6343 STOP ADDMOD SHR STOP CALLER "},"methodIdentifiers":{"createAuction(address,uint256,uint256,uint256)":"61beb1d7","getTotalAuctions()":"3ef14cc8","onERC721Received(address,address,uint256,bytes)":"150b7a02","owner()":"8da5cb5b","renounceOwnership()":"715018a6","transferOwnership(address)":"f2fde38b"}}}}}